:100000000C9472000C9493000C9493000C94930045
:100010000C9499040C946F040C9445040C94930074
:100020000C9493000C9493000C9493000C94930004
:100030000C9493000C9493000C9493000C949300F4
:100040000C9493000C9493000C9493000C949300E4
:100050000C9493000C9493000C9493000C949300D4
:100060000C9493000C9493000C9493000C949300C4
:100070000C9493000C9493000C9493000C949300B4
:100080000C9493000C9493000C9493000C949300A4
:100090000C9493000C9493000C9493000C94930094
:1000A0000C9493000C9493000C9493000C94930084
:1000B0000C9493000C9493000C9493000C94930074
:1000C0000C9493000C9493000C9493000C94930064
:1000D0000C9493000C9493000C9493000C94930054
:1000E0000C94930011241FBECFEFD1E2DEBFCDBF31
:1000F00000E00CBF12E0A0E0B2E0EEE5F4E200E0C8
:100100000BBF02C007900D92A432B107D9F712E0DD
:10011000A4E2B2E001C01D92AC39B107E1F70E9440
:10012000DF0D0C942D120C9400001092B900ECEB32
:10013000F0E0108284EC80838AE08093B800089518
:10014000ECEBF0E08081806680830895ECEBF0E0DA
:100150008081806880830895ECEBF0E080818823C3
:10016000ECF70895ECEBF0E08081806180830895E6
:100170008091B900887F08958093BB0008952091F5
:10018000BB00FC01208308951F93CF93DF93182FAA
:10019000C62FD42F0E94A0000E94AC000E94B8007D
:1001A000883051F5812F0E94BC00ECEBF0E080819B
:1001B0008F7D80830E94A6000E94AC000E94B80040
:1001C0008831E1F48C2F0E94BC000E94A6000E949E
:1001D000AC000E94B800883299F48D2F0E94BC00B8
:1001E0000E94A6000E94AC000E94B800883251F420
:1001F0000E94B20080E007C088EF05C089EF03C00D
:100200008BEF01C08BEFDF91CF911F9108950F937A
:100210001F93CF93DF93C82FD62F8A010E94A0008F
:100220000E94AC000E94B800883009F048C08C2FB2
:100230000E94BC00ECEBF0E080818F7D80830E9407
:10024000A6000E94AC000E94B8008831D1F58D2F25
:100250000E94BC000E94A6000E94AC000E94B80050
:10026000883289F50E94A0000E94AC000E94B8006C
:10027000803159F58C2F81600E94BC00ECEBF0E0DE
:1002800080818F7D80830E94A6000E94AC000E9426
:10029000B8008034E1F4ECEBF0E080818F7B808368
:1002A0000E94A6000E94AC000E94B800883589F424
:1002B000C8010E94BF000E94B20080E00BC088EF1E
:1002C00009C089EF07C08BEF05C08DEF03C08AEF2F
:1002D00001C08CEFDF91CF911F910F9108958F9204
:1002E0009F92AF92BF92CF92DF92EF92FF920F93C5
:1002F0001F93CF93DF93C82F062F5A0169010E94E5
:10030000A0000E94AC000E94B800883009F073C0C1
:100310008C2F0E94BC00ECEBF0E080818F7D80830D
:100320000E94A6000E94AC000E94B800883109F02B
:1003300064C0802F80680E94BC000E94A6000E94BA
:10034000AC000E94B800883209F059C00E94A00099
:100350000E94AC000E94B800803109F052C08C2F7E
:1003600081600E94BC00ECEBF0E080818F7D808397
:100370000E94A6000E94AC000E94B800803409F0E0
:1003800042C0A114B10499F1C0E0D0E07501089415
:10039000E108F1080CEB10E046018E0C9F1CEC16F6
:1003A000FD0681F4F80180818F7B80830E94A60086
:1003B0000E94AC000E94B800883539F5C4010E9443
:1003C000BF0011C0F8018081806480830E94A60074
:1003D0000E94AC000E94B8008035C9F4C6018C0FA1
:1003E0009D1F0E94BF002196CA15DB05C1F60E9421
:1003F000B20080E00DC088EF0BC089EF09C08BEF21
:1004000007C08DEF05C08AEF03C08FEF01C08EEFEC
:10041000DF91CF911F910F91FF90EF90DF90CF90E0
:10042000BF90AF909F908F90089586E69EE00197D1
:10043000F1F700004098419880E388B9429AEFEFC5
:10044000F7E43197F1F700C000004298E6E6FEE0DD
:100450003197F1F700004098419888B9429AEFEF40
:10046000F7E43197F1F700C000004298E6E6FEE0BD
:100470003197F1F700004098419888B9429A8FEF80
:1004800097E40197F1F700C000004298E6E6FEE02D
:100490003197F1F700004098419880E288B9429A7C
:1004A0008FEF97E40197F1F700C00000429808959C
:1004B00098B19F7098B998B1282F207F922B98B946
:1004C00040984198429AEFEFF7E43197F1F700C076
:1004D0000000429898B19F7098B998B18295807F3A
:1004E000892B88B940984198429A8FEF97E40197F9
:1004F000F1F700C00000429808950E94150286E6B8
:100500009EE00197F1F7000088E20E94580281E026
:100510000E94580286E00E9458028EE00E94580213
:1005200080E80E945802089598B19F7098B998B1D8
:10053000282F207F922B98B9409A4198429AEFEF4A
:10054000F7E43197F1F700C00000429898B19F702E
:1005500098B998B18295807F892B88B9409A419843
:10056000429A8FEF97E40197F1F700C0000042989C
:10057000089580E80E9458020895CF93DF93EC011C
:100580008881882331F021960E94940289918823E2
:10059000D9F7DF91CF910895823079F0833018F444
:1005A0008130C9F405C0833069F08430A1F40FC0F4
:1005B000862F81580E9458020895862F81540E94E8
:1005C00058020895862F8D560E9458020895862F4E
:1005D0008D520E94580208950F931F93CF93DF937B
:1005E0008A01E901882311F0662319F40E94B902F7
:1005F00002C00E94CC02C530D10571F4C80160E18F
:1006000077E20E941912CB01C096909381028093E9
:1006100080020E94940203C0C430D105B9F4C8011D
:1006200068EE73E00E941912CB017093830260930D
:1006300082026AE070E00E941912C09690939B02B9
:1006400080939A020E94940281E001C080E0C3304E
:10065000D10511F08130B1F4C80164E670E00E9468
:100660001912CB0170938302609382026AE070E0FA
:100670000E941912C09690939502809394020E9452
:10068000940281E0C230D10511F08130B1F42AE04A
:1006900030E0C801B9010E941912CB0170938302A6
:1006A00060938202B9010E941912C0969093900241
:1006B00080938F020E94940281E0C130D10511F035
:1006C000813061F4C8016AE070E00E941912C0969E
:1006D00090939902809398020E949402C630D105AB
:1006E0001CF085E40E949402DF91CF911F910F913D
:1006F00008953B9A439808956C98749A08956D985C
:10070000759A089587B1876F87B988B1807888B95D
:10071000089510BA11BA10920701109208010895B5
:1007200081B18F6081B982B1807F82B9EAE0F1E066
:10073000808188618083EBE0F1E080818861808343
:1007400008958AB1876F8AB95B9A0895259A2D9A80
:1007500008950E9482030E9479030E9482030E94EE
:1007600089030E9490030E947C030E947F030E94E1
:10077000A1030E94A6030895E1ECF0E0108210921C
:10078000C00086E08093C2008FE58093C400109281
:10079000C50088E180830895F894EAE6F0E080815E
:1007A00082608083EC9A78940895F894EAE6F0E009
:1007B000808188608083ED9A78940895E1E2F1E089
:1007C00010828FEF8093250191E090932401109285
:1007D00029018093280110922B0180932A01109205
:1007E0002D0180932C0189EA809320018BE0808386
:1007F0000895E1E8F0E010828CEF8093850081E0BD
:100800008093840093E0909389008FEF8093880019
:1008100090938B0080938A0090938D0080938C003E
:1008200090938700809386008BEA809380001092DB
:1008300082008CE080830895EAE7F0E01082109255
:100840007B0080E280937C0080E880BF86E8808324
:100850000895F894E9E6F0E0808180688083EB9A5F
:1008600078940895F8940E94A9030E94BC030E9402
:10087000CC030E94D5030E94DE030E94F9030E946C
:100880001C040E942904789408951F920F920FB6B9
:100890000F9211248F939F93AF93BF9380913C024B
:1008A00090913D02A0913E02B0913F020196A11DA0
:1008B000B11D80933C0290933D02A0933E02B09301
:1008C0003F0280914E028F5F80934E02BF91AF91A5
:1008D0009F918F910F900FBE0F901F9018951F92B0
:1008E0000F920FB60F9211248F939F93AF93BF93E4
:1008F0008091400290914102A0914202B091430246
:100900000196A11DB11D8093400290934102A093D6
:100910004202B093430280914F028F5F80934F0257
:10092000BF91AF919F918F910F900FBE0F901F902D
:1009300018951F920F920FB60F9211248F939F93C9
:10094000AF93BF938091360290913702A091380205
:10095000B09139020196A11DB11D8093360290938A
:100960003702A0933802B0933902BF91AF919F91A3
:100970008F910F900FBE0F901F901895439A8FEF95
:100980009FE3A2E081509040A040E1F700C000004A
:1009900043980895439A8AE090E00197F1F708950B
:1009A00010928900682F70E080E090E00E9463114F
:1009B0002BE734E14EEE5FE30E94CF1020E030E001
:1009C0004CE052E40E9467100E9437116093880047
:1009D000089583E0809389008FEF809388000895C5
:1009E000883018F098E090937B0087708062809345
:1009F0007C00EAE7F0E0808180648083808184FF6E
:100A0000FDCF80917900EAE7F0E0908190619083DA
:100A100010927B0008958093280160932A01089525
:100A200092B1907F8F70982B92B9089586E00E94C2
:100A30001005089585E00E94100508958AE00E943F
:100A40001005089589E00E941005089580E00E9435
:100A500010050895BC0180E090E00E94631128E435
:100A600031EE42E850E40E94CF100E943711DC01C1
:100A7000CB01A0E0B0E010923C0210923D02109237
:100A80003E0210923F0210924002109241021092D8
:100A900042021092430240913C0250913D0260910B
:100AA0003E0270913F02481759076A077B0768F4B6
:100AB0004091400250914102609142027091430284
:100AC000481759076A077B0730F30E9426050895E7
:100AD000CF93DF93EC010E941A05CE010E942A05F4
:100AE000DF91CF910895CF93DF93EC010E941E0513
:100AF000CE010E942A05DF91CF910895BC0180E0CC
:100B000090E00E94631125EE30ED4AEA50E40E9425
:100B1000CF100E943711462F572F682F792F109230
:100B20003C0210923D0210923E0210923F0210923F
:100B300040021092410210924202109243028091B0
:100B40003C0290913D02A0913E02B0913F024817B5
:100B500059076A077B0768F0809140029091410233
:100B6000A0914202B0914302481759076A077B07D8
:100B700030F70895CF93DF93EC010E941605CE0164
:100B80000E947E05DF91CF910895CF93DF93EC0112
:100B90000E942205CE010E947E05DF91CF9108952B
:100BA0005E985F9808955E9A5F9A08955E985F9A3E
:100BB00008955E9A5F9808955C9A5D9A08950E94E0
:100BC000D00510923602109237021092380210921D
:100BD00039028FEF9FE7A4E081509040A040E1F7F9
:100BE00000C000008091360290913702A091380237
:100BF000B09139028093880290938902A0938A026F
:100C0000B0938B0208950E94D30510923602109281
:100C1000370210923802109239028FEF9FE7A4E05A
:100C200081509040A040E1F700C000008091360262
:100C300090913702A0913802B091390280938402DA
:100C400090938502A0938602B093870208950E9434
:100C5000D605109236021092370210923802109286
:100C600039028FEF9FE7A4E081509040A040E1F768
:100C700000C000008091360290913702A0913802A6
:100C8000B09139028093610290936202A093630253
:100C9000B0936402089583E00E94F00480934D02B3
:100CA00082E00E94F00480934C0281E00E94F004F4
:100CB00080934B0284E00E94F00480934A0286E015
:100CC0000E94F0048093480288E00E94F004809320
:100CD000460289E00E94F004809345028DE00E9464
:100CE000F00480934402089580ED6BE342E050E00D
:100CF0002DE832E00E946F0180ED65E442E050E0B3
:100D000026E932E00E946F0180ED67E442E050E0A6
:100D100021E932E00E946F0160918D02772767FD23
:100D20007095762F662780918E02992787FD909582
:100D3000680F791F7093350260933402882777FD1E
:100D40008095982F0E946511DC01CB0180932C02C5
:100D500090932D02A0932E02B0932F0260919602E1
:100D6000772767FD7095762F6627809197029927E0
:100D700087FD9095680F791F70933302609332025C
:100D8000882777FD8095982F0E946511DC01CB01A3
:100D90008093280290932902A0932A02B0932B02F9
:100DA00060919102772767FD7095762F6627809175
:100DB0009202992787FD9095680F791F70933102F1
:100DC00060933002882777FD8095982F0E946511E7
:100DD000DC01CB018093240290932502A09326028C
:100DE000B093270208950E94DF050E9403060E9427
:100DF00027068091880290918902A0918A02B09181
:100E00008B02833C21E0920720E0A20720E0B2079A
:100E100008F4A2C08091840290918502A09186027C
:100E2000B0918702833C21E0920720E0A20720E0F6
:100E3000B20708F493C08091610290916202A09180
:100E40006302B0916402833C21E0920720E0A20794
:100E500020E0B20708F484C04091880250918902D2
:100E600060918A0270918B02809184029091850238
:100E7000A0918602B091870284179507A607B7074D
:100E8000B0F4409188025091890260918A02709179
:100E90008B028091610290916202A0916302B091F5
:100EA000640284179507A607B70708F45BC0409152
:100EB0008402509185026091860270918702809130
:100EC000880290918902A0918A02B0918B028417C6
:100ED0009507A607B707A8F44091840250918502B0
:100EE0006091860270918702809161029091620206
:100EF000A0916302B091640284179507A607B70713
:100F000098F1409161025091620260916302709188
:100F100064028091840290918502A0918602B09132
:100F2000870284179507A607B707A8F440916102C6
:100F30005091620260916302709164028091880214
:100F400090918902A0918A02B0918B028417950733
:100F5000A607B70758F0089580E3089580E3089541
:100F600080E3089582E5089587E4089582E4089572
:100F700080915102813009F584E10E94D0048FEF05
:100F80009FEFACE281509040A040E1F700C000002C
:100F90000E94F30680931E0210921F0280E50E94B9
:100FA000D0048FEF9FE7A6E181509040A040E1F789
:100FB00000C000000E94E904089580915002813031
:100FC00001F58EEB0E94D0048FEF9FEFA5E38150D7
:100FD0009040A040E1F700C000000E94F30680931B
:100FE0001C0210921D0280E50E94D0048FEF9FE743
:100FF000AFE181509040A040E1F700C000000E94A6
:10100000E90408958823D9F081E062E00E94CC02CF
:101010008FEF9FE3A2E081509040A040E1F700C035
:10102000000080E092E00E94BD028FEF9FE3A2E00B
:1010300081509040A040E1F700C00000FFCF08952C
:1010400088EC68EC0E940B0585E590E00E94730532
:101050000E9426058FEF9FE7ADE081509040A040B1
:10106000E1F700C000008AEA6AEA0E940B050895D1
:1010700088EC68EC0E940B0585E590E00E9468050D
:101080000E9426058FEF9FE7ADE081509040A04081
:10109000E1F700C000008AEA6AEA0E940B050895A1
:1010A0000E944B0649C080914D02873188F480919F
:1010B0004C02883168F080914B02873148F485E01A
:1010C00090E00E94BA058AEA6AEA0E940B0532C0E3
:1010D00080914D02873188F480914C02873168F409
:1010E00080914B02883148F086E090E00E947305C1
:1010F00086E966E90E940B051DC080914D0288318A
:1011000088F080914C02873168F480914B028731DE
:1011100048F486E090E00E94680586E966E90E944E
:101120000B0508C08AE090E00E94BA058AEA6AEAE4
:101130000E940B050E944B0680914D02883140F0C1
:1011400080914C02883120F080914B028831E8F484
:1011500080914D02873140F480914C02883120F01B
:1011600080914B02883188F480914D02883140F0A3
:1011700080914C02883120F080914B02873128F019
:1011800080914802803308F08ECF809148028033EE
:1011900088F40E9426058FEF9FE7ADE081509040D4
:1011A000A040E1F700C0000081E390E090931B02B3
:1011B00080931A020E94BE04089520915F0230912C
:1011C0006002C90166E070E00E941912482F592F91
:1011D000809353029093540280915D028130E9F430
:1011E00021153105C9F141155105C1F18091220246
:1011F000909123028130910599F18330910591F10D
:101200008530910589F18230910581F18430910515
:1012100079F186309105F9F42DC08230E1F4211581
:10122000310551F14115510549F18091220290910A
:1012300023028130910521F18330910519F1853028
:10124000910511F18230910509F18430910501F188
:1012500086309105F9F008958EE4089585E40895A7
:101260008EE408958EE408958EE4089583E508954C
:1012700083E5089583E5089587E508958EE408954C
:1012800087E5089587E5089587E5089585E408953D
:1012900085E4089585E4089580915F02909160024D
:1012A00066E070E00E941912AC01909354028093A2
:1012B000530280912202909123028330910519F00C
:1012C00085309105C9F4019767E672E09C01220F11
:1012D000331F220F331F820F931FFB01E80FF91FEB
:1012E000E40FF51F319721E02083840F951F680FCD
:1012F000791FFB01208308958230910519F0843015
:101300009105E1F49C0121503040E5E0F0E0E41B60
:10131000F50B67E672E0C901880F991F880F991FC6
:10132000820F931FE80FF91FE60FF71F21E02083BC
:10133000841B950B680F791FFB012483089580910E
:101340005F029091600266E070E00E941912909333
:1013500054028093530220912202309123022330C1
:10136000310519F025303105A1F422503040F90142
:10137000EE0FFF1FEE0FFF1F2E0F3F1F820F931F59
:10138000FC01EA59FD4F81E09081913019F180E034
:1013900008952230310531F02430310519F026301E
:1013A0003105C1F422503040E5E0F0E0AF01481BC8
:1013B000590BF901EE0FFF1FEE0FFF1FE20FF31F96
:1013C000E40FF51FE959FD4F81E09081913011F054
:1013D00080E0089508950E94260580912102E6ECA0
:1013E000F0E080838FEF9FE7A4E081509040A04021
:1013F000E1F700C0000080911A0290911B028083E7
:101400008FEF9FE7A4E081509040A040E1F700C03B
:10141000000080911E0280838FEF9FE7A4E081503F
:101420009040A040E1F700C0000080911C02808342
:101430008FEF9FE7A4E081509040A040E1F700C00B
:1014400000008091200280838FEF9FE7A4E081500D
:101450009040A040E1F700C0000080E280838083DC
:1014600080915C02813051F48FEF9FEFACE28150AC
:101470009040A040E1F700C0000008958FEF9FE783
:10148000A6E181509040A040E1F700C0000008951F
:101490000E94BE040E94DD088093210280915F02B9
:1014A0009091600201969093600280935F02823077
:1014B000910510F00E94EB09109251021092500217
:1014C00080E390E090931F0280931E0290931D0290
:1014D00080931C0290931B0280931A0210924F0279
:1014E00010924E0210925A0210925B0210925C020D
:1014F00080E38093200280915F02909160028432A9
:10150000910509F064C020915D02213009F053C0BB
:1015100085E390E00E94BA050E9426058FEF9FE7C1
:10152000ADE081509040A040E1F700C000000E9473
:1015300020080E94BE0482E080935D0281E090E07A
:101540009093600280935F02909323028093220223
:1015500010926702109268021092690210926A0259
:1015600010926B0210926C0210926D0210926E0239
:1015700010926F0210927002109271021092720219
:1015800010927302109274021092750210927602F9
:1015900010927702109278021092790210927A02D9
:1015A00010927B0210927C0210927D0210927E02B9
:1015B00010927F020CC0223009F081C080E060E010
:1015C0000E940B050E9426050E94CA04FDCF80914F
:1015D0005F029091600266E070E00E941912262F6F
:1015E000372F6093550270935602482F592F8093DE
:1015F0005302909354022130310531F023303105EC
:1016000019F02530310559F542305105B0F485E324
:1016100090E00E94BA050E9426058FEF9FE7ADE09B
:1016200081509040A040E1F700C000000E942008D7
:101630008FE080934F0280934E02809153029091ED
:1016400054028130910509F04BC0809122029091A3
:101650002302019690932302809322020895223060
:10166000310519F024303105D9F542305105B0F477
:1016700085E390E00E94BA050E9426058FEF9FE760
:10168000ADE081509040A040E1F700C000000E9412
:1016900038088FE080934F0280934E02809153026E
:1016A0009091540281309105D9F480912202909159
:1016B000230201969093230280932202089566E00C
:1016C00070E00E941912262F372F609355027093F5
:1016D0005602482F592F80935302909354028ECF75
:1016E00008950E944B0680914D02873108F047C053
:1016F00080914C02873108F042C080914B028731C3
:10170000F0F580914A028F3160F0809146028F316E
:1017100040F08CE86CE80E940B0586E090E00E94A7
:10172000BA0580914A028E3160F486E090E00E9412
:1017300073058CE86CE80E940B058AE090E00E943B
:10174000BA05809146028E3160F486E090E00E94F6
:1017500068058CE86CE80E940B058AE090E00E9426
:10176000BA050E944B0680914D02873140F480916A
:101770004C02873120F480914B02873110F286E4CD
:101780000E94D0048FEF9FE7A4E081509040A040DA
:10179000E1F700C000000E94E9040E94480A089591
:1017A00088EC68EC0E940B0588E290E00E94C50579
:1017B0000E9426058FEF9FE7ADE081509040A0404A
:1017C000E1F700C000000E9438080E9426058FEF54
:1017D0009FE7ADE081509040A040E1F700C00000DD
:1017E0000E9450080E9426058FEF9FE7ADE08150D0
:1017F0009040A040E1F700C0000085E390E00E9427
:10180000BA050E9426058FEF9FE7ADE0815090401A
:10181000A040E1F700C000000E9420080E942605B9
:101820008FEF9FE7ADE081509040A040E1F700C00E
:1018300000000E94500884E190E00E94BA050E94D6
:10184000EB090E9450080E9426058FEF9FE7ADE04C
:1018500081509040A040E1F700C0000085E390E097
:101860000E94BA050E9426058FEF9FE7ADE08150E8
:101870009040A040E1F700C000000E9420080E94B4
:1018800026058FEF9FE7ADE081509040A040E1F743
:1018900000C000000E9450080E9426058FEF9FE7BD
:1018A000ADE081509040A040E1F700C0000085E32A
:1018B00090E00E94BA050E9426058FEF9FE7ADE0F9
:1018C00081509040A040E1F700C000000E94200835
:1018D0000E9426058FEF9FE7ADE081509040A04029
:1018E000E1F700C000000E9450080E9426058FEF1B
:1018F0009FE7ADE081509040A040E1F700C00000BC
:101900000E9426058FEF9FE7ADE081509040A040F8
:10191000E1F700C0000084EB90E00E9468050E949F
:1019200026058FEF9FE7ADE081509040A040E1F7A2
:1019300000C0000082E390E00E94C5050E942605D9
:101940008FEF9FE7ADE081509040A040E1F700C0ED
:10195000000080915F029091600201969093600276
:1019600080935F02089588EC68EC0E940B0588E282
:1019700090E00E94C5050E9426058FEF9FE7ADE02D
:1019800081509040A040E1F700C000000E94200874
:101990000E9426058FEF9FE7ADE081509040A04068
:1019A000E1F700C000000E9450080E9426058FEF5A
:1019B0009FE7ADE081509040A040E1F700C00000FB
:1019C00085E390E00E94BA050E9426058FEF9FE70D
:1019D000ADE081509040A040E1F700C000000E94BF
:1019E00038080E9426058FEF9FE7ADE081509040B8
:1019F000A040E1F700C000000E9450080E942605A8
:101A00008FEF9FE7ADE081509040A040E1F700C02C
:101A1000000084E190E00E94BA050E94EB090E9458
:101A200050080E9426058FEF9FE7ADE0815090405F
:101A3000A040E1F700C0000085E390E00E94BA05F5
:101A40000E9426058FEF9FE7ADE081509040A040B7
:101A5000E1F700C000000E9438080E9426058FEFC1
:101A60009FE7ADE081509040A040E1F700C000004A
:101A70000E9450080E9426058FEF9FE7ADE081503D
:101A80009040A040E1F700C0000085E390E00E9494
:101A9000BA050E9426058FEF9FE7ADE08150904088
:101AA000A040E1F700C000000E9438080E9426050F
:101AB0008FEF9FE7ADE081509040A040E1F700C07C
:101AC00000000E9450080E9426058FEF9FE7ADE0BE
:101AD00081509040A040E1F700C000000E94260520
:101AE0008FEF9FE7ADE081509040A040E1F700C04C
:101AF000000084EB90E00E9468050E9426058FEFAD
:101B00009FE7ADE081509040A040E1F700C00000A9
:101B100082E390E00E94C5050E9426058FEF9FE7B3
:101B2000ADE081509040A040E1F700C000008091FE
:101B30005F029091600201969093600280935F0231
:101B400008950E94BE040E944C0981E390E09093A6
:101B50001B0280931A020E94DD088093210280916B
:101B60005F029091600266E070E00E94191290930B
:101B70005402809353020E949F0980935202209145
:101B80002202309123022230310519F02430310530
:101B900041F4813019F40E94D00B08950E94B30CD7
:101BA00008952330310519F02530310539F481309D
:101BB00019F40E94B30C08950E94D00B08950E945E
:101BC00032040E9495000E9415020E947D020E942C
:101BD000DC0586E40E94D0048FEF9FEFA8E08150DF
:101BE0009040A040E1F700C000000E94E90480EDB1
:101BF00065E743E952E00E9407010E9402088091D4
:101C000093028836D9F081E062E00E94CC028FEF27
:101C10009FE3A2E081509040A040E1F700C00000A7
:101C20008EE092E00E94BD028FEF9FE3A2E0815020
:101C30009040A040E1F700C00000FFCF80ED6BE6D0
:101C400040E00E94C4000E94020880ED6CE140E088
:101C50000E94C4000E94020880ED6BE140E00E94F7
:101C6000C4000E94020881E080935D02D1E0C2E0DE
:101C700014E301E30E944B0680914D02883140F04D
:101C800080914C02883120F080914B028831C0F461
:101C900080914D02873140F480914C02883120F0D0
:101CA00080914B02883160F480914D028831D8F0E8
:101CB00080914C028831B8F080914B02873198F4C2
:101CC00080915E02882379F40E9426058FEF9FEFB2
:101CD000A1E181509040A040E1F700C000000E94C7
:101CE000480AD0935E0280914802803788F4809140
:101CF0004F028F3068F40E9426058FEF9FEFA1E11D
:101D000081509040A040E1F700C000000E94A10D6A
:101D100080914F02853120F480914E02853110F080
:101D200010925E0280914502853638F1809145021D
:101D3000803A18F5809151028823F9F480914F027E
:101D40008A31D8F080914F028832B8F4D093510292
:101D500084E00E94F00480934A0280914A0286390E
:101D600060F40E9426050E94B807C09351020E94A9
:101D700016058CE86CE80E940B058DE00E94F004CB
:101D80008093440280914402813338F1809144026F
:101D9000843618F5809150028823F9F480914E0220
:101DA0008A31D8F080914E028832B8F4D093500234
:101DB00088E00E94F00480934602809146028839B0
:101DC00060F40E9426050E94B807C09350020E944A
:101DD00016058CE86CE80E940B0580915C02882354
:101DE00041F580914A02843620F58091460284367E
:101DF00000F580914F028330E0F080914F028C33E8
:101E0000C0F4D0935702D0935C02109320020E943A
:101E1000BE048FE50E94D0048FEF9FE7A4E08150BD
:101E20009040A040E1F700C000000E94E9040E9439
:101E3000710B0E944B0680914D02873188F480918E
:101E40004C02883168F080914B02873148F485E07C
:101E500090E00E94BA058AEA6CEA0E940B0551C024
:101E600080914D028731F8F480914C028731D8F48B
:101E700080914B028831B8F086E090E00E947305B3
:101E800086E966E90E940B058C2F0E94F00480937E
:101E90004C0280914C02883170F680915A028F5F1B
:101EA00080935A022EC080914D02883100F18091BA
:101EB0004C028731E0F480914B028731C0F486E018
:101EC00090E00E94680586E966E90E940B058C2F68
:101ED0000E94F00480934C0280914C02883108F0FB
:101EE000AACF80915A028F5F80935A020AC08AE07B
:101EF00090E00E94BA058AEA6CEA0E940B050E94F3
:101F00004B0680915A028A30F8F080915B02813052
:101F1000D9F480915C028130B9F40E94BE04009330
:101F200020028D2F6D2F41E050E023E030E00E9431
:101F3000EC0286E696EEA0E081509040A040E1F7EA
:101F4000C0935B0210925A020E94740680915C0258
:101F5000882309F08FCE6091240270912502809130
:101F600026029091270220E030E44CE955E40E94DB
:101F700015121816ECF460912802709129028091D4
:101F80002A0290912B0220E030E048EC52E40E94BB
:101F9000CB1088236CF480914E02853148F08091FB
:101FA0004E028E3128F4D0935B02D0935C0262CE55
:101FB000C0902C02D0902D02E0902E02F0902F02C3
:101FC000C701B60120E030EE4BEA55E40E9415123D
:101FD000181694F580914E02803170F180914E0276
:101FE0008E3150F5609128027091290280912A0269
:101FF00090912B0220E030E04FE254E40E94151251
:1020000018160CF037CED0935902D0935C020E9480
:10201000BE0492E3909320028D2F6D2F42E050E09A
:1020200023E030E00E94EC0286E696EEA0E08150CC
:102030009040A040E1F71ECEC701B60120E030E499
:102040004EE455E40E94151218160CF013CEC70189
:10205000B60120E030E646E855E40E94CB10882324
:102060000CF008CE80914E028A3108F403CE8091A4
:102070004E02883208F0FECD60912802709129024C
:1020800080912A0290912B0220E030E04FE254E44C
:102090000E94151218160CF0EDCDD0935802D09373
:1020A0005C020E94BE0493E3909320028D2F6D2F5B
:1020B00043E050E023E030E00E94EC0286E696EE3A
:1020C000A0E081509040A040E1F7D4CD5058BB270C
:1020D000AA270ED070C161D130F066D120F031F462
:1020E0009F3F11F41EF456C10EF4E095E7FB4CC17E
:1020F000E92F72D180F3BA17620773078407950737
:1021000018F071F49EF58AC10EF4E0950B2EBA2FEB
:10211000A02D0B01B90190010C01CA01A0011124ED
:10212000FF27591B99F0593F50F4503E68F11A1699
:10213000F040A22F232F342F4427585FF3CF46952A
:1021400037952795A795F0405395C9F77EF41F164C
:10215000BA0B620B730B840BBAF09150A1F0FF0F16
:10216000BB1F661F771F881FC2F70EC0BA0F621F02
:10217000731F841F48F4879577956795B795F795F2
:102180009E3F08F0B3CF9395880F08F09927EE0F84
:10219000979587950895D4D008F481E008950CD0E0
:1021A0000AC102D140F0F9D030F021F45F3F19F0BC
:1021B000EBC0511134C1EEC00FD198F39923C9F38C
:1021C0005523B1F3951B550BBB27AA27621773073D
:1021D000840738F09F5F5F4F220F331F441FAA1FF1
:1021E000A9F333D00E2E3AF0E0E830D091505040B1
:1021F000E695001CCAF729D0FE2F27D0660F771F5F
:10220000881FBB1F261737074807AB07B0E809F040
:10221000BB0B802DBF01FF2793585F4F2AF09E3FD5
:10222000510568F0B1C0FBC05F3FECF3983EDCF3B2
:10223000869577956795B795F7959F5FC9F7880F4E
:10224000911D9695879597F90895E1E0660F771FA0
:10225000881FBB1F621773078407BA0720F0621B31
:10226000730B840BBA0BEE1F88F7E0950895BCD072
:1022700088F09F5790F0B92F9927B751A0F0D1F06F
:10228000660F771F881F991F1AF0BA95C9F712C0F9
:10229000B13081F0C3D0B1E00895C0C0672F782F6E
:1022A0008827B85F39F0B93FCCF386957795679565
:1022B000B395D9F73EF490958095709561957F4FD1
:1022C0008F4F9F4F0895E89409C097FB3EF4909577
:1022D0008095709561957F4F8F4F9F4F9923A9F0FF
:1022E000F92F96E9BB279395F6958795779567958E
:1022F000B795F111F8CFFAF4BB0F11F460FF1BC0D2
:102300006F5F7F4F8F4F9F4F16C0882311F096E964
:1023100011C0772321F09EE8872F762F05C0662312
:1023200071F096E8862F70E060E02AF09A95660FCB
:10233000771F881FDAF7880F9695879597F9089584
:10234000990F0008550FAA0BE0E8FEEF16161706C6
:10235000E807F907C0F012161306E407F50798F02E
:10236000621B730B840B950B39F40A2661F0232B47
:10237000242B252B21F408950A2609F4A140A695C3
:102380008FEF811D811D089597F99F6780E870E0A8
:1023900060E008959FEF80EC089500240A941616DB
:1023A000170618060906089500240A941216130643
:1023B000140605060895092E0394000C11F48823D1
:1023C00052F0BB0F40F4BF2B11F460FF04C06F5FED
:1023D0007F4F8F4F9F4F089557FD9058440F551FC3
:1023E00059F05F3F71F04795880F97FB991F61F097
:1023F0009F3F79F087950895121613061406551F0E
:10240000F2CF4695F1DF08C0161617061806991F79
:10241000F1CF86957105610508940895E894BB276E
:1024200066277727CB0197F908958ADF08F48FEFA5
:102430000895AA1BBB1B51E107C0AA1FBB1FA6170B
:10244000B70710F0A61BB70B881F991F5A95A9F75D
:0E24500080959095BC01CD010895F894FFCFC2
:10245E00537461747573204E6F74204F4B00577216
:10246E006E6720446576204944003000300030000D
:04247E0030300100F9
:00000001FF
