:100000000C9472000C9493000C9493000C94930045
:100010000C9430100C9400100C94D00F0C9493009E
:100020000C9493000C9493000C9493000C94930004
:100030000C9493000C9493000C9493000C949300F4
:100040000C9493000C9493000C9493000C949300E4
:100050000C9493000C9493000C9493000C949300D4
:100060000C9493000C9493000C9493000C949300C4
:100070000C9493000C9493000C9493000C949300B4
:100080000C9493000C9493000C9493000C949300A4
:100090000C9493000C9493000C9493000C94930094
:1000A0000C9493000C9493000C9493000C94930084
:1000B0000C9493000C9493000C9493000C94930074
:1000C0000C9493000C9493000C9493000C94930064
:1000D0000C9493000C9493000C9493000C94930054
:1000E0000C94930011241FBECFEFD1E2DEBFCDBF31
:1000F00000E00CBF12E0A0E0B2E0E4EAFDE500E0C1
:100100000BBF02C007900D92A432B107D9F712E0DD
:10011000A4E2B2E001C01D92A939B107E1F70E9443
:10012000A5270C94D02E0C940000CF93DF93CDB76D
:10013000DEB789EB90E0FC0110828CEB90E0FC01D3
:1001400010828CEB90E024ECFC01208388EB90E0A3
:100150002AE0FC012083DF91CF910895CF93DF93B4
:10016000CDB7DEB78CEB90E02CEB30E0F9012081CD
:100170002066FC012083DF91CF910895CF93DF9318
:10018000CDB7DEB78CEB90E02CEB30E0F9012081AD
:100190002068FC012083DF91CF910895CF93DF93F6
:1001A000CDB7DEB700008CEB90E0FC0180818823A6
:1001B000D4F7DF91CF910895CF93DF93CDB7DEB71A
:1001C0008CEB90E02CEB30E0F90120812061FC0108
:1001D0002083DF91CF910895CF93DF930F92CDB716
:1001E000DEB789EB90E0FC018081887F898389817B
:1001F0000F90DF91CF910895CF93DF930F92CDB7FA
:10020000DEB789838BEB90E02981FC0120830F907E
:10021000DF91CF910895CF93DF930F920F92CDB7D7
:10022000DEB79A8389838BEB90E0FC018081282FD5
:1002300089819A81FC0120830F900F90DF91CF91EB
:100240000895CF93DF9300D0CDB7DEB789836A835B
:100250004B830E94AE000E94CE000E94EC008830CA
:1002600011F088EF33C089810E94FC008CEB90E094
:100270002CEB30E0F90120812F7DFC0120830E94CE
:10028000BE000E94CE000E94EC00883111F089EF80
:100290001DC08A810E94FC000E94BE000E94CE0008
:1002A0000E94EC00883211F08BEF10C08B810E940D
:1002B000FC000E94BE000E94CE000E94EC0088322A
:1002C00011F08BEF03C00E94DC0080E00F900F90D4
:1002D0000F90DF91CF910895CF93DF9300D00F92CD
:1002E000CDB7DEB789836A835C834B830E94AE00FF
:1002F0000E94CE000E94EC00883011F088EF5EC0B2
:1003000089810E94FC008CEB90E02CEB30E0F9013D
:1003100020812F7DFC0120830E94BE000E94CE0020
:100320000E94EC00883111F089EF48C08A810E9458
:10033000FC000E94BE000E94CE000E94EC008832A9
:1003400011F08BEF3BC00E94AE000E94CE000E94D5
:10035000EC00803111F08DEF31C0898181600E9405
:10036000FC008CEB90E02CEB30E0F90120812F7D3C
:10037000FC0120830E94BE000E94CE000E94EC007F
:10038000803411F08AEF1AC08CEB90E02CEB30E057
:10039000F90120812F7BFC0120830E94BE000E9476
:1003A000CE000E94EC00883511F08CEF07C08B81E5
:1003B0009C810E940B010E94DC0080E00F900F9056
:1003C0000F900F90DF91CF910895CF93DF93CDB72A
:1003D000DEB728970FB6F894DEBF0FBECDBF8B8374
:1003E0006C835E834D8338872F830E94AE000E940A
:1003F000CE000E94EC00883011F088EF99C08B810C
:100400000E94FC008CEB90E02CEB30E0F9012081A5
:100410002F7DFC0120830E94BE000E94CE000E941E
:10042000EC00883111F089EF83C08C8180680E94D4
:10043000FC000E94BE000E94CE000E94EC008832A8
:1004400011F08BEF75C00E94AE000E94CE000E949A
:10045000EC00803111F08DEF6BC08B8181600E94C8
:10046000FC008CEB90E02CEB30E0F90120812F7D3B
:10047000FC0120830E94BE000E94CE000E94EC007E
:10048000803411F08AEF54C01A82198246C08D81DF
:100490009E819C012150304089819A81281739071B
:1004A000E1F48CEB90E02CEB30E0F90120812F7B24
:1004B000FC0120830E94BE000E94CE000E94EC003E
:1004C000883511F08FEF34C02F81388589819A816A
:1004D000820F931F0E940B011BC08CEB90E02CEB52
:1004E00030E0F90120812064FC0120830E94BE00DD
:1004F0000E94CE000E94EC00803511F08EEF18C0F3
:100500002F81388589819A81820F931F0E940B0168
:1005100089819A8101969A83898329813A818D8183
:100520009E812817390708F4B2CF0E94DC0080E0D2
:1005300028960FB6F894DEBF0FBECDBFDF91CF91E6
:1005400008950F931F93CF93DF93CDB7DEB7C057B6
:10055000D0400FB6F894DEBF0FBECDBF80E090E074
:10056000A0E8BFE389839A83AB83BC8369817A81E6
:100570008B819C8126E636E646E655E40E94462EAF
:10058000DC01CB018D839E83AF83B88711E06D8141
:100590007E818F81988520E030E040E85FE30E9413
:1005A000F82C88230CF010E0112329F081E090E072
:1005B0009A87898746C011E06D817E818F819885F9
:1005C00020E03FEF4FE757E40E94422E18160CF050
:1005D00010E0112361F169817A818B819C8120E097
:1005E00030E040E251E40E94462EDC01CB01BC0128
:1005F000CD010E94642DDC01CB019A87898712C04E
:1006000080E791E09C878B878B859C858C01C80156
:100610000197F1F78C011C870B8789859A850197D3
:100620009A87898789859A85009751F717C06D81C8
:100630007E818F8198850E94642DDC01CB019A8791
:10064000898789859A859E878D878D859E858C0172
:10065000F8013197F1F78F011E870D8788E290E04E
:1006600028E230E0F90120812E7FFC01208388E21E
:1006700090E028E230E0F90120812D7FFC01208309
:1006800088E290E020E3FC01208388E290E028E209
:1006900030E0F90120812460FC01208380E090E0BB
:1006A000A0EAB0E48F87988BA98BBA8B6F85788985
:1006B00089899A8926E636E646E655E40E94462E62
:1006C000DC01CB018B8B9C8BAD8BBE8B11E06B89DE
:1006D0007C898D899E8920E030E040E85FE30E94BC
:1006E000F82C88230CF010E0112329F081E090E031
:1006F000988F8F8B46C011E06B897C898D899E898C
:1007000020E03FEF4FE757E40E94422E18160CF00E
:1007100010E0112361F16F85788989899A8920E039
:1007200030E040E251E40E94462EDC01CB01BC01E6
:10073000CD010E94642DDC01CB01988F8F8B12C0FC
:1007400080E791E09A8F898F898D9A8D8C01C801FD
:100750000197F1F78C011A8F098F8F89988D019776
:10076000988F8F8B8F89988D009751F717C06B8961
:100770007C898D899E890E94642DDC01CB01988F34
:100780008F8B8F89988D9C8F8B8F8B8D9C8D8C01FF
:10079000F8013197F1F78F011C8F0B8F88E290E001
:1007A00028E230E0F90120812B7FFC01208380E0EA
:1007B00090E0A0E8BFE38D8F9E8FAF8FB8A36D8DC3
:1007C0007E8D8F8D98A126E636E646E655E40E949A
:1007D000462EDC01CB0189A39AA3ABA3BCA311E0F5
:1007E00069A17AA18BA19CA120E030E040E85FE301
:1007F0000E94F82C88230CF010E0112329F081E0EE
:1008000090E09EA38DA346C011E069A17AA18BA1BF
:100810009CA120E03FEF4FE757E40E94422E1816BC
:100820000CF010E0112361F16D8D7E8D8F8D98A1FC
:1008300020E030E040E251E40E94462EDC01CB0192
:10084000BC01CD010E94642DDC01CB019EA38DA3D0
:1008500012C080E791E098A78FA38FA198A58C0183
:10086000C8010197F1F78C0118A70FA38DA19EA1D4
:1008700001979EA38DA38DA19EA1009751F717C04C
:1008800069A17AA18BA19CA10E94642DDC01CB01FE
:100890009EA38DA38DA19EA19AA789A789A59AA59C
:1008A0008C01F8013197F1F78F011AA709A788E2A7
:1008B00090E028E230E0F90120812E7FFC012083C6
:1008C00088E290E028E230E0F90120812D7FFC01F0
:1008D000208388E290E020E3FC01208388E290E01E
:1008E00028E230E0F90120812460FC01208380E0CF
:1008F00090E0A0EAB0E48BA79CA7ADA7BEA76BA52C
:100900007CA58DA59EA526E636E646E655E40E9422
:10091000462EDC01CB018FA798ABA9ABBAAB11E097
:100920006FA578A989A99AA920E030E040E85FE3A3
:100930000E94F82C88230CF010E0112329F081E0AC
:1009400090E09CAB8BAB46C011E06FA578A989A95C
:100950009AA920E03FEF4FE757E40E94422E181675
:100960000CF010E0112361F16BA57CA58DA59EA56F
:1009700020E030E040E251E40E94462EDC01CB0151
:10098000BC01CD010E94642DDC01CB019CAB8BAB83
:1009900012C080E791E09EAB8DAB8DA99EA98C0122
:1009A000C8010197F1F78C011EAB0DAB8BA99CA977
:1009B00001979CAB8BAB8BA99CA9009751F717C0F3
:1009C0006FA578A989A99AA90E94642DDC01CB01A1
:1009D0009CAB8BAB8BA99CA998AF8FAB8FA998AD23
:1009E0008C01F8013197F1F78F0118AF0FAB88E256
:1009F00090E028E230E0F90120812B7FFC01208388
:100A000080E090E0A0E8BFE389AF9AAFABAFBCAFA6
:100A100069AD7AAD8BAD9CAD26E636E646E655E48B
:100A20000E94462EDC01CB019E01235C3F4FF90161
:100A300080839183A283B38311E0CE01CD96FC0124
:100A4000608171818281938120E030E040E85FE342
:100A50000E94F82C88230CF010E0112349F0CE01FD
:100A60008F5B9F4F21E030E0FC01318320836EC01B
:100A700011E0CE01CD96FC0160817181828193816C
:100A800020E03FEF4FE757E40E94422E18160CF08B
:100A900010E0112309F449C069AD7AAD8BAD9CAD6E
:100AA00020E030E040E251E40E94462EDC01CB0120
:100AB0008E010F5B1F4FBC01CD010E94642DDC0134
:100AC000CB01F8019183808327C0CE018D5B9F4FBE
:100AD00020E731E0FC0131832083CE018D5B9F4F05
:100AE000FC01808191818C01C8010197F1F78C0193
:100AF000CE018D5B9F4FFC0111830083CE018F5B84
:100B00009F4F9E012F5B3F4FF90120813181215082
:100B10003040FC0131832083CE018F5B9F4FFC016D
:100B200080819181009789F62EC08E010F5B1F4F47
:100B3000CE01CD96FC0160817181828193810E94FA
:100B4000642DDC01CB01F80191838083CE018B5BA6
:100B50009F4F9E012F5B3F4FF90120813181FC01A6
:100B600031832083CE018B5B9F4FFC01808191817B
:100B70008C01C8010197F1F78C01CE018B5B9F4F6F
:100B8000FC011183008388E290E028E230E0F90163
:100B900020812E7FFC01208388E290E028E230E073
:100BA000F90120812D7FFC01208388E290E020E381
:100BB000FC01208388E290E028E230E0F901208106
:100BC0002460FC0120839E01295B3F4F80E090E080
:100BD000A0EAB0E4F90180839183A283B3838E01FC
:100BE000055B1F4FCE01895B9F4FFC0160817181C6
:100BF0008281938126E636E646E655E40E94462E3B
:100C0000DC01CB01F80180839183A283B383CE0101
:100C1000855B9F4F11E0FC0160817181828193812E
:100C200020E030E040E85FE30E94F82C88230CF0DD
:100C300010E0112349F0CE01815B9F4F21E030E0AD
:100C4000FC013183208374C0CE01855B9F4F11E08E
:100C5000FC01608171818281938120E03FEF4FE749
:100C600057E40E94422E18160CF010E0112309F4EC
:100C70004DC0CE01895B9F4FFC01608171818281F3
:100C8000938120E030E040E251E40E94462EDC01F6
:100C9000CB018E01015B1F4FBC01CD010E94642D71
:100CA000DC01CB01F8019183808327C0CE018F5AEC
:100CB0009F4F20E731E0FC0131832083CE018F5A22
:100CC0009F4FFC01808191818C01C8010197F1F750
:100CD0008C01CE018F5A9F4FFC0111830083CE01FE
:100CE000815B9F4F9E01215B3F4FF9012081318144
:100CF00021503040FC0131832083CE01815B9F4F26
:100D0000FC0180819181009789F62FC08E01015BE3
:100D10001F4FCE01855B9F4FFC01608171818281F5
:100D200093810E94642DDC01CB01F80191838083C3
:100D3000CE018D5A9F4F9E01215B3F4FF9012081CB
:100D40003181FC0131832083CE018D5A9F4FFC01FC
:100D5000808191818C01C8010197F1F78C01CE014E
:100D60008D5A9F4FFC011183008388E290E028E2B6
:100D700030E0F90120812B7FFC0120839E012B5A5A
:100D80003F4F80E090E0A0E8BFE3F90180839183CA
:100D9000A283B3838E01075A1F4FCE018B5A9F4FF8
:100DA000FC01608171818281938126E636E646E608
:100DB00055E40E94462EDC01CB01F801808391832B
:100DC000A283B383CE01875A9F4F11E0FC0160815B
:100DD00071818281938120E030E040E85FE30E94EE
:100DE000F82C88230CF010E0112349F0CE01835A2F
:100DF0009F4F21E030E0FC013183208374C0CE019D
:100E0000875A9F4F11E0FC0160817181828193813B
:100E100020E03FEF4FE757E40E94422E18160CF0F7
:100E200010E0112309F44DC0CE018B5A9F4FFC01F5
:100E3000608171818281938120E030E040E251E461
:100E40000E94462EDC01CB018E01035A1F4FBC01CC
:100E5000CD010E94642DDC01CB01F80191838083D8
:100E600027C0CE01815A9F4F20E731E0FC0131833A
:100E70002083CE01815A9F4FFC01808191818C019A
:100E8000C8010197F1F78C01CE01815A9F4FFC01F7
:100E900011830083CE01835A9F4F9E01235A3F4FF7
:100EA000F9012081318121503040FC0131832083C0
:100EB000CE01835A9F4FFC0180819181009789F672
:100EC0002FC08E01035A1F4FCE01875A9F4FFC013E
:100ED00060817181828193810E94642DDC01CB014C
:100EE000F80191838083CE018F599F4F9E01235A31
:100EF0003F4FF90120813181FC0131832083CE01F4
:100F00008F599F4FFC01808191818C01C80101970D
:100F1000F1F78C01CE018F599F4FFC0111830083A3
:100F200088E290E028E230E0F90120812E7FFC0188
:100F3000208388E290E028E230E0F90120812D7FD3
:100F4000FC01208388E290E020E2FC01208388E21B
:100F500090E028E230E0F90120812460FC01208348
:100F60009E012D593F4F80E090E0A0EAB0E4F901E6
:100F700080839183A283B3838E0109591F4FCE01D1
:100F80008D599F4FFC01608171818281938126E69A
:100F900036E646E655E40E94462EDC01CB01F80118
:100FA00080839183A283B383CE0189599F4F11E03F
:100FB000FC01608171818281938120E030E040E812
:100FC0005FE30E94F82C88230CF010E0112349F015
:100FD000CE0185599F4F21E030E0FC013183208311
:100FE00074C0CE0189599F4F11E0FC01608171816D
:100FF0008281938120E03FEF4FE757E40E94422E29
:1010000018160CF010E0112309F44DC0CE018D59D3
:101010009F4FFC01608171818281938120E030E0EB
:1010200040E251E40E94462EDC01CB018E010559BD
:101030001F4FBC01CD010E94642DDC01CB01F801E2
:101040009183808327C0CE0183599F4F20E731E0F1
:10105000FC0131832083CE0183599F4FFC018081A5
:1010600091818C01C8010197F1F78C01CE01835960
:101070009F4FFC0111830083CE0185599F4F9E0134
:1010800025593F4FF9012081318121503040FC0129
:1010900031832083CE0185599F4FFC01808191814E
:1010A000009789F62FC08E0105591F4FCE0189592F
:1010B0009F4FFC0160817181828193810E94642D28
:1010C000DC01CB01F80191838083CE0181599F4FD0
:1010D0009E0125593F4FF90120813181FC01318367
:1010E0002083CE0181599F4FFC01808191818C0129
:1010F000C8010197F1F78C01CE0181599F4FFC0186
:101100001183008388E290E028E230E0F901208139
:101110002B7FFC012083C059DF4F0FB6F894DEBF50
:101120000FBECDBFDF91CF911F910F9108950F9307
:101130001F93CF93DF93CDB7DEB72E970FB6F894FA
:10114000DEBF0FBECDBF0E94A10280E090E0A0E80C
:10115000BFE389839A83AB83BC8369817A818B8166
:101160009C8126E636E646E655E40E94462EDC01E2
:10117000CB018D839E83AF83B88711E06D817E8123
:101180008F81988520E030E040E85FE30E94F82CF2
:1011900088230CF010E0112329F081E090E09A8779
:1011A000898746C011E06D817E818F81988520E01E
:1011B0003FEF4FE757E40E94422E18160CF010E064
:1011C000112361F169817A818B819C8120E030E07B
:1011D00040E251E40E94462EDC01CB01BC01CD016E
:1011E0000E94642DDC01CB019A87898712C080E7B9
:1011F00091E09C878B878B859C858C01C80101972A
:10120000F1F78C011C870B8789859A8501979A874E
:10121000898789859A85009751F717C06D817E81EE
:101220008F8198850E94642DDC01CB019A87898784
:1012300089859A859E878D878D859E858C01C801BD
:101240000197F1F78C011E870D8788E20E943F0904
:1012500081E00E943F0986E00E943F098EE00E94E3
:101260003F0980E80E943F092E960FB6F894DEBF32
:101270000FBECDBFDF91CF911F910F9108950F93B6
:101280001F93CF93DF93CDB7DEB76E970FB6F89469
:10129000DEBF0FBECDBF8E8F8E8D89838981807F0B
:1012A000898388E290E028E230E0F90120812F7004
:1012B000FC01208388E290E028E230E0F9013081EF
:1012C0002981232BFC01208388E290E028E230E092
:1012D000F90120812E7FFC01208388E290E028E242
:1012E00030E0F90120812D7FFC01208388E290E02D
:1012F00028E230E0F90120812460FC01208380E0B5
:1013000090E0A0EAB0E48A839B83AC83BD836A81CA
:101310007B818C819D8126E636E646E655E40E9477
:10132000462EDC01CB018E839F83A887B98711E00D
:101330006E817F818885998520E030E040E85FE319
:101340000E94F82C88230CF010E0112329F081E092
:1013500090E09B878A8746C011E06E817F818885F7
:10136000998520E03FEF4FE757E40E94422E181680
:101370000CF010E0112361F16A817B818C819D81E9
:1013800020E030E040E251E40E94462EDC01CB0137
:10139000BC01CD010E94642DDC01CB019B878A87B3
:1013A00012C080E791E09D878C878C859D858C019C
:1013B000C8010197F1F78C011D870C878A859B85F1
:1013C00001979B878A878A859B85009751F717C06D
:1013D0006E817F81888599850E94642DDC01CB0117
:1013E0009B878A878A859B859F878E878E859F8529
:1013F0008C01F8013197F1F78F011F870E8788E282
:1014000090E028E230E0F90120812B7FFC0120836D
:101410008E8D8F708E8F8E8D8295807F8E8F88E2DD
:1014200090E028E230E0F90120812F70FC01208358
:1014300088E290E028E230E0F90130812E8D232B04
:10144000FC01208388E290E028E230E0F90120816D
:101450002E7FFC01208388E290E028E230E0F90151
:1014600020812D7FFC01208388E290E028E230E09B
:10147000F90120812460FC01208380E090E0A0EA53
:10148000B0E4888B998BAA8BBB8B688979898A8910
:101490009B8926E636E646E655E40E94462EDC01A8
:1014A000CB018C8B9D8BAE8BBF8B11E06C897D89C2
:1014B0008E899F8920E030E040E85FE30E94F82CAD
:1014C00088230CF010E0112329F081E090E0998F3F
:1014D000888F46C011E06C897D898E899F8920E0C4
:1014E0003FEF4FE757E40E94422E18160CF010E031
:1014F000112361F1688979898A899B8920E030E02C
:1015000040E251E40E94462EDC01CB01BC01CD013A
:101510000E94642DDC01CB01998F888F12C080E777
:1015200091E09B8F8A8F8A8D9B8D8C01C8010197DA
:10153000F1F78C011B8F0A8F888D998D0197998FF8
:10154000888F888D998D009751F717C06C897D8998
:101550008E899F890E94642DDC01CB01998F888F31
:10156000888D998D9D8F8C8F8C8D9D8D8C01F80130
:101570003197F1F78F011D8F0C8F88E290E028E200
:1015800030E0F90120812B7FFC0120836E960FB69D
:10159000F894DEBF0FBECDBFDF91CF911F910F91A9
:1015A00008950F931F93CF93DF93CDB7DEB76E9758
:1015B0000FB6F894DEBF0FBECDBF8E8F8E8D8983A0
:1015C0008981807F898388E290E028E230E0F90118
:1015D00020812F70FC01208388E290E028E230E037
:1015E000F90130812981232BFC01208388E290E0DE
:1015F00028E230E0F90120812160FC01208388E2AB
:1016000090E028E230E0F90120812D7FFC01208369
:1016100088E290E028E230E0F90120812460FC01BA
:10162000208380E090E0A0EAB0E48A839B83AC83CF
:10163000BD836A817B818C819D8126E636E646E604
:1016400055E40E94462EDC01CB018E839F83A88740
:10165000B98711E06E817F818885998520E030E02F
:1016600040E85FE30E94F82C88230CF010E011237F
:1016700029F081E090E09B878A8746C011E06E8167
:101680007F818885998520E03FEF4FE757E40E94EE
:10169000422E18160CF010E0112361F16A817B8153
:1016A0008C819D8120E030E040E251E40E94462E92
:1016B000DC01CB01BC01CD010E94642DDC01CB011A
:1016C0009B878A8712C080E791E09D878C878C85F5
:1016D0009D858C01C8010197F1F78C011D870C874E
:1016E0008A859B8501979B878A878A859B8500973A
:1016F00051F717C06E817F81888599850E94642D7E
:10170000DC01CB019B878A878A859B859F878E8793
:101710008E859F858C01F8013197F1F78F011F8726
:101720000E8788E290E028E230E0F90120812B7FEB
:10173000FC0120838E8D8F708E8F8E8D8295807FA1
:101740008E8F88E290E028E230E0F90120812F704E
:10175000FC01208388E290E028E230E0F90130814A
:101760002E8D232BFC01208388E290E028E230E0DC
:10177000F90120812160FC01208388E290E028E2C9
:1017800030E0F90120812D7FFC01208388E290E088
:1017900028E230E0F90120812460FC01208380E010
:1017A00090E0A0EAB0E4888B998BAA8BBB8B688908
:1017B00079898A899B8926E636E646E655E40E94C1
:1017C000462EDC01CB018C8B9D8BAE8BBF8B11E049
:1017D0006C897D898E899F8920E030E040E85FE355
:1017E0000E94F82C88230CF010E0112329F081E0EE
:1017F00090E0998F888F46C011E06C897D898E8931
:101800009F8920E03FEF4FE757E40E94422E1816D1
:101810000CF010E0112361F1688979898A899B892C
:1018200020E030E040E251E40E94462EDC01CB0192
:10183000BC01CD010E94642DDC01CB01998F888F02
:1018400012C080E791E09B8F8A8F8A8D9B8D8C01DF
:10185000C8010197F1F78C011B8F0A8F888D998D34
:101860000197998F888F888D998D009751F717C0B0
:101870006C897D898E899F890E94642DDC01CB0152
:10188000998F888F888D998D9D8F8C8F8C8D9D8D54
:101890008C01F8013197F1F78F011D8F0C8F88E2D1
:1018A00090E028E230E0F90120812B7FFC012083C9
:1018B0006E960FB6F894DEBF0FBECDBFDF91CF910D
:1018C0001F910F910895CF93DF93CDB7DEB780E8D6
:1018D0000E943F09DF91CF910895CF93DF930F923C
:1018E0000F92CDB7DEB79A8389830BC089819A8125
:1018F000FC0180810E94D10A89819A8101969A8394
:10190000898389819A81FC018081882379F70F90EE
:101910000F90DF91CF910895CF93DF930F920F92A5
:10192000CDB7DEB789836A838981882F90E08230C2
:10193000910599F08330910524F48130910541F0AF
:101940001BC08330910571F08430910581F014C083
:101950008A8181580E943F0910C08A8181540E9467
:101960003F090BC08A818D560E943F0906C08A81BB
:101970008D520E943F0901C000000F900F90DF912F
:10198000CF910895CF93DF93CDB7DEB727970FB6EA
:10199000F894DEBF0FBECDBF8A836B835D834C831B
:1019A0003F832E8319828A81882319F08B818823B3
:1019B00019F40E94630C04C08A816B810E948C0C14
:1019C0008E819F818530910519F089818130B1F434
:1019D0008C819D8120E137E2B9010E94A92E9B01F3
:1019E000C901C0969093800280937F0280917F020C
:1019F000909180020E94D10A81E089838E819F812B
:101A00008430910519F08981813019F58C819D818F
:101A100028EE33E0B9010E94A92E9B01C9019093E1
:101A200082028093810280918102909182022AE059
:101A300030E0B9010E94A92EC0969093980280933D
:101A4000970280919702909198020E94D10A81E0BA
:101A500089838E819F818330910519F0898181303E
:101A600019F58C819D8124E630E0B9010E94A92EF0
:101A70009B01C9019093820280938102809181022F
:101A8000909182022AE030E0B9010E94A92EC0960E
:101A90009093940280939302809193029091940288
:101AA0000E94D10A81E089838E819F8182309105D5
:101AB00019F08981813019F58C819D812AE030E00F
:101AC000B9010E94A92E9B01C901909382028093C3
:101AD000810280918102909182022AE030E0B90176
:101AE0000E94A92EC09690938F0280938E028091BF
:101AF0008E0290918F020E94D10A81E089838E81AB
:101B00009F818130910519F08981813091F48C8118
:101B10009D812AE030E0B9010E94A92EC0969093E1
:101B200096028093950280919502909196020E9470
:101B3000D10A8E819F81863091051CF085E40E9438
:101B4000D10A27960FB6F894DEBF0FBECDBFDF9146
:101B5000CF910895CF93DF93CDB7DEB787E290E0C2
:101B600027E230E0F90120812860FC01208388E22F
:101B700090E028E230E0F9012081277FFC012083FA
:101B8000DF91CF910895CF93DF93CDB7DEB78DE28C
:101B900090E02DE230E0F90120812F7EFC012083CE
:101BA0008EE290E02EE230E0F90120812061FC011C
:101BB0002083DF91CF910895CF93DF93CDB7DEB728
:101BC0008DE290E02DE230E0F90120812F7DFC01D3
:101BD00020838EE290E02EE230E0F9012081206245
:101BE000FC012083DF91CF910895CF93DF93CDB790
:101BF000DEB787E290E027E230E0F9012081276F2D
:101C0000FC01208388E290E028E230E0F9012081A5
:101C10002078FC012083DF91CF910895CF93DF934B
:101C2000CDB7DEB780E390E0FC01108281E390E065
:101C3000FC01108287E091E0FC01108288E091E0D5
:101C4000FC011082DF91CF910895CF93DF93CDB740
:101C5000DEB781E290E021E230E0F90120812F60DF
:101C6000FC01208382E290E022E230E0F901208151
:101C7000207FFC0120838AE091E02AE031E0F90135
:101C800020812861FC0120838BE091E02BE031E092
:101C9000F90120812861FC012083DF91CF91089513
:101CA000CF93DF93CDB7DEB78AE290E02AE230E04F
:101CB000F9012081276FFC0120838BE290E02BE269
:101CC00030E0F90120812860FC012083DF91CF9171
:101CD0000895CF93DF93CDB7DEB784E290E024E29E
:101CE00030E0F90120812062FC01208385E290E050
:101CF00025E230E0F90120812062FC012083DF91A0
:101D0000CF910895CF93DF93CDB7DEB70E94AA0D90
:101D10000E94F50D0E940E0E0E94250E0E94C30D1A
:101D20000E94DC0D0E94500E0E94690EDF91CF913F
:101D30000895CF93DF93CDB7DEB781EC90E0FC013F
:101D4000108280EC90E0FC01108282EC90E026E0B2
:101D5000FC01208384EC90E02FE5FC01208385ECDE
:101D600090E0FC01108281EC90E028E1FC012083EE
:101D7000DF91CF910895CF93DF93CDB7DEB7F8947D
:101D80008AE690E02AE630E0F90120812260FC0139
:101D900020838DE390E02DE330E0F9012081206184
:101DA000FC0120837894DF91CF910895CF93DF9346
:101DB000CDB7DEB7F8948AE690E02AE630E0F90184
:101DC00020812860FC0120838DE390E02DE330E04A
:101DD000F90120812062FC0120837894DF91CF916A
:101DE0000895CF93DF93CDB7DEB781E291E0FC0198
:101DF000108285E291E02FEFFC01208384E291E0E4
:101E000021E0FC01208389E291E0FC01108288E25C
:101E100091E02FEFFC0120838BE291E0FC01108226
:101E20008AE291E02FEFFC0120838DE291E0FC013A
:101E300010828CE291E02FEFFC01208380E291E0A0
:101E400029EAFC01208381E291E02BE0FC01208360
:101E5000DF91CF910895CF93DF93CDB7DEB781E8BF
:101E600090E0FC01108285E890E02CEFFC012083DB
:101E700084E890E021E0FC01208389E890E023E001
:101E8000FC01208388E890E02FEFFC0120838BE8A1
:101E900090E023E0FC0120838AE890E02FEFFC0132
:101EA00020838DE890E023E0FC0120838CE890E023
:101EB0002FEFFC01208387E890E023E0FC012083E2
:101EC00086E890E02FEFFC01208380E890E02BEA89
:101ED000FC01208382E890E0FC01108281E890E020
:101EE0002CE0FC012083DF91CF910895CF93DF9305
:101EF000CDB7DEB78AE790E0FC0110828BE790E077
:101F0000FC0110828CE790E020E2FC01208380E558
:101F100090E020E8FC0120838AE790E026E8FC01BD
:101F20002083DF91CF910895CF93DF93CDB7DEB7B4
:101F3000F89489E690E029E630E0F90120812068F4
:101F4000FC0120838AE690E02AE630E0F901208156
:101F5000FC0120838DE390E02DE330E0F901208146
:101F60002860FC0120837894DF91CF910895CF936E
:101F7000DF93CDB7DEB7F8940E94820E0E94990ECF
:101F80000E94BB0E0E94D60E0E94F10E0E942B0FE3
:101F90000E94760F0E94940F7894DF91CF9108955C
:101FA0001F920F920FB60F9211248F939F93AF93AE
:101FB000BF93CF93DF93CDB7DEB78091440290916A
:101FC0004502A0914602B09147020196A11DB11DA4
:101FD0008093440290934502A0934602B093470237
:101FE000809135028F5F80933502DF91CF91BF9151
:101FF000AF919F918F910F900FBE0F901F901895EA
:102000001F920F920FB60F9211248F939F93AF934D
:10201000BF93CF93DF93CDB7DEB78091400290910D
:102020004102A0914202B09143020196A11DB11D4F
:102030008093400290934102A0934202B0934302E6
:10204000809134028F5F80933402DF91CF91BF91F2
:10205000AF919F918F910F900FBE0F901F90189589
:102060001F920F920FB60F9211248F939F93AF93ED
:10207000BF93CF93DF93CDB7DEB780914A029091A3
:102080004B02A0914C02B0914D020196A11DB11DD1
:1020900080934A0290934B02A0934C02B0934D025E
:1020A000DF91CF91BF91AF919F918F910F900FBE14
:1020B0000F901F9018950F931F93CF93DF93CDB779
:1020C000DEB72E970FB6F894DEBF0FBECDBF88E205
:1020D00090E028E230E0F90120812860FC012083B3
:1020E00080E090E0A8E4B2E489839A83AB83BC8368
:1020F00069817A818B819C8126E636E646E655E445
:102100000E94462EDC01CB018D839E83AF83B8876E
:1021100011E06D817E818F81988520E030E040E87C
:102120005FE30E94F82C88230CF010E0112329F0C3
:1021300081E090E09A87898746C011E06D817E81B9
:102140008F81988520E03FEF4FE757E40E94422EB1
:1021500018160CF010E0112361F169817A818B81EE
:102160009C8120E030E040E251E40E94462EDC01F8
:10217000CB01BC01CD010E94642DDC01CB019A870B
:10218000898712C080E791E09C878B878B859C852F
:102190008C01C8010197F1F78C011C870B87898599
:1021A0009A8501979A87898789859A85009751F73B
:1021B00017C06D817E818F8198850E94642DDC011E
:1021C000CB019A87898789859A859E878D878D859A
:1021D0009E858C01F8013197F1F78F011E870D87DD
:1021E00088E290E028E230E0F9012081277FFC01BD
:1021F00020832E960FB6F894DEBF0FBECDBFDF91C1
:10220000CF911F910F9108950F931F93CF93DF9359
:102210000F920F92CDB7DEB788E290E028E230E06F
:10222000F90120812860FC0120838AE090E09A83F4
:10223000898389819A818C01C8010197F1F78C010A
:102240001A8309830F900F90DF91CF911F910F9107
:1022500008950F931F93CF93DF9300D00F920F92A7
:10226000CDB7DEB78D8380E090E0DC0189839A836F
:10227000AB83BC838D81882F90E0A0E0B0E0BC01EF
:10228000CD010E94902DDC01CB01BC01CD012BE7DB
:1022900034E14EEE5FE30E94FC2CDC01CB01BC017B
:1022A000CD0120E030E04CE052E40E94942CDC01AF
:1022B000CB0189839A83AB83BC8389E890E0FC01DE
:1022C000108208E810E069817A818B819C810E94EC
:1022D000642DDC01CB01F80180830F900F900F90EB
:1022E0000F900F90DF91CF911F910F910895CF9391
:1022F000DF93CDB7DEB789E890E023E0FC012083CF
:1023000088E890E02FEFFC012083DF91CF910895C2
:10231000CF93DF930F920F92CDB7DEB78A838A8176
:10232000883028F08BE790E028E0FC0120838A8148
:1023300087708A838CE790E02A812062FC012083E9
:102340008AE790E02AE730E0F90120812064FC016F
:10235000208300008AE790E0FC018081882F90E0D4
:10236000807190700097B1F389E790E0FC01808163
:1023700089838AE790E02AE730E0F9012081206133
:10238000FC0120838BE790E0FC01108289810F9093
:102390000F90DF91CF910895CF93DF9300D0CDB709
:1023A000DEB789836A834B838B810E948811809377
:1023B0008B0280918B02282F30E089816A81A901EC
:1023C00023E030E00E94C20C0F900F900F90DF913D
:1023D000CF910895CF93DF930F920F92CDB7DEB7D1
:1023E00089836A8388E291E02981FC0120838AE263
:1023F00091E02A81FC0120830F900F90DF91CF9113
:102400000895CF93DF930F920F92CDB7DEB78A83F3
:1024100019828A818F708A8382E290E0FC01808138
:1024200089838981807F898399818A81892B8983A6
:1024300082E290E02981FC0120830F900F90DF91D0
:10244000CF910895CF93DF93CDB7DEB786E00E949A
:102450000112DF91CF910895CF93DF93CDB7DEB70F
:1024600085E00E940112DF91CF910895CF93DF9311
:10247000CDB7DEB78AE00E940112DF91CF910895B7
:10248000CF93DF93CDB7DEB789E00E940112DF91D1
:10249000CF910895CF93DF93CDB7DEB780E00E9450
:1024A0000112DF91CF910895CF93DF93CDB7DEB7BF
:1024B0002A970FB6F894DEBF0FBECDBF9A878987E3
:1024C00080E090E0DC0189839A83AB83BC831D822A
:1024D0001E821F82188689859A85CC01A0E0B0E013
:1024E000BC01CD010E94902DDC01CB01BC01CD01CE
:1024F00028E431EE42E850E40E94FC2CDC01CB01E0
:1025000089839A83AB83BC8369817A818B819C8127
:102510000E94642DDC01CB01CC01A0E0B0E08D83F2
:102520009E83AF83B88710924402109245021092A6
:1025300046021092470210924002109241021092FD
:1025400042021092430201C00000209144023091E7
:10255000450240914602509147028D819E81AF8194
:10256000B885281739074A075B0788F4209140028D
:102570003091410240914202509143028D819E81EF
:10258000AF81B885281739074A075B07E8F20E9430
:102590004A122A960FB6F894DEBF0FBECDBFDF9168
:1025A000CF910895CF93DF930F920F92CDB7DEB7FF
:1025B0009A8389830E942C1289819A810E945412E5
:1025C0000F900F90DF91CF910895CF93DF930F92EB
:1025D0000F92CDB7DEB79A8389830E943612898124
:1025E0009A810E9454120F900F90DF91CF9108951D
:1025F000CF93DF93CDB7DEB72A970FB6F894DEBF3F
:102600000FBECDBF9A87898780E090E0DC01898387
:102610009A83AB83BC831D821E821F8218868985A4
:102620009A85CC01A0E0B0E0BC01CD010E94902DC4
:10263000DC01CB01BC01CD0125EE30ED4AEA50E4CE
:102640000E94FC2CDC01CB0189839A83AB83BC8381
:1026500069817A818B819C810E94642DDC01CB0190
:102660008D839E83AF83B8871092440210924502F7
:1026700010924602109247021092400210924102BC
:10268000109242021092430201C0000020914402C5
:102690003091450240914602509147028D819E81C2
:1026A000AF81B88582179307A407B50788F02091FA
:1026B00040023091410240914202509143028D818B
:1026C0009E81AF81B88582179307A407B507E8F606
:1026D0002A960FB6F894DEBF0FBECDBFDF91CF9123
:1026E0000895CF93DF930F920F92CDB7DEB79A8301
:1026F00089830E94221289819A810E94F8120F9088
:102700000F90DF91CF910895CF93DF930F920F92A7
:10271000CDB7DEB79A8389830E94401289819A815E
:102720000E94F8120F900F90DF91CF910895CF93F0
:10273000DF93CDB7DEB78BE290E02BE230E0F9011A
:1027400020812F7BFC0120838BE290E02BE230E0A4
:10275000F90120812F77FC012083DF91CF9108952B
:10276000CF93DF93CDB7DEB78BE290E02BE230E082
:10277000F90120812064FC0120838BE290E02BE2B0
:1027800030E0F90120812068FC012083DF91CF91A6
:102790000895CF93DF93CDB7DEB78BE290E02BE2C5
:1027A00030E0F90120812F7BFC0120838BE290E057
:1027B0002BE230E0F90120812068FC012083DF91C9
:1027C000CF910895CF93DF93CDB7DEB78BE290E042
:1027D0002BE230E0F90120812064FC0120838BE2B0
:1027E00090E02BE230E0F90120812F77FC0120837B
:1027F000DF91CF910895CF93DF93CDB7DEB78BE212
:1028000090E02BE230E0F90120812061FC0120837F
:102810008BE290E02BE230E0F90120812062FC01A4
:102820002083DF91CF9108950F931F93CF93DF9370
:10283000CDB7DEB72E970FB6F894DEBF0FBECDBF73
:102840000E94971310924A0210924B0210924C026F
:1028500010924D0280E090E0A8ECB2E489839A8364
:10286000AB83BC8369817A818B819C8126E636E6C5
:1028700046E655E40E94462EDC01CB018D839E8303
:10288000AF83B88711E06D817E818F81988520E0CC
:1028900030E040E85FE30E94F82C88230CF010E061
:1028A000112329F081E090E09A87898746C011E0E2
:1028B0006D817E818F81988520E03FEF4FE757E45F
:1028C0000E94422E18160CF010E0112361F169816C
:1028D0007A818B819C8120E030E040E251E40E94CB
:1028E000462EDC01CB01BC01CD010E94642DDC0130
:1028F000CB019A87898712C080E791E09C878B87FC
:102900008B859C858C01C8010197F1F78C011C8790
:102910000B8789859A8501979A87898789859A8502
:10292000009751F717C06D817E818F8198850E9435
:10293000642DDC01CB019A87898789859A859E87DA
:102940008D878D859E858C01C8010197F1F78C01DB
:102950001E870D8780914A0290914B02A0914C02F4
:10296000B0914D028093870290938802A0938902D0
:10297000B0938A022E960FB6F894DEBF0FBECDBF7D
:10298000DF91CF911F910F9108950F931F93CF93D4
:10299000DF93CDB7DEB72E970FB6F894DEBF0FBE2C
:1029A000CDBF0E94B01310924A0210924B021092B7
:1029B0004C0210924D0280E090E0A8ECB2E48983D2
:1029C0009A83AB83BC8369817A818B819C8126E663
:1029D00036E646E655E40E94462EDC01CB018D83A7
:1029E0009E83AF83B88711E06D817E818F8198854A
:1029F00020E030E040E85FE30E94F82C88230CF0F0
:102A000010E0112329F081E090E09A87898746C081
:102A100011E06D817E818F81988520E03FEF4FE747
:102A200057E40E94422E18160CF010E0112361F1B9
:102A300069817A818B819C8120E030E040E251E421
:102A40000E94462EDC01CB01BC01CD010E94642D09
:102A5000DC01CB019A87898712C080E791E09C87CF
:102A60008B878B859C858C01C8010197F1F78C01C0
:102A70001C870B8789859A8501979A87898789851D
:102A80009A85009751F717C06D817E818F81988557
:102A90000E94642DDC01CB019A87898789859A85FC
:102AA0009E878D878D859E858C01C8010197F1F7E2
:102AB0008C011E870D8780914A0290914B02A09154
:102AC0004C02B0914D028093830290938402A093B4
:102AD0008502B09386022E960FB6F894DEBF0FBE25
:102AE000CDBFDF91CF911F910F9108950F931F9349
:102AF000CF93DF93CDB7DEB72E970FB6F894DEBF36
:102B00000FBECDBF0E94C91310924A0210924B0211
:102B100010924C0210924D0280E090E0A8ECB2E4DA
:102B200089839A83AB83BC8369817A818B819C8101
:102B300026E636E646E655E40E94462EDC01CB0149
:102B40008D839E83AF83B88711E06D817E818F81F5
:102B5000988520E030E040E85FE30E94F82C88236D
:102B60000CF010E0112329F081E090E09A8789872A
:102B700046C011E06D817E818F81988520E03FEF16
:102B80004FE757E40E94422E18160CF010E0112374
:102B900061F169817A818B819C8120E030E040E2A3
:102BA00051E40E94462EDC01CB01BC01CD010E9404
:102BB000642DDC01CB019A87898712C080E791E000
:102BC0009C878B878B859C858C01C8010197F1F7C9
:102BD0008C011C870B8789859A8501979A8789873D
:102BE00089859A85009751F717C06D817E818F8105
:102BF00098850E94642DDC01CB019A87898789859D
:102C00009A859E878D878D859E858C01C801019749
:102C1000F1F78C011E870D8780914A0290914B023B
:102C2000A0914C02B0914D0280936002909361029A
:102C3000A0936202B09363022E960FB6F894DEBFA3
:102C40000FBECDBFDF91CF911F910F910895CF930C
:102C5000DF93CDB7DEB783E00E9488118093360200
:102C600082E00E9488118093370281E00E948811DF
:102C70008093380284E00E9488118093390286E0B4
:102C80000E94881180933B0288E00E948811809303
:102C90003D0289E00E94881180933E028DE00E94EF
:102CA000881180933F02DF91CF910895CF93DF93F6
:102CB000CDB7DEB72CE832E080ED6BE342E050E0C8
:102CC0000E94E50120E932E080ED67E442E050E057
:102CD0000E94E50180918C02992787FD9095909341
:102CE0004F0280934E0280914E0290914F02982F96
:102CF000882790934F0280934E0280918D02282F57
:102D0000332727FD309580914E0290914F02820F1C
:102D1000931F90934F0280934E0280914E029091A8
:102D20004F02AA2797FDA095BA2FBC01CD010E94A2
:102D3000922DDC01CB018093540290935502A09315
:102D40005602B093570280919002992787FD909583
:102D500090935302809352028091520290915302B9
:102D6000982F88279093530280935202809191026A
:102D7000282F332727FD30958091520290915302DE
:102D8000820F931F909353028093520280915202BC
:102D90009091530223E830E0B9010E94BD2E9B01BF
:102DA000C901AA2797FDA095BA2FBC01CD010E94A9
:102DB000922DDC01CB0180935C0290935D02A09385
:102DC0005E02B0935F02DF91CF910895CF93DF93BE
:102DD000CDB7DEB70E9414140E94C5140E94761568
:102DE0008091870290918802A0918902B0918A0215
:102DF000833C21E0920720E0A20720E0B20708F41C
:102E0000A6C08091830290918402A0918502B09126
:102E10008602833C21E0920720E0A20720E0B2076F
:102E200008F495C08091600290916102A0916202C5
:102E3000B0916302833C21E0920720E0A20720E0EA
:102E4000B20708F484C02091870230918802409133
:102E5000890250918A028091830290918402A0910C
:102E60008502B091860282179307A407B507B8F4CC
:102E700020918702309188024091890250918A0204
:102E80008091600290916102A0916202B091630210
:102E900082179307A407B50710F482E55CC0209160
:102EA0008302309184024091850250918602809184
:102EB000870290918802A0918902B0918A028217BC
:102EC0009307A407B507B8F42091830230918402D8
:102ED000409185025091860280916002909161023A
:102EE000A0916202B091630282179307A407B5070D
:102EF00010F487E430C0209160023091610240916B
:102F00006202509163028091830290918402A091A9
:102F10008502B091860282179307A407B507C8F40B
:102F200020916002309161024091620250916302EF
:102F30008091870290918802A0918902B0918A02C3
:102F400082179307A407B50720F482E404C080E346
:102F500002C0000000C0DF91CF9108950F931F932E
:102F6000CF93DF93CDB7DEB7E8970FB6F894DEBF07
:102F70000FBECDBF80913202813009F011C184E1D2
:102F80000E94291180E090E0AAE7B4E489839A8343
:102F9000AB83BC8369817A818B819C8126E636E68E
:102FA00046E655E40E94462EDC01CB018D839E83CC
:102FB000AF83B88711E06D817E818F81988520E095
:102FC00030E040E85FE30E94F82C88230CF010E02A
:102FD000112329F081E090E09A87898746C011E0AB
:102FE0006D817E818F81988520E03FEF4FE757E428
:102FF0000E94422E18160CF010E0112361F1698135
:103000007A818B819C8120E030E040E251E40E9493
:10301000462EDC01CB01BC01CD010E94642DDC01F8
:10302000CB019A87898712C080E791E09C878B87C4
:103030008B859C858C01C8010197F1F78C011C8759
:103040000B8789859A8501979A87898789859A85CB
:10305000009751F717C06D817E818F8198850E94FE
:10306000642DDC01CB019A87898789859A859E87A3
:103070008D878D859E858C01C8010197F1F78C01A4
:103080001E870D870E94E616882F90E09093050218
:103090008093040280E50E94291180E090E0AAEF6D
:1030A000B3E48F87988BA98BBA8B6F8578898989D0
:1030B0009A8926E636E646E655E40E94462EDC016D
:1030C000CB018B8B9C8BAD8BBE8B11E06B897C898C
:1030D0008D899E8920E030E040E85FE30E94F82C73
:1030E00088230CF010E0112329F081E090E0988F04
:1030F0008F8B46C011E06B897C898D899E8920E089
:103100003FEF4FE757E40E94422E18160CF010E0F4
:10311000112361F16F85788989899A8920E030E0EF
:1031200040E251E40E94462EDC01CB01BC01CD01FE
:103130000E94642DDC01CB01988F8F8B12C080E739
:1031400091E09A8F898F898D9A8D8C01C8010197A2
:10315000F1F78C011A8F098F8F89988D0197988FBD
:103160008F8B8F89988D009751F717C06B897C8959
:103170008D899E890E94642DDC01CB01988F8F8BF5
:103180008F89988D9C8F8B8F8B8D9C8D8C01C80126
:103190000197F1F78C011C8F0B8F0E94771115C1DD
:1031A00080913302813009F010C18EEB0E94291109
:1031B00080E090E0A6E9B4E48D8F9E8FAF8FB8A336
:1031C0006D8D7E8D8F8D98A126E636E646E655E418
:1031D0000E94462EDC01CB0189A39AA3ABA3BCA31A
:1031E00011E069A17AA18BA19CA120E030E040E828
:1031F0005FE30E94F82C88230CF010E0112329F0E3
:1032000081E090E09EA38DA346C011E069A17AA160
:103210008BA19CA120E03FEF4FE757E40E94422E94
:1032200018160CF010E0112361F16D8D7E8D8F8DDD
:1032300098A120E030E040E251E40E94462EDC01FB
:10324000CB01BC01CD010E94642DDC01CB019EA30A
:103250008DA312C080E791E098A78FA38FA198A5B6
:103260008C01C8010197F1F78C0118A70FA38DA15C
:103270009EA101979EA38DA38DA19EA1009751F7BA
:1032800017C069A17AA18BA19CA10E94642DDC01C9
:10329000CB019EA38DA38DA19EA19AA789A789A5E5
:1032A0009AA58C01C8010197F1F78C011AA709A70B
:1032B0000E94E616882F90E0909307028093060202
:1032C00080E50E94291180E090E0AFE2B4E48BA792
:1032D0009CA7ADA7BEA76BA57CA58DA59EA526E640
:1032E00036E646E655E40E94462EDC01CB018FA768
:1032F00098ABA9ABBAAB11E06FA578A989A99AA937
:1033000020E030E040E85FE30E94F82C88230CF0D6
:1033100010E0112329F081E090E09CAB8BAB46C01C
:1033200011E06FA578A989A99AA920E03FEF4FE79E
:1033300057E40E94422E18160CF010E0112361F1A0
:103340006BA57CA58DA59EA520E030E040E251E470
:103350000E94462EDC01CB01BC01CD010E94642DF0
:10336000DC01CB019CAB8BAB12C080E791E09EAB44
:103370008DAB8DA99EA98C01C8010197F1F78C0135
:103380001EAB0DAB8BA99CA901979CAB8BAB8BA9FA
:103390009CA9009751F717C06FA578A989A99AA988
:1033A0000E94642DDC01CB019CAB8BAB8BA99CA94B
:1033B00098AF8FAB8FA998AD8C01C8010197F1F739
:1033C0008C0118AF0FAB0E947711E8960FB6F894F6
:1033D000DEBF0FBECDBFDF91CF911F910F9108953A
:1033E0000F931F93CF93DF93CDB7DEB72E970FB612
:1033F000F894DEBF0FBECDBF0E94271632C0809169
:1034000039028F3160F080913D028F3140F08CE8BD
:103410006CE80E94EA1186E090E00E9471138091AE
:1034200039028E3160F486E090E00E94E5128CE86B
:103430006CE80E94EA118AE090E00E94711380918A
:103440003D028E3160F486E090E00E94D2128CE85A
:103450006CE80E94EA118AE090E00E9471130E94D9
:10346000271680913602873140F4809137028731E8
:1034700020F480913802873110F286E40E942911ED
:1034800080E090E0A8ECB2E489839A83AB83BC83AC
:1034900069817A818B819C8126E636E646E655E491
:1034A0000E94462EDC01CB018D839E83AF83B887BB
:1034B00011E06D817E818F81988520E030E040E8C9
:1034C0005FE30E94F82C88230CF010E0112329F010
:1034D00081E090E09A87898746C011E06D817E8106
:1034E0008F81988520E03FEF4FE757E40E94422EFE
:1034F00018160CF010E0112361F169817A818B813B
:103500009C8120E030E040E251E40E94462EDC0144
:10351000CB01BC01CD010E94642DDC01CB019A8757
:10352000898712C080E791E09C878B878B859C857B
:103530008C01C8010197F1F78C011C870B878985E5
:103540009A8501979A87898789859A85009751F787
:1035500017C06D817E818F8198850E94642DDC016A
:10356000CB019A87898789859A859E878D878D85E6
:103570009E858C01C8010197F1F78C011E870D878C
:103580000E9477110E9460212E960FB6F894DEBF3C
:103590000FBECDBFDF91CF911F910F9108950F9373
:1035A0001F93CF93DF93CDB7DEB76D970FB6F89427
:1035B000DEBF0FBECDBF8D8F8D8D882309F409C16D
:1035C00081E062E00E948C0C80E090E0A8E4B2E42C
:1035D00089839A83AB83BC8369817A818B819C8147
:1035E00026E636E646E655E40E94462EDC01CB018F
:1035F0008D839E83AF83B88711E06D817E818F813B
:10360000988520E030E040E85FE30E94F82C8823B2
:103610000CF010E0112329F081E090E09A8789876F
:1036200046C011E06D817E818F81988520E03FEF5B
:103630004FE757E40E94422E18160CF010E01123B9
:1036400061F169817A818B819C8120E030E040E2E8
:1036500051E40E94462EDC01CB01BC01CD010E9449
:10366000642DDC01CB019A87898712C080E791E045
:103670009C878B878B859C858C01C8010197F1F70E
:103680008C011C870B8789859A8501979A87898782
:1036900089859A85009751F717C06D817E818F814A
:1036A00098850E94642DDC01CB019A8789878985E2
:1036B0009A859E878D878D859E858C01C80101978F
:1036C000F1F78C011E870D878AE092E00E946D0C55
:1036D00080E090E0A8E4B2E48F87988BA98BBA8B46
:1036E0006F85788989899A8926E636E646E655E423
:1036F0000E94462EDC01CB018B8B9C8BAD8BBE8B4D
:1037000011E06B897C898D899E8920E030E040E85A
:103710005FE30E94F82C88230CF010E0112329F0BD
:1037200081E090E0988F8F8B46C011E06B897C8997
:103730008D899E8920E03FEF4FE757E40E94422E9B
:1037400018160CF010E0112361F16F8578898989D2
:103750009A8920E030E040E251E40E94462EDC01EC
:10376000CB01BC01CD010E94642DDC01CB01988FFF
:103770008F8B12C080E791E09A8F898F898D9A8D07
:103780008C01C8010197F1F78C011A8F098F8F897D
:10379000988D0197988F8F8B8F89988D009751F70F
:1037A00017C06B897C898D899E890E94642DDC01FC
:1037B000CB01988F8F8B8F89988D9C8F8B8F8B8D62
:1037C0009C8D8C01C8010197F1F78C011C8F0B8F28
:1037D000FFCF6D960FB6F894DEBF0FBECDBFDF9161
:1037E000CF911F910F910895CF93DF93CDB7DEB79F
:1037F0008AEA6AEA0E94EA118EE190E00E9471135F
:103800008FE590E00E94E5128AEA6AEA0E94EA11D6
:10381000DF91CF910895CF93DF93CDB7DEB78AEADA
:103820006AEA0E94EA118EE190E00E9471138FE52E
:1038300090E00E94D2128AEA6AEA0E94EA11DF91BD
:10384000CF910895CF93DF93CDB7DEB70E942716AF
:1038500049C080913602873188F4809137028831DF
:1038600068F080913802873148F485E090E00E944A
:1038700071138AEA6AEA0E94EA1132C08091360224
:10388000873188F480913702873168F4809138025B
:10389000883148F086E090E00E94E51286E966E90A
:1038A0000E94EA111DC080913602883188F0809113
:1038B0003702873168F480913802873148F486E016
:1038C00090E00E94D21286E966E90E94EA1108C0DF
:1038D0008AE090E00E9471138AEA6AEA0E94EA1183
:1038E0000E94271680913602883140F0809137027D
:1038F000883120F0809138028831E8F480913602D6
:10390000873140F480913702883120F0809138026D
:10391000883188F480913602883140F080913702F6
:10392000883120F080913802873128F080913B0265
:10393000803308F08ECF80913B02803330F481E3F6
:1039400090E090930902809308020E945B10DF913F
:10395000CF910895CF93DF93CDB7DEB78091240246
:103960009091250226E030E0B9010E94A92E9093A3
:10397000300280932F0280912702813009F03FC0EE
:103980008091240290912502009711F48EE47BC06F
:1039900080912F0290913002009711F485E473C05A
:1039A00080910002909101028130910571F0809127
:1039B0000002909101028330910539F0809100025C
:1039C000909101028530910511F48EE45CC08091E4
:1039D0000002909101028230910579F080910002FD
:1039E000909101028430910541F080910002909104
:1039F00001028630910509F045C083E544C08091FD
:103A00002702823009F03EC0809124029091250265
:103A1000009711F487E537C080912F029091300212
:103A2000009711F48EE42FC0809100029091010262
:103A30008130910571F080910002909101028330F4
:103A4000910539F080910002909101028530910535
:103A500011F487E518C08091000290910102823034
:103A6000910571F0809100029091010284309105DE
:103A700039F080910002909101028630910511F495
:103A800085E401C000C0DF91CF910895CF93DF930B
:103A9000CDB7DEB7809124029091250226E030E078
:103AA000B9010E94A92E9093300280932F02809139
:103AB0000002909101028330910539F0809100025B
:103AC0009091010285309105B1F5809100029091AD
:103AD00001029C012150304080912F0290913002D0
:103AE000AC0141505040C901880F991F880F991FA0
:103AF000820F931F840F951F8A599D4F21E0FC016F
:103B0000208380910002909101029C01215030405D
:103B100040912F0250913002C901880F991F880FE0
:103B2000991F820F931F840F951F8A599D4F21E083
:103B3000FC01208348C080910002909101028230F4
:103B4000910539F080910002909101028430910535
:103B5000D1F580910002909101029C0121503040EA
:103B600080912F029091300245E050E0481B590BA4
:103B7000C901880F991F880F991F820F931F840F07
:103B8000951F8A599D4F21E0FC01208380910002FE
:103B9000909101029C012150304080912F02909120
:103BA000300244E050E0481B590BC901880F991FAF
:103BB000880F991F820F931F840F951F8A599D4F5D
:103BC00021E0FC012083DF91CF910895CF93DF9313
:103BD000CDB7DEB7809124029091250226E030E037
:103BE000B9010E94A92E9093300280932F028091F8
:103BF0000002909101028330910539F0809100021A
:103C0000909101028530910509F580910002909113
:103C100001029C012250304080912F02909130028D
:103C2000AC0141505040C901880F991F880F991F5E
:103C3000820F931F840F951F8A599D4FFC0180812D
:103C4000813011F481E03AC080E038C080910002F8
:103C5000909101028230910571F080910002909163
:103C600001028430910539F08091000290910102A7
:103C70008630910511F580910002909101029C011E
:103C80002250304080912F029091300245E050E068
:103C9000481B590BC901880F991F880F991F820F64
:103CA000931F840F951F8A599D4FFC01808181309D
:103CB00011F481E003C080E001C000C0DF91CF912A
:103CC00008950F931F93CF93DF93CDB7DEB76C9713
:103CD0000FB6F894DEBF0FBECDBF80E590E00E9426
:103CE00084130E944A1280E090E0A8ECB2E4898339
:103CF0009A83AB83BC8369817A818B819C8126E620
:103D000036E646E655E40E94462EDC01CB018D8363
:103D10009E83AF83B88711E06D817E818F81988506
:103D200020E030E040E85FE30E94F82C88230CF0AC
:103D300010E0112329F081E090E09A87898746C03E
:103D400011E06D817E818F81988520E03FEF4FE704
:103D500057E40E94422E18160CF010E0112361F176
:103D600069817A818B819C8120E030E040E251E4DE
:103D70000E94462EDC01CB01BC01CD010E94642DC6
:103D8000DC01CB019A87898712C080E791E09C878C
:103D90008B878B859C858C01C8010197F1F78C017D
:103DA0001C870B8789859A8501979A8789878985DA
:103DB0009A85009751F717C06D817E818F81988514
:103DC0000E94642DDC01CB019A87898789859A85B9
:103DD0009E878D878D859E858C01C8010197F1F79F
:103DE0008C011E870D870E94F41B0E94221C8EE10D
:103DF00090E00E9471130E940B1C0E94221C84E11F
:103E000090E00E9471130E94BF2380E090E0AAE737
:103E1000B4E48F87988BA98BBA8B6F857889898951
:103E20009A8926E636E646E655E40E94462EDC01EF
:103E3000CB018B8B9C8BAD8BBE8B11E06B897C890E
:103E40008D899E8920E030E040E85FE30E94F82CF5
:103E500088230CF010E0112329F081E090E0988F86
:103E60008F8B46C011E06B897C898D899E8920E00B
:103E70003FEF4FE757E40E94422E18160CF010E077
:103E8000112361F16F85788989899A8920E030E072
:103E900040E251E40E94462EDC01CB01BC01CD0181
:103EA0000E94642DDC01CB01988F8F8B12C080E7BC
:103EB00091E09A8F898F898D9A8D8C01C801019725
:103EC000F1F78C011A8F098F8F89988D0197988F40
:103ED0008F8B8F89988D009751F717C06B897C89DC
:103EE0008D899E890E94642DDC01CB01988F8F8B78
:103EF0008F89988D9C8F8B8F8B8D9C8D8C01C801A9
:103F00000197F1F78C011C8F0B8F0E94221C84E11A
:103F100090E00E9471130E940B1C0E94221C8EE1F3
:103F200090E00E9471130E940B1C0E94221C0E94B0
:103F30004A128EEB90E00E94D2128AE590E00E9435
:103F4000841380912402909125020196909325027A
:103F5000809324026C960FB6F894DEBF0FBECDBFDF
:103F6000DF91CF911F910F9108950F931F93CF93DE
:103F7000DF93CDB7DEB76C970FB6F894DEBF0FBEF8
:103F8000CDBF80E590E00E9484130E944A1280E039
:103F900090E0A8ECB2E489839A83AB83BC83698107
:103FA0007A818B819C8126E636E646E655E40E94BE
:103FB000462EDC01CB018D839E83AF83B88711E051
:103FC0006D817E818F81988520E030E040E85FE35D
:103FD0000E94F82C88230CF010E0112329F081E0D6
:103FE00090E09A87898746C011E06D817E818F813C
:103FF000988520E03FEF4FE757E40E94422E1816C5
:104000000CF010E0112361F169817A818B819C8130
:1040100020E030E040E251E40E94462EDC01CB017A
:10402000BC01CD010E94642DDC01CB019A878987F8
:1040300012C080E791E09C878B878B859C858C01E3
:10404000C8010197F1F78C011C870B8789859A8538
:1040500001979A87898789859A85009751F717C0B4
:104060006D817E818F8198850E94642DDC01CB015A
:104070009A87898789859A859E878D878D859E8574
:104080008C01C8010197F1F78C011E870D870E94F2
:104090000B1C0E94221C8EE190E00E9471130E9472
:1040A000F41B0E94221C84E190E00E9471130E9484
:1040B000BF2380E090E0AAE7B4E48F87988BA98BB8
:1040C000BA8B6F85788989899A8926E636E646E62D
:1040D00055E40E94462EDC01CB018B8B9C8BAD8B73
:1040E000BE8B11E06B897C898D899E8920E030E050
:1040F00040E85FE30E94F82C88230CF010E01123C5
:1041000029F081E090E0988F8F8B46C011E06B8999
:104110007C898D899E8920E03FEF4FE757E40E941C
:10412000422E18160CF010E0112361F16F8578898A
:1041300089899A8920E030E040E251E40E94462ECD
:10414000DC01CB01BC01CD010E94642DDC01CB015F
:10415000988F8F8B12C080E791E09A8F898F898D1D
:104160009A8D8C01C8010197F1F78C011A8F098F84
:104170008F89988D0197988F8F8B8F89988D009755
:1041800051F717C06B897C898D899E890E94642DA7
:10419000DC01CB01988F8F8B8F89988D9C8F8B8FB3
:1041A0008B8D9C8D8C01C8010197F1F78C011C8FC0
:1041B0000B8F0E94221C8EE190E00E9471130E94DE
:1041C000F41B0E94221C8EE190E00E9471130E9459
:1041D000F41B0E94221C0E944A128EEB90E00E9467
:1041E000D2128AE590E00E9484138091240290917B
:1041F0002502019690932502809324026C960FB6B7
:10420000F894DEBF0FBECDBFDF91CF911F910F910C
:104210000895CF93DF93CDB7DEB70E945B100E9465
:10422000461D81E390E090930902809308020E946A
:10423000AA1C80930202809124029091250226E01C
:1042400030E0B9010E94A92E9093300280932F0292
:104250000E94E61D8093310280910002909101023C
:104260008230910539F080910002909101028430F2
:10427000910551F480913102813019F40E94B51FEB
:104280001AC00E94611E17C0809100029091010225
:104290008330910539F080910002909101028530C0
:1042A000910549F480913102813019F40E94611E18
:1042B00002C00E94B51F0E944A12DF91CF9108955B
:1042C0000F931F93CF93DF93CDB7DEB7A0970FB6B1
:1042D000F894DEBF0FBECDBF0E945B100E94AA1CE7
:1042E000809302028091240290912502019690937E
:1042F00025028093240280912702823039F4809134
:1043000024029091250281319105C1F0809127020C
:10431000823039F480912402909125028C319105EC
:1043200069F080912702813009F08AC080912402CF
:10433000909125028B31910509F082C00E944A12AA
:1043400080E090E0AAEFB4E48D839E83AF83B887CA
:104350006D817E818F81988526E636E646E655E4B6
:104360000E94462EDC01CB0189879A87AB87BC87E8
:1043700011E069857A858B859C8520E030E040E8F6
:104380005FE30E94F82C88230CF010E0112329F041
:1043900081E090E09E878D8746C011E069857A852F
:1043A0008B859C8520E03FEF4FE757E40E94422E2B
:1043B00018160CF010E0112361F16D817E818F8160
:1043C000988520E030E040E251E40E94462EDC0176
:1043D000CB01BC01CD010E94642DDC01CB019E8785
:1043E0008D8712C080E791E0988B8F878F859889A1
:1043F0008C01C8010197F1F78C01188B0F878D850F
:104400009E8501979E878D878D859E85009751F7A4
:1044100017C069857A858B859C850E94642DDC0197
:10442000CB019E878D878D859E859A8B898B898907
:104430009A898C01F8013197F1F78F011A8B098B5A
:1044400080912402909125028230910510F00E9403
:10445000BF23109232021092330280E390E09093D7
:1044600005028093040280E390E09093070280931A
:10447000060280E390E09093090280930802109274
:104480003402109235021092280280E380930302D6
:1044900080912402909125028432910509F0C6C0D2
:1044A00080912702813009F0C1C00E944A1280E049
:1044B00090E0AAEFB4E48B8B9C8BAD8BBE8B6B89A9
:1044C0007C898D899E8926E636E646E655E40E947B
:1044D000462EDC01CB018F8B988FA98FBA8F11E00C
:1044E0006F89788D898D9A8D20E030E040E85FE318
:1044F0000E94F82C88230CF010E0112329F081E0B1
:1045000090E09C8F8B8F46C011E06F89788D898DEC
:104510009A8D20E03FEF4FE757E40E94422E181695
:104520000CF010E0112361F16B897C898D899E89E3
:1045300020E030E040E251E40E94462EDC01CB0155
:10454000BC01CD010E94642DDC01CB019C8F8B8FBF
:1045500012C080E791E09E8F8D8F8D8D9E8D8C0196
:10456000C8010197F1F78C011E8F0D8F8B8D9C8DEB
:1045700001979C8F8B8F8B8D9C8D009751F717C067
:104580006F89788D898D9A8D0E94642DDC01CB0115
:104590009C8F8B8F8B8D9C8D98A38F8F8F8D98A1E7
:1045A0008C01F8013197F1F78F0118A30F8F0E944A
:1045B000F41B0E945B1082E08093270281E090E070
:1045C000909325028093240281E090E09093010271
:1045D000809300021A82198223C01C821B8216C09B
:1045E00029813A81C901880F991F880F991F820F6D
:1045F000931F2B813C81820F931F8A599D4FFC0191
:1046000010828B819C8101969C838B838B819C8102
:10461000853091052CF389819A8101969A8389834B
:1046200089819A8185309105C4F214C08091240259
:10463000909125028432910569F48091270282309D
:1046400049F480E060E00E94EA110E944A120E9450
:104650000411FDCF809124029091250226E030E0E4
:10466000B9010E94A92E9B01C90190932E0280934B
:104670002D02809124029091250226E030E0B901BC
:104680000E94A92E9093300280932F0280912D02D8
:1046900090912E028130910571F080912D029091C0
:1046A0002E028330910539F080912D0290912E02D7
:1046B0008530910531F580912F029091300200975D
:1046C00039F080912F02909130028130910541F4B0
:1046D0000E94F41B82E18093340282E180933502D0
:1046E00080912F029091300281309105E9F58091FF
:1046F00000029091010201969093010280930002C2
:1047000033C080912D0290912E028230910539F0B4
:1047100080912D0290912E028430910529F580918F
:104720002F0290913002009739F080912F029091E2
:1047300030028130910541F40E940B1C82E180938C
:10474000340282E18093350280912F0290913002F1
:104750008130910549F48091000290910102019607
:104760009093010280930002A0960FB6F894DEBFEA
:104770000FBECDBFDF91CF911F910F9108950F9381
:104780001F93CF93DF93CDB7DEB7C455D0400FB69C
:10479000F894DEBF0FBECDBF0E944A1280E060E0F9
:1047A0000E94EA1186EC90E020910202FC01208335
:1047B00080E090E0A8ECB2E489839A83AB83BC8369
:1047C00069817A818B819C8126E636E646E655E44E
:1047D0000E94462EDC01CB018D839E83AF83B88778
:1047E00011E06D817E818F81988520E030E040E886
:1047F0005FE30E94F82C88230CF010E0112329F0CD
:1048000081E090E09A87898746C011E06D817E81C2
:104810008F81988520E03FEF4FE757E40E94422EBA
:1048200018160CF010E0112361F169817A818B81F7
:104830009C8120E030E040E251E40E94462EDC0101
:10484000CB01BC01CD010E94642DDC01CB019A8714
:10485000898712C080E791E09C878B878B859C8538
:104860008C01C8010197F1F78C011C870B878985A2
:104870009A8501979A87898789859A85009751F744
:1048800017C06D817E818F8198850E94642DDC0127
:10489000CB019A87898789859A859E878D878D85A3
:1048A0009E858C01F8013197F1F78F011E870D87E6
:1048B00086EC90E02091080230910902FC012083EF
:1048C00080E090E0A8ECB2E48F87988BA98BBA8B3C
:1048D0006F85788989899A8926E636E646E655E421
:1048E0000E94462EDC01CB018B8B9C8BAD8BBE8B4B
:1048F00011E06B897C898D899E8920E030E040E859
:104900005FE30E94F82C88230CF010E0112329F0BB
:1049100081E090E0988F8F8B46C011E06B897C8995
:104920008D899E8920E03FEF4FE757E40E94422E99
:1049300018160CF010E0112361F16F8578898989D0
:104940009A8920E030E040E251E40E94462EDC01EA
:10495000CB01BC01CD010E94642DDC01CB01988FFD
:104960008F8B12C080E791E09A8F898F898D9A8D05
:104970008C01C8010197F1F78C011A8F098F8F897B
:10498000988D0197988F8F8B8F89988D009751F70D
:1049900017C06B897C898D899E890E94642DDC01FA
:1049A000CB01988F8F8B8F89988D9C8F8B8F8B8D60
:1049B0009C8D8C01F8013197F1F78F011C8F0B8FC3
:1049C00086EC90E02091040230910502FC012083E6
:1049D00080E090E0A8ECB2E48D8F9E8FAF8FB8A3FB
:1049E0006D8D7E8D8F8D98A126E636E646E655E4E0
:1049F0000E94462EDC01CB0189A39AA3ABA3BCA3E2
:104A000011E069A17AA18BA19CA120E030E040E8EF
:104A10005FE30E94F82C88230CF010E0112329F0AA
:104A200081E090E09EA38DA346C011E069A17AA128
:104A30008BA19CA120E03FEF4FE757E40E94422E5C
:104A400018160CF010E0112361F16D8D7E8D8F8DA5
:104A500098A120E030E040E251E40E94462EDC01C3
:104A6000CB01BC01CD010E94642DDC01CB019EA3D2
:104A70008DA312C080E791E098A78FA38FA198A57E
:104A80008C01C8010197F1F78C0118A70FA38DA124
:104A90009EA101979EA38DA38DA19EA1009751F782
:104AA00017C069A17AA18BA19CA10E94642DDC0191
:104AB000CB019EA38DA38DA19EA19AA789A789A5AD
:104AC0009AA58C01F8013197F1F78F011AA709A770
:104AD00086EC90E02091060230910702FC012083D1
:104AE00080E090E0A8ECB2E48BA79CA7ADA7BEA79E
:104AF0006BA57CA58DA59EA526E636E646E655E483
:104B00000E94462EDC01CB018FA798ABA9ABBAABB4
:104B100011E06FA578A989A99AA920E030E040E8C2
:104B20005FE30E94F82C88230CF010E0112329F099
:104B300081E090E09CAB8BAB46C011E06FA578A9FB
:104B400089A99AA920E03FEF4FE757E40E94422E3F
:104B500018160CF010E0112361F16BA57CA58DA552
:104B60009EA520E030E040E251E40E94462EDC01A8
:104B7000CB01BC01CD010E94642DDC01CB019CABBB
:104B80008BAB12C080E791E09EAB8DAB8DA99EA947
:104B90008C01C8010197F1F78C011EAB0DAB8BA9FD
:104BA0009CA901979CAB8BAB8BA99CA9009751F753
:104BB00017C06FA578A989A99AA90E94642DDC0164
:104BC000CB019CAB8BAB8BA99CA998AF8FAB8FA96A
:104BD00098AD8C01F8013197F1F78F0118AF0FAB49
:104BE00086EC90E020910302FC01208380E090E0BD
:104BF000A8ECB2E489AF9AAFABAFBCAF69AD7AAD08
:104C00008BAD9CAD26E636E646E655E40E94462E80
:104C1000DC01CB019E01235C3F4FF901808391832E
:104C2000A283B38311E0CE01CD96FC016081718136
:104C30008281938120E030E040E85FE30E94F82C1D
:104C400088230CF010E0112349F0CE018F5B9F4FB9
:104C500021E030E0FC01318320836EC011E0CE0101
:104C6000CD96FC01608171818281938120E03FEFCC
:104C70004FE757E40E94422E18160CF010E0112363
:104C800009F449C069AD7AAD8BAD9CAD20E030E050
:104C900040E251E40E94462EDC01CB018E010F5B05
:104CA0001F4FBC01CD010E94642DDC01CB01F80136
:104CB0009183808327C0CE018D5B9F4F20E731E039
:104CC000FC0131832083CE018D5B9F4FFC018081ED
:104CD00091818C01C8010197F1F78C01CE018D5BA8
:104CE0009F4FFC0111830083CE018F5B9F4F9E017C
:104CF0002F5B3F4FF9012081318121503040FC0171
:104D000031832083CE018F5B9F4FFC018081918195
:104D1000009789F62EC08E010F5B1F4FCE01CD96F6
:104D2000FC0160817181828193810E94642DDC018C
:104D3000CB01F80191838083CE018B5B9F4F9E0155
:104D40002F5B3F4FF90120813181FC0131832083AA
:104D5000CE018B5B9F4FFC01808191818C01C8014A
:104D60000197F1F78C01CE018B5B9F4FFC01118302
:104D7000008386EC90E020E2FC01208386EC90E04A
:104D800020E2FC0120839E01295B3F4F80E090E000
:104D9000AAE7B4E4F90180839183A283B3838E01EF
:104DA000055B1F4FCE01895B9F4FFC0160817181C4
:104DB0008281938126E636E646E655E40E94462E39
:104DC000DC01CB01F80180839183A283B383CE0100
:104DD000855B9F4F11E0FC0160817181828193812D
:104DE00020E030E040E85FE30E94F82C88230CF0DC
:104DF00010E0112349F0CE01815B9F4F21E030E0AC
:104E0000FC013183208374C0CE01855B9F4F11E08C
:104E1000FC01608171818281938120E03FEF4FE747
:104E200057E40E94422E18160CF010E0112309F4EA
:104E30004DC0CE01895B9F4FFC01608171818281F1
:104E4000938120E030E040E251E40E94462EDC01F4
:104E5000CB018E01015B1F4FBC01CD010E94642D6F
:104E6000DC01CB01F8019183808327C0CE018F5AEA
:104E70009F4F20E731E0FC0131832083CE018F5A20
:104E80009F4FFC01808191818C01C8010197F1F74E
:104E90008C01CE018F5A9F4FFC0111830083CE01FC
:104EA000815B9F4F9E01215B3F4FF9012081318142
:104EB00021503040FC0131832083CE01815B9F4F24
:104EC000FC0180819181009789F62FC08E01015BE2
:104ED0001F4FCE01855B9F4FFC01608171818281F4
:104EE00093810E94642DDC01CB01F80191838083C2
:104EF000CE018D5A9F4F9E01215B3F4FF9012081CA
:104F00003181FC0131832083CE018D5A9F4FFC01FA
:104F1000808191818C01C8010197F1F78C01CE014C
:104F20008D5A9F4FFC01118300838AEA6AEA0E942E
:104F3000EA11CC5ADF4F0FB6F894DEBF0FBECDBFDB
:104F4000DF91CF911F910F9108950F931F93CF93EE
:104F5000DF93CDB7DEB7C654D0400FB6F894DEBFAE
:104F60000FBECDBF0E94B70F0E9495000E94A10204
:104F70000E9497080E94FB1386E40E94291180E09A
:104F800090E0A8E4B3E489839A83AB83BC8369810E
:104F90007A818B819C8126E636E646E655E40E94BE
:104FA000462EDC01CB018D839E83AF83B88711E051
:104FB0006D817E818F81988520E030E040E85FE35D
:104FC0000E94F82C88230CF010E0112329F081E0D6
:104FD00090E09A87898746C011E06D817E818F813C
:104FE000988520E03FEF4FE757E40E94422E1816C5
:104FF0000CF010E0112361F169817A818B819C8131
:1050000020E030E040E251E40E94462EDC01CB017A
:10501000BC01CD010E94642DDC01CB019A878987F8
:1050200012C080E791E09C878B878B859C858C01E3
:10503000C8010197F1F78C011C870B8789859A8538
:1050400001979A87898789859A85009751F717C0B4
:105050006D817E818F8198850E94642DDC01CB015A
:105060009A87898789859A859E878D878D859E8574
:105070008C01F8013197F1F78F011E870D870E948F
:10508000771122E932E080ED65E7A9010E946C0109
:105090000E94CF1A80919202883609F409C181E0FA
:1050A00062E00E948C0C80E090E0A8E4B2E48F877C
:1050B000988BA98BBA8B6F85788989899A8926E61E
:1050C00036E646E655E40E94462EDC01CB018B8B8A
:1050D0009C8BAD8BBE8B11E06B897C898D899E8901
:1050E00020E030E040E85FE30E94F82C88230CF0D9
:1050F00010E0112329F081E090E0988F8F8B46C05B
:1051000011E06B897C898D899E8920E03FEF4FE714
:1051100057E40E94422E18160CF010E0112361F1A2
:105120006F85788989899A8920E030E040E251E4EE
:105130000E94462EDC01CB01BC01CD010E94642DF2
:10514000DC01CB01988F8F8B12C080E791E09A8FA2
:10515000898F898D9A8D8C01C8010197F1F78C0197
:105160001A8F098F8F89988D0197988F8F8B8F89D0
:10517000988D009751F717C06B897C898D899E891E
:105180000E94642DDC01CB01988F8F8B8F89988DC5
:105190009C8F8B8F8B8D9C8D8C01F8013197F1F753
:1051A0008F011C8F0B8F88E192E00E946D0C80E0D4
:1051B00090E0A8E4B2E48D8F9E8FAF8FB8A36D8D81
:1051C0007E8D8F8D98A126E636E646E655E40E9450
:1051D000462EDC01CB0189A39AA3ABA3BCA311E0AB
:1051E00069A17AA18BA19CA120E030E040E85FE3B7
:1051F0000E94F82C88230CF010E0112329F081E0A4
:1052000090E09EA38DA346C011E069A17AA18BA175
:105210009CA120E03FEF4FE757E40E94422E181672
:105220000CF010E0112361F16D8D7E8D8F8D98A1B2
:1052300020E030E040E251E40E94462EDC01CB0148
:10524000BC01CD010E94642DDC01CB019EA38DA386
:1052500012C080E791E098A78FA38FA198A58C0139
:10526000C8010197F1F78C0118A70FA38DA19EA18A
:1052700001979EA38DA38DA19EA1009751F717C002
:1052800069A17AA18BA19CA10E94642DDC01CB01B4
:105290009EA38DA38DA19EA19AA789A789A59AA552
:1052A0008C01F8013197F1F78F011AA709A7FFCFF9
:1052B00080ED6BE640E00E9421010E94CF1A80ED54
:1052C0006CE140E00E9421010E94CF1A80ED6BE169
:1052D00040E00E9421010E94CF1A81E080932702C2
:1052E00001C000000E94271680913602883140F0EC
:1052F00080913702883120F0809138028831C0F4E3
:1053000080913602873140F480913702883120F055
:1053100080913802883160F480913602883188F0BB
:1053200080913702883168F080913802873148F4E3
:1053300080912602882329F40E94602181E08093D5
:10534000260280913402853120F480913502853126
:1053500010F01092260280913B02803308F084C046
:105360000E944A1280E090E0A8E4B3E48BA79CA7D7
:10537000ADA7BEA76BA57CA58DA59EA526E636E6A6
:1053800046E655E40E94462EDC01CB018FA798AB80
:10539000A9ABBAAB11E06FA578A989A99AA920E0B9
:1053A00030E040E85FE30E94F82C88230CF010E026
:1053B000112329F081E090E09CAB8BAB46C011E05B
:1053C0006FA578A989A99AA920E03FEF4FE757E494
:1053D0000E94422E18160CF010E0112361F16BA50B
:1053E0007CA58DA59EA520E030E040E251E40E941E
:1053F000462EDC01CB01BC01CD010E94642DDC01F5
:10540000CB019CAB8BAB12C080E791E09EAB8DAB28
:105410008DA99EA98C01C8010197F1F78C011EABE3
:105420000DAB8BA99CA901979CAB8BAB8BA99CA9BD
:10543000009751F717C06FA578A989A99AA90E946A
:10544000642DDC01CB019CAB8BAB8BA99CA998AFE5
:105450008FAB8FA998AD8C01F8013197F1F78F01CF
:1054600018AF0FAB0E94092180913E02853648F1AA
:1054700080913E02803A28F580913202882309F516
:10548000809134028A31E8F0809134028832C8F485
:1054900081E08093320284E00E9488118093390277
:1054A00080913902833968F40E944A120E94AE1733
:1054B00082E0809332020E9422128CE86CE80E9403
:1054C000EA118DE00E94881180933F0280913F0293
:1054D000813348F180913F02843628F58091330270
:1054E000882309F5809135028A31E8F080913502F0
:1054F0008832C8F481E08093330288E00E948811EA
:1055000080933D0280913D02883968F40E944A12DE
:105510000E94AE1782E0809333020E9422128CE830
:105520006CE80E94EA1180912C02882309F0EEC0F9
:1055300080912802882309F0E9C0809139028436DD
:1055400008F0E4C080913D02843608F0DFC080910D
:105550003402833008F4DAC0809134028C3308F0CE
:10556000D5C081E080932C0281E08093280284E3FF
:10557000809303020E945B108FE50E94291180E056
:1055800090E0A8ECB2E489AF9AAFABAFBCAF69AD25
:105590007AAD8BAD9CAD26E636E646E655E40E9434
:1055A000462EDC01CB019E01235C3F4FF901808335
:1055B0009183A283B38311E0CE01CD96FC0160817B
:1055C00071818281938120E030E040E85FE30E94B6
:1055D000F82C88230CF010E0112349F0CE018F5BEA
:1055E0009F4F21E030E0FC01318320836EC011E049
:1055F000CE01CD96FC01608171818281938120E092
:105600003FEF4FE757E40E94422E18160CF010E0CF
:10561000112309F449C069AD7AAD8BAD9CAD20E092
:1056200030E040E251E40E94462EDC01CB018E01C5
:105630000F5B1F4FBC01CD010E94642DDC01CB012B
:10564000F8019183808327C0CE018D5B9F4F20E7B7
:1056500031E0FC0131832083CE018D5B9F4FFC0143
:10566000808191818C01C8010197F1F78C01CE01F5
:105670008D5B9F4FFC0111830083CE018F5B9F4F99
:105680009E012F5B3F4FF901208131812150304035
:10569000FC0131832083CE018F5B9F4FFC01808111
:1056A0009181009789F62EC08E010F5B1F4FCE01AE
:1056B000CD96FC0160817181828193810E94642D6D
:1056C000DC01CB01F80191838083CE018B5B9F4F7E
:1056D0009E012F5B3F4FF90120813181FC01318315
:1056E0002083CE018B5B9F4FFC01808191818C01D7
:1056F000C8010197F1F78C01CE018B5B9F4FFC0134
:10570000118300830E9477110E94F0190E942716CE
:1057100080913602873188F480913702883168F0B1
:1057200080913802873148F485E090E00E9471133F
:105730008AEA6AEA0E94EA1146C0809136028731FD
:10574000D0F4809137028731B0F4809138028831EB
:1057500090F086E090E00E94E51286E966E90E94FA
:10576000EA1182E00E94881180933702809137020B
:10577000883148F1CDCF809136028831D0F08091C8
:1057800037028731B0F480913802873190F486E097
:1057900090E00E94D21286E966E90E94EA1182E056
:1057A0000E9488118093370280913702883158F027
:1057B000AFCF8AE090E00E9471138AEA6AEA0E9401
:1057C000EA110E9427160E9456168091290288230A
:1057D00009F04CC080912802882309F047C08091CD
:1057E0005C0290915D02A0915E02B0915F0211E0B7
:1057F000BC01CD0120E030E040EF51E40E94422E98
:1058000018160CF010E0112389F180915C02909140
:105810005D02A0915E02B0915F0211E0BC01CD017A
:1058200020E030E048E452E40E94F82C88230CF099
:1058300010E01123D9F0809135028331B8F08091C6
:105840002402909125028F30910581F480912702E6
:10585000823061F481E08093290281E08093280204
:105860000E945B1081E3809303023BCD80912A026A
:10587000882309F036CD8091540290915502A09171
:105880005602B091570211E0BC01CD0120E030E892
:105890004BE355E40E94422E18160CF010E0112341
:1058A00009F41FCD8091540290915502A0915602A7
:1058B000B091570211E0BC01CD0120E030E04AE791
:1058C00055E40E94F82C88230CF010E0112309F411
:1058D00008CD80913502853108F403CD80913502E1
:1058E0008E3108F0FECC8091240290912502803107
:1058F000910541F080912402909125028B31910510
:1059000009F0EFCC80912702823009F0EACC81E0E7
:1059100080932A0281E0809328020E945B1082E338
:1059200080930302DECC5058BB27AA270ED070C14B
:1059300061D130F066D120F031F49F3F11F41EF4B4
:1059400056C10EF4E095E7FB4CC1E92F72D180F30C
:10595000BA17620773078407950718F071F49EF56C
:105960008AC10EF4E0950B2EBA2FA02D0B01B901C0
:1059700090010C01CA01A0011124FF27591B99F0C5
:10598000593F50F4503E68F11A16F040A22F232FD1
:10599000342F4427585FF3CF469537952795A79521
:1059A000F0405395C9F77EF41F16BA0B620B730BC8
:1059B000840BBAF09150A1F0FF0FBB1F661F771F39
:1059C000881FC2F70EC0BA0F621F731F841F48F4EE
:1059D000879577956795B795F7959E3F08F0B3CF74
:1059E0009395880F08F09927EE0F9795879508955E
:1059F000D4D008F481E008950CD00AC102D140F05F
:105A0000F9D030F021F45F3F19F0EBC0511134C1EF
:105A1000EEC00FD198F39923C9F35523B1F3951B29
:105A2000550BBB27AA2762177307840738F09F5FBF
:105A30005F4F220F331F441FAA1FA9F333D00E2E2E
:105A40003AF0E0E830D091505040E695001CCAF79B
:105A500029D0FE2F27D0660F771F881FBB1F261760
:105A600037074807AB07B0E809F0BB0B802DBF0133
:105A7000FF2793585F4F2AF09E3F510568F0B1C051
:105A8000FBC05F3FECF3983EDCF386957795679516
:105A9000B795F7959F5FC9F7880F911D96958795E4
:105AA00097F90895E1E0660F771F881FBB1F621703
:105AB00073078407BA0720F0621B730B840BBA0BC1
:105AC000EE1F88F7E0950895BCD088F09F5790F0BE
:105AD000B92F9927B751A0F0D1F0660F771F881F13
