:100000000C9472000C9493000C9493000C94930045
:100010000C942A100C94FA0F0C94CA0F0C949300B1
:100020000C9493000C9493000C9493000C94930004
:100030000C9493000C9493000C9493000C949300F4
:100040000C9493000C9493000C9493000C949300E4
:100050000C9493000C9493000C9493000C949300D4
:100060000C9493000C9493000C9493000C949300C4
:100070000C9493000C9493000C9493000C949300B4
:100080000C9493000C9493000C9493000C949300A4
:100090000C9493000C9493000C9493000C94930094
:1000A0000C9493000C9493000C9493000C94930084
:1000B0000C9493000C9493000C9493000C94930074
:1000C0000C9493000C9493000C9493000C94930064
:1000D0000C9493000C9493000C9493000C94930054
:1000E0000C94930011241FBECFEFD1E2DEBFCDBF31
:1000F00000E00CBF12E0A0E0B2E0E8EDF5E900E0BE
:100100000BBF02C007900D92A632B107D9F712E0DB
:10011000A6E2B2E001C01D92AC39B107E1F70E943E
:1001200006400C94EA4A0C940000CF93DF93CDB7BD
:10013000DEB789EB90E0FC0110828CEB90E0FC01D3
:1001400010828CEB90E024ECFC01208388EB90E0A3
:100150002AE0FC012083DF91CF910895CF93DF93B4
:10016000CDB7DEB78CEB90E02CEB30E0F9012081CD
:100170002066FC012083DF91CF910895CF93DF9318
:10018000CDB7DEB78CEB90E02CEB30E0F9012081AD
:100190002068FC012083DF91CF910895CF93DF93F6
:1001A000CDB7DEB700008CEB90E0FC0180818823A6
:1001B000D4F7DF91CF910895CF93DF93CDB7DEB71A
:1001C0008CEB90E02CEB30E0F90120812061FC0108
:1001D0002083DF91CF910895CF93DF930F92CDB716
:1001E000DEB789EB90E0FC018081887F898389817B
:1001F0000F90DF91CF910895CF93DF930F92CDB7FA
:10020000DEB789838BEB90E02981FC0120830F907E
:10021000DF91CF910895CF93DF930F920F92CDB7D7
:10022000DEB79A8389838BEB90E0FC018081282FD5
:1002300089819A81FC0120830F900F90DF91CF91EB
:100240000895CF93DF9300D0CDB7DEB789836A835B
:100250004B830E94AE000E94CE000E94EC008830CA
:1002600011F088EF33C089810E94FC008CEB90E094
:100270002CEB30E0F90120812F7DFC0120830E94CE
:10028000BE000E94CE000E94EC00883111F089EF80
:100290001DC08A810E94FC000E94BE000E94CE0008
:1002A0000E94EC00883211F08BEF10C08B810E940D
:1002B000FC000E94BE000E94CE000E94EC0088322A
:1002C00011F08BEF03C00E94DC0080E00F900F90D4
:1002D0000F90DF91CF910895CF93DF9300D00F92CD
:1002E000CDB7DEB789836A835C834B830E94AE00FF
:1002F0000E94CE000E94EC00883011F088EF5EC0B2
:1003000089810E94FC008CEB90E02CEB30E0F9013D
:1003100020812F7DFC0120830E94BE000E94CE0020
:100320000E94EC00883111F089EF48C08A810E9458
:10033000FC000E94BE000E94CE000E94EC008832A9
:1003400011F08BEF3BC00E94AE000E94CE000E94D5
:10035000EC00803111F08DEF31C0898181600E9405
:10036000FC008CEB90E02CEB30E0F90120812F7D3C
:10037000FC0120830E94BE000E94CE000E94EC007F
:10038000803411F08AEF1AC08CEB90E02CEB30E057
:10039000F90120812F7BFC0120830E94BE000E9476
:1003A000CE000E94EC00883511F08CEF07C08B81E5
:1003B0009C810E940B010E94DC0080E00F900F9056
:1003C0000F900F90DF91CF910895CF93DF93CDB72A
:1003D000DEB728970FB6F894DEBF0FBECDBF8B8374
:1003E0006C835E834D8338872F830E94AE000E940A
:1003F000CE000E94EC00883011F088EF99C08B810C
:100400000E94FC008CEB90E02CEB30E0F9012081A5
:100410002F7DFC0120830E94BE000E94CE000E941E
:10042000EC00883111F089EF83C08C8180680E94D4
:10043000FC000E94BE000E94CE000E94EC008832A8
:1004400011F08BEF75C00E94AE000E94CE000E949A
:10045000EC00803111F08DEF6BC08B8181600E94C8
:10046000FC008CEB90E02CEB30E0F90120812F7D3B
:10047000FC0120830E94BE000E94CE000E94EC007E
:10048000803411F08AEF54C01A82198246C08D81DF
:100490009E819C012150304089819A81281739071B
:1004A000E1F48CEB90E02CEB30E0F90120812F7B24
:1004B000FC0120830E94BE000E94CE000E94EC003E
:1004C000883511F08FEF34C02F81388589819A816A
:1004D000820F931F0E940B011BC08CEB90E02CEB52
:1004E00030E0F90120812064FC0120830E94BE00DD
:1004F0000E94CE000E94EC00803511F08EEF18C0F3
:100500002F81388589819A81820F931F0E940B0168
:1005100089819A8101969A83898329813A818D8183
:100520009E812817390708F4B2CF0E94DC0080E0D2
:1005300028960FB6F894DEBF0FBECDBFDF91CF91E6
:1005400008950F931F93CF93DF93CDB7DEB7C057B6
:10055000D0400FB6F894DEBF0FBECDBF80E090E074
:10056000A0E8BFE389839A83AB83BC8369817A81E6
:100570008B819C8126E636E646E655E40E94734A66
:10058000DC01CB018D839E83AF83B88711E06D8141
:100590007E818F81988520E030E040E85FE30E9413
:1005A000254988230CF010E0112329F081E090E028
:1005B0009A87898746C011E06D817E818F819885F9
:1005C00020E03FEF4FE757E40E946F4A18160CF007
:1005D00010E0112361F169817A818B819C8120E097
:1005E00030E040E251E40E94734ADC01CB01BC01DF
:1005F000CD010E949149DC01CB019A87898712C005
:1006000080E791E09C878B878B859C858C01C80156
:100610000197F1F78C011C870B8789859A850197D3
:100620009A87898789859A85009751F717C06D81C8
:100630007E818F8198850E949149DC01CB019A8748
:10064000898789859A859E878D878D859E858C0172
:10065000F8013197F1F78F011E870D8788E290E04E
:1006600028E230E0F90120812E7FFC01208388E21E
:1006700090E028E230E0F90120812D7FFC01208309
:1006800088E290E020E3FC01208388E290E028E209
:1006900030E0F90120812460FC01208380E090E0BB
:1006A000A0EAB0E48F87988BA98BBA8B6F85788985
:1006B00089899A8926E636E646E655E40E94734A19
:1006C000DC01CB018B8B9C8BAD8BBE8B11E06B89DE
:1006D0007C898D899E8920E030E040E85FE30E94BC
:1006E000254988230CF010E0112329F081E090E0E7
:1006F000988F8F8B46C011E06B897C898D899E898C
:1007000020E03FEF4FE757E40E946F4A18160CF0C5
:1007100010E0112361F16F85788989899A8920E039
:1007200030E040E251E40E94734ADC01CB01BC019D
:10073000CD010E949149DC01CB01988F8F8B12C0B3
:1007400080E791E09A8F898F898D9A8D8C01C801FD
:100750000197F1F78C011A8F098F8F89988D019776
:10076000988F8F8B8F89988D009751F717C06B8961
:100770007C898D899E890E949149DC01CB01988FEB
:100780008F8B8F89988D9C8F8B8F8B8D9C8D8C01FF
:10079000F8013197F1F78F011C8F0B8F88E290E001
:1007A00028E230E0F90120812B7FFC01208380E0EA
:1007B00090E0A0E8BFE38D8F9E8FAF8FB8A36D8DC3
:1007C0007E8D8F8D98A126E636E646E655E40E949A
:1007D000734ADC01CB0189A39AA3ABA3BCA311E0AC
:1007E00069A17AA18BA19CA120E030E040E85FE301
:1007F0000E94254988230CF010E0112329F081E0A4
:1008000090E09EA38DA346C011E069A17AA18BA1BF
:100810009CA120E03FEF4FE757E40E946F4A181673
:100820000CF010E0112361F16D8D7E8D8F8D98A1FC
:1008300020E030E040E251E40E94734ADC01CB0149
:10084000BC01CD010E949149DC01CB019EA38DA387
:1008500012C080E791E098A78FA38FA198A58C0183
:10086000C8010197F1F78C0118A70FA38DA19EA1D4
:1008700001979EA38DA38DA19EA1009751F717C04C
:1008800069A17AA18BA19CA10E949149DC01CB01B5
:100890009EA38DA38DA19EA19AA789A789A59AA59C
:1008A0008C01F8013197F1F78F011AA709A788E2A7
:1008B00090E028E230E0F90120812E7FFC012083C6
:1008C00088E290E028E230E0F90120812D7FFC01F0
:1008D000208388E290E020E3FC01208388E290E01E
:1008E00028E230E0F90120812460FC01208380E0CF
:1008F00090E0A0EAB0E48BA79CA7ADA7BEA76BA52C
:100900007CA58DA59EA526E636E646E655E40E9422
:10091000734ADC01CB018FA798ABA9ABBAAB11E04E
:100920006FA578A989A99AA920E030E040E85FE3A3
:100930000E94254988230CF010E0112329F081E062
:1009400090E09CAB8BAB46C011E06FA578A989A95C
:100950009AA920E03FEF4FE757E40E946F4A18162C
:100960000CF010E0112361F16BA57CA58DA59EA56F
:1009700020E030E040E251E40E94734ADC01CB0108
:10098000BC01CD010E949149DC01CB019CAB8BAB3A
:1009900012C080E791E09EAB8DAB8DA99EA98C0122
:1009A000C8010197F1F78C011EAB0DAB8BA99CA977
:1009B00001979CAB8BAB8BA99CA9009751F717C0F3
:1009C0006FA578A989A99AA90E949149DC01CB0158
:1009D0009CAB8BAB8BA99CA998AF8FAB8FA998AD23
:1009E0008C01F8013197F1F78F0118AF0FAB88E256
:1009F00090E028E230E0F90120812B7FFC01208388
:100A000080E090E0A0E8BFE389AF9AAFABAFBCAFA6
:100A100069AD7AAD8BAD9CAD26E636E646E655E48B
:100A20000E94734ADC01CB019E01235C3F4FF90118
:100A300080839183A283B38311E0CE01CD96FC0124
:100A4000608171818281938120E030E040E85FE342
:100A50000E94254988230CF010E0112349F0CE01B3
:100A60008F5B9F4F21E030E0FC01318320836EC01B
:100A700011E0CE01CD96FC0160817181828193816C
:100A800020E03FEF4FE757E40E946F4A18160CF042
:100A900010E0112309F449C069AD7AAD8BAD9CAD6E
:100AA00020E030E040E251E40E94734ADC01CB01D7
:100AB0008E010F5B1F4FBC01CD010E949149DC01EB
:100AC000CB01F8019183808327C0CE018D5B9F4FBE
:100AD00020E731E0FC0131832083CE018D5B9F4F05
:100AE000FC01808191818C01C8010197F1F78C0193
:100AF000CE018D5B9F4FFC0111830083CE018F5B84
:100B00009F4F9E012F5B3F4FF90120813181215082
:100B10003040FC0131832083CE018F5B9F4FFC016D
:100B200080819181009789F62EC08E010F5B1F4F47
:100B3000CE01CD96FC0160817181828193810E94FA
:100B40009149DC01CB01F80191838083CE018B5B5D
:100B50009F4F9E012F5B3F4FF90120813181FC01A6
:100B600031832083CE018B5B9F4FFC01808191817B
:100B70008C01C8010197F1F78C01CE018B5B9F4F6F
:100B8000FC011183008388E290E028E230E0F90163
:100B900020812E7FFC01208388E290E028E230E073
:100BA000F90120812D7FFC01208388E290E020E381
:100BB000FC01208388E290E028E230E0F901208106
:100BC0002460FC0120839E01295B3F4F80E090E080
:100BD000A0EAB0E4F90180839183A283B3838E01FC
:100BE000055B1F4FCE01895B9F4FFC0160817181C6
:100BF0008281938126E636E646E655E40E94734AF2
:100C0000DC01CB01F80180839183A283B383CE0101
:100C1000855B9F4F11E0FC0160817181828193812E
:100C200020E030E040E85FE30E94254988230CF093
:100C300010E0112349F0CE01815B9F4F21E030E0AD
:100C4000FC013183208374C0CE01855B9F4F11E08E
:100C5000FC01608171818281938120E03FEF4FE749
:100C600057E40E946F4A18160CF010E0112309F4A3
:100C70004DC0CE01895B9F4FFC01608171818281F3
:100C8000938120E030E040E251E40E94734ADC01AD
:100C9000CB018E01015B1F4FBC01CD010E94914928
:100CA000DC01CB01F8019183808327C0CE018F5AEC
:100CB0009F4F20E731E0FC0131832083CE018F5A22
:100CC0009F4FFC01808191818C01C8010197F1F750
:100CD0008C01CE018F5A9F4FFC0111830083CE01FE
:100CE000815B9F4F9E01215B3F4FF9012081318144
:100CF00021503040FC0131832083CE01815B9F4F26
:100D0000FC0180819181009789F62FC08E01015BE3
:100D10001F4FCE01855B9F4FFC01608171818281F5
:100D200093810E949149DC01CB01F801918380837A
:100D3000CE018D5A9F4F9E01215B3F4FF9012081CB
:100D40003181FC0131832083CE018D5A9F4FFC01FC
:100D5000808191818C01C8010197F1F78C01CE014E
:100D60008D5A9F4FFC011183008388E290E028E2B6
:100D700030E0F90120812B7FFC0120839E012B5A5A
:100D80003F4F80E090E0A0E8BFE3F90180839183CA
:100D9000A283B3838E01075A1F4FCE018B5A9F4FF8
:100DA000FC01608171818281938126E636E646E608
:100DB00055E40E94734ADC01CB01F80180839183E2
:100DC000A283B383CE01875A9F4F11E0FC0160815B
:100DD00071818281938120E030E040E85FE30E94EE
:100DE000254988230CF010E0112349F0CE01835AE5
:100DF0009F4F21E030E0FC013183208374C0CE019D
:100E0000875A9F4F11E0FC0160817181828193813B
:100E100020E03FEF4FE757E40E946F4A18160CF0AE
:100E200010E0112309F44DC0CE018B5A9F4FFC01F5
:100E3000608171818281938120E030E040E251E461
:100E40000E94734ADC01CB018E01035A1F4FBC0183
:100E5000CD010E949149DC01CB01F801918380838F
:100E600027C0CE01815A9F4F20E731E0FC0131833A
:100E70002083CE01815A9F4FFC01808191818C019A
:100E8000C8010197F1F78C01CE01815A9F4FFC01F7
:100E900011830083CE01835A9F4F9E01235A3F4FF7
:100EA000F9012081318121503040FC0131832083C0
:100EB000CE01835A9F4FFC0180819181009789F672
:100EC0002FC08E01035A1F4FCE01875A9F4FFC013E
:100ED00060817181828193810E949149DC01CB0103
:100EE000F80191838083CE018F599F4F9E01235A31
:100EF0003F4FF90120813181FC0131832083CE01F4
:100F00008F599F4FFC01808191818C01C80101970D
:100F1000F1F78C01CE018F599F4FFC0111830083A3
:100F200088E290E028E230E0F90120812E7FFC0188
:100F3000208388E290E028E230E0F90120812D7FD3
:100F4000FC01208388E290E020E2FC01208388E21B
:100F500090E028E230E0F90120812460FC01208348
:100F60009E012D593F4F80E090E0A0EAB0E4F901E6
:100F700080839183A283B3838E0109591F4FCE01D1
:100F80008D599F4FFC01608171818281938126E69A
:100F900036E646E655E40E94734ADC01CB01F801CF
:100FA00080839183A283B383CE0189599F4F11E03F
:100FB000FC01608171818281938120E030E040E812
:100FC0005FE30E94254988230CF010E0112349F0CB
:100FD000CE0185599F4F21E030E0FC013183208311
:100FE00074C0CE0189599F4F11E0FC01608171816D
:100FF0008281938120E03FEF4FE757E40E946F4AE0
:1010000018160CF010E0112309F44DC0CE018D59D3
:101010009F4FFC01608171818281938120E030E0EB
:1010200040E251E40E94734ADC01CB018E01055974
:101030001F4FBC01CD010E949149DC01CB01F80199
:101040009183808327C0CE0183599F4F20E731E0F1
:10105000FC0131832083CE0183599F4FFC018081A5
:1010600091818C01C8010197F1F78C01CE01835960
:101070009F4FFC0111830083CE0185599F4F9E0134
:1010800025593F4FF9012081318121503040FC0129
:1010900031832083CE0185599F4FFC01808191814E
:1010A000009789F62FC08E0105591F4FCE0189592F
:1010B0009F4FFC0160817181828193810E949149DF
:1010C000DC01CB01F80191838083CE0181599F4FD0
:1010D0009E0125593F4FF90120813181FC01318367
:1010E0002083CE0181599F4FFC01808191818C0129
:1010F000C8010197F1F78C01CE0181599F4FFC0186
:101100001183008388E290E028E230E0F901208139
:101110002B7FFC012083C059DF4F0FB6F894DEBF50
:101120000FBECDBFDF91CF911F910F9108950F9307
:101130001F93CF93DF93CDB7DEB72E970FB6F894FA
:10114000DEBF0FBECDBF0E94A10280E090E0A0E80C
:10115000BFE389839A83AB83BC8369817A818B8166
:101160009C8126E636E646E655E40E94734ADC0199
:10117000CB018D839E83AF83B88711E06D817E8123
:101180008F81988520E030E040E85FE30E942549A8
:1011900088230CF010E0112329F081E090E09A8779
:1011A000898746C011E06D817E818F81988520E01E
:1011B0003FEF4FE757E40E946F4A18160CF010E01B
:1011C000112361F169817A818B819C8120E030E07B
:1011D00040E251E40E94734ADC01CB01BC01CD0125
:1011E0000E949149DC01CB019A87898712C080E770
:1011F00091E09C878B878B859C858C01C80101972A
:10120000F1F78C011C870B8789859A8501979A874E
:10121000898789859A85009751F717C06D817E81EE
:101220008F8198850E949149DC01CB019A8789873B
:1012300089859A859E878D878D859E858C01C801BD
:101240000197F1F78C011E870D8788E20E943F0904
:1012500081E00E943F0986E00E943F098EE00E94E3
:101260003F0980E80E943F092E960FB6F894DEBF32
:101270000FBECDBFDF91CF911F910F9108950F93B6
:101280001F93CF93DF93CDB7DEB76E970FB6F89469
:10129000DEBF0FBECDBF8E8F8E8D89838981807F0B
:1012A000898388E290E028E230E0F90120812F7004
:1012B000FC01208388E290E028E230E0F9013081EF
:1012C0002981232BFC01208388E290E028E230E092
:1012D000F90120812E7FFC01208388E290E028E242
:1012E00030E0F90120812D7FFC01208388E290E02D
:1012F00028E230E0F90120812460FC01208380E0B5
:1013000090E0A0EAB0E48A839B83AC83BD836A81CA
:101310007B818C819D8126E636E646E655E40E9477
:10132000734ADC01CB018E839F83A887B98711E0C4
:101330006E817F818885998520E030E040E85FE319
:101340000E94254988230CF010E0112329F081E048
:1013500090E09B878A8746C011E06E817F818885F7
:10136000998520E03FEF4FE757E40E946F4A181637
:101370000CF010E0112361F16A817B818C819D81E9
:1013800020E030E040E251E40E94734ADC01CB01EE
:10139000BC01CD010E949149DC01CB019B878A876A
:1013A00012C080E791E09D878C878C859D858C019C
:1013B000C8010197F1F78C011D870C878A859B85F1
:1013C00001979B878A878A859B85009751F717C06D
:1013D0006E817F81888599850E949149DC01CB01CE
:1013E0009B878A878A859B859F878E878E859F8529
:1013F0008C01F8013197F1F78F011F870E8788E282
:1014000090E028E230E0F90120812B7FFC0120836D
:101410008E8D8F708E8F8E8D8295807F8E8F88E2DD
:1014200090E028E230E0F90120812F70FC01208358
:1014300088E290E028E230E0F90130812E8D232B04
:10144000FC01208388E290E028E230E0F90120816D
:101450002E7FFC01208388E290E028E230E0F90151
:1014600020812D7FFC01208388E290E028E230E09B
:10147000F90120812460FC01208380E090E0A0EA53
:10148000B0E4888B998BAA8BBB8B688979898A8910
:101490009B8926E636E646E655E40E94734ADC015F
:1014A000CB018C8B9D8BAE8BBF8B11E06C897D89C2
:1014B0008E899F8920E030E040E85FE30E94254963
:1014C00088230CF010E0112329F081E090E0998F3F
:1014D000888F46C011E06C897D898E899F8920E0C4
:1014E0003FEF4FE757E40E946F4A18160CF010E0E8
:1014F000112361F1688979898A899B8920E030E02C
:1015000040E251E40E94734ADC01CB01BC01CD01F1
:101510000E949149DC01CB01998F888F12C080E72E
:1015200091E09B8F8A8F8A8D9B8D8C01C8010197DA
:10153000F1F78C011B8F0A8F888D998D0197998FF8
:10154000888F888D998D009751F717C06C897D8998
:101550008E899F890E949149DC01CB01998F888FE8
:10156000888D998D9D8F8C8F8C8D9D8D8C01F80130
:101570003197F1F78F011D8F0C8F88E290E028E200
:1015800030E0F90120812B7FFC0120836E960FB69D
:10159000F894DEBF0FBECDBFDF91CF911F910F91A9
:1015A00008950F931F93CF93DF93CDB7DEB76E9758
:1015B0000FB6F894DEBF0FBECDBF8E8F8E8D8983A0
:1015C0008981807F898388E290E028E230E0F90118
:1015D00020812F70FC01208388E290E028E230E037
:1015E000F90130812981232BFC01208388E290E0DE
:1015F00028E230E0F90120812160FC01208388E2AB
:1016000090E028E230E0F90120812D7FFC01208369
:1016100088E290E028E230E0F90120812460FC01BA
:10162000208380E090E0A0EAB0E48A839B83AC83CF
:10163000BD836A817B818C819D8126E636E646E604
:1016400055E40E94734ADC01CB018E839F83A887F7
:10165000B98711E06E817F818885998520E030E02F
:1016600040E85FE30E94254988230CF010E0112335
:1016700029F081E090E09B878A8746C011E06E8167
:101680007F818885998520E03FEF4FE757E40E94EE
:101690006F4A18160CF010E0112361F16A817B810A
:1016A0008C819D8120E030E040E251E40E94734A49
:1016B000DC01CB01BC01CD010E949149DC01CB01D1
:1016C0009B878A8712C080E791E09D878C878C85F5
:1016D0009D858C01C8010197F1F78C011D870C874E
:1016E0008A859B8501979B878A878A859B8500973A
:1016F00051F717C06E817F81888599850E94914935
:10170000DC01CB019B878A878A859B859F878E8793
:101710008E859F858C01F8013197F1F78F011F8726
:101720000E8788E290E028E230E0F90120812B7FEB
:10173000FC0120838E8D8F708E8F8E8D8295807FA1
:101740008E8F88E290E028E230E0F90120812F704E
:10175000FC01208388E290E028E230E0F90130814A
:101760002E8D232BFC01208388E290E028E230E0DC
:10177000F90120812160FC01208388E290E028E2C9
:1017800030E0F90120812D7FFC01208388E290E088
:1017900028E230E0F90120812460FC01208380E010
:1017A00090E0A0EAB0E4888B998BAA8BBB8B688908
:1017B00079898A899B8926E636E646E655E40E94C1
:1017C000734ADC01CB018C8B9D8BAE8BBF8B11E000
:1017D0006C897D898E899F8920E030E040E85FE355
:1017E0000E94254988230CF010E0112329F081E0A4
:1017F00090E0998F888F46C011E06C897D898E8931
:101800009F8920E03FEF4FE757E40E946F4A181688
:101810000CF010E0112361F1688979898A899B892C
:1018200020E030E040E251E40E94734ADC01CB0149
:10183000BC01CD010E949149DC01CB01998F888FB9
:1018400012C080E791E09B8F8A8F8A8D9B8D8C01DF
:10185000C8010197F1F78C011B8F0A8F888D998D34
:101860000197998F888F888D998D009751F717C0B0
:101870006C897D898E899F890E949149DC01CB0109
:10188000998F888F888D998D9D8F8C8F8C8D9D8D54
:101890008C01F8013197F1F78F011D8F0C8F88E2D1
:1018A00090E028E230E0F90120812B7FFC012083C9
:1018B0006E960FB6F894DEBF0FBECDBFDF91CF910D
:1018C0001F910F910895CF93DF93CDB7DEB780E8D6
:1018D0000E943F09DF91CF910895CF93DF930F923C
:1018E0000F92CDB7DEB79A8389830BC089819A8125
:1018F000FC0180810E94D10A89819A8101969A8394
:10190000898389819A81FC018081882379F70F90EE
:101910000F90DF91CF910895CF93DF930F920F92A5
:10192000CDB7DEB789836A838981882F90E08230C2
:10193000910599F08330910524F48130910541F0AF
:101940001BC08330910571F08430910581F014C083
:101950008A8181580E943F0910C08A8181540E9467
:101960003F090BC08A818D560E943F0906C08A81BB
:101970008D520E943F0901C000000F900F90DF912F
:10198000CF910895CF93DF93CDB7DEB727970FB6EA
:10199000F894DEBF0FBECDBF8A836B835D834C831B
:1019A0003F832E8319828A81882319F08B818823B3
:1019B00019F40E94630C04C08A816B810E948C0C14
:1019C0008E819F818530910519F089818130B1F434
:1019D0008C819D8120E137E2B9010E94D64A9B01AA
:1019E000C901C09690938102809380028091800209
:1019F000909181020E94D10A81E089838E819F812A
:101A00008430910519F08981813019F58C819D818F
:101A100028EE33E0B9010E94D64A9B01C901909398
:101A200083028093820280918202909183022AE055
:101A300030E0B9010E94D64AC09690939B028093F1
:101A40009A0280919A0290919B020E94D10A81E0B1
:101A500089838E819F818330910519F0898181303E
:101A600019F58C819D8124E630E0B9010E94D64AA7
:101A70009B01C9019093830280938202809182022C
:101A8000909183022AE030E0B9010E94D64AC096C4
:101A90009093950280939402809194029091950284
:101AA0000E94D10A81E089838E819F8182309105D5
:101AB00019F08981813019F58C819D812AE030E00F
:101AC000B9010E94D64A9B01C90190938302809379
:101AD000820280918202909183022AE030E0B90173
:101AE0000E94D64AC0969093900280938F02809174
:101AF0008F02909190020E94D10A81E089838E81A9
:101B00009F818130910519F08981813091F48C8118
:101B10009D812AE030E0B9010E94D64AC096909398
:101B200099028093980280919802909199020E9464
:101B3000D10A8E819F81863091051CF085E40E9438
:101B4000D10A27960FB6F894DEBF0FBECDBFDF9146
:101B5000CF910895CF93DF93CDB7DEB787E290E0C2
:101B600027E230E0F90120812860FC01208388E22F
:101B700090E028E230E0F9012081277FFC012083FA
:101B8000DF91CF910895CF93DF93CDB7DEB78DE28C
:101B900090E02DE230E0F90120812F7EFC012083CE
:101BA0008EE290E02EE230E0F90120812061FC011C
:101BB0002083DF91CF910895CF93DF93CDB7DEB728
:101BC0008DE290E02DE230E0F90120812F7DFC01D3
:101BD00020838EE290E02EE230E0F9012081206245
:101BE000FC012083DF91CF910895CF93DF93CDB790
:101BF000DEB787E290E027E230E0F9012081276F2D
:101C0000FC01208388E290E028E230E0F9012081A5
:101C10002078FC012083DF91CF910895CF93DF934B
:101C2000CDB7DEB780E390E0FC01108281E390E065
:101C3000FC01108287E091E0FC01108288E091E0D5
:101C4000FC011082DF91CF910895CF93DF93CDB740
:101C5000DEB781E290E021E230E0F90120812F60DF
:101C6000FC01208382E290E022E230E0F901208151
:101C7000207FFC0120838AE091E02AE031E0F90135
:101C800020812861FC0120838BE091E02BE031E092
:101C9000F90120812861FC012083DF91CF91089513
:101CA000CF93DF93CDB7DEB78AE290E02AE230E04F
:101CB000F9012081276FFC0120838BE290E02BE269
:101CC00030E0F90120812860FC012083DF91CF9171
:101CD0000895CF93DF93CDB7DEB784E290E024E29E
:101CE00030E0F90120812062FC01208385E290E050
:101CF00025E230E0F90120812062FC012083DF91A0
:101D0000CF910895CF93DF93CDB7DEB70E94F50D45
:101D10000E94AA0D0E94F50D0E940E0E0E94250E33
:101D20000E94C30D0E94DC0D0E94500E0E94690E9D
:101D3000DF91CF910895CF93DF93CDB7DEB781ECDC
:101D400090E0FC01108280EC90E0FC01108282ECBB
:101D500090E026E0FC01208384EC90E02FE5FC017C
:101D6000208385EC90E0FC01108281EC90E028E17A
:101D7000FC012083DF91CF910895CF93DF93CDB7FE
:101D8000DEB7F8948AE690E02AE630E0F901208197
:101D90002260FC0120838DE390E02DE330E0F90127
:101DA00020812061FC0120837894DF91CF910895F8
:101DB000CF93DF93CDB7DEB7F8948AE690E02AE6BA
:101DC00030E0F90120812860FC0120838DE390E060
:101DD0002DE330E0F90120812062FC01208378941A
:101DE000DF91CF910895CF93DF93CDB7DEB781E236
:101DF00091E0FC01108285E291E02FEFFC0120834D
:101E000084E291E021E0FC01208389E291E0FC0181
:101E1000108288E291E02FEFFC0120838BE291E0B9
:101E2000FC0110828AE291E02FEFFC0120838DE219
:101E300091E0FC0110828CE291E02FEFFC01208305
:101E400080E291E029EAFC01208381E291E02BE02D
:101E5000FC012083DF91CF910895CF93DF93CDB71D
:101E6000DEB781E890E0FC01108285E890E02CEF7D
:101E7000FC01208384E890E021E0FC01208389E8D4
:101E800090E023E0FC01208388E890E02FEFFC0144
:101E900020838BE890E023E0FC0120838AE890E037
:101EA0002FEFFC0120838DE890E023E0FC012083EC
:101EB0008CE890E02FEFFC01208387E890E023E09E
:101EC000FC01208386E890E02FEFFC01208380E86E
:101ED00090E02BEAFC01208382E890E0FC01108274
:101EE00081E890E02CE0FC012083DF91CF91089500
:101EF000CF93DF93CDB7DEB78AE790E0FC01108285
:101F00008BE790E0FC0110828CE790E020E2FC017E
:101F1000208380E590E020E8FC0120838AE790E0C0
:101F200026E8FC012083DF91CF910895CF93DF93C2
:101F3000CDB7DEB7F89489E690E029E630E0F90104
:101F400020812068FC0120838DE390E02DE330E0C8
:101F5000F90120812860FC0120837894DF91CF91E2
:101F60000895CF93DF93CDB7DEB7F8940E94820E29
:101F70000E949B0E0E94BD0E0E94D80E0E94F30E7E
:101F80000E942D0F0E94780F0E94960F7894DF9187
:101F9000CF9108951F920F920FB60F9211248F9335
:101FA0009F93AF93BF93CF93DF93CDB7DEB780916D
:101FB000450290914602A0914702B09148020196D5
:101FC000A11DB11D8093450290934602A093470244
:101FD000B0934802809136028F5F80933602DF9182
:101FE000CF91BF91AF919F918F910F900FBE0F90A6
:101FF0001F9018951F920F920FB60F9211248F9376
:102000009F93AF93BF93CF93DF93CDB7DEB780910C
:10201000410290914202A0914302B0914402019684
:10202000A11DB11D8093410290934202A0934302EF
:10203000B0934402809135028F5F80933502DF9127
:10204000CF91BF91AF919F918F910F900FBE0F9045
:102050001F9018951F920F920FB60F9211248F9315
:102060009F93AF93BF93CF93DF93CDB7DEB78091AC
:102070004B0290914C02A0914D02B0914E020196FC
:10208000A11DB11D80934B0290934C02A0934D0271
:10209000B0934E02DF91CF91BF91AF919F918F91FD
:1020A0000F900FBE0F901F9018950F931F93CF9313
:1020B000DF93CDB7DEB72E970FB6F894DEBF0FBE15
:1020C000CDBF88E290E028E230E0F901208128606D
:1020D000FC01208380E090E0A8E4B2E489839A8345
:1020E000AB83BC8369817A818B819C8126E636E64D
:1020F00046E655E40E94734ADC01CB018D839E8342
:10210000AF83B88711E06D817E818F81988520E053
:1021100030E040E85FE30E94254988230CF010E09E
:10212000112329F081E090E09A87898746C011E069
:102130006D817E818F81988520E03FEF4FE757E4E6
:102140000E946F4A18160CF010E0112361F16981AA
:102150007A818B819C8120E030E040E251E40E9452
:10216000734ADC01CB01BC01CD010E949149DC0125
:10217000CB019A87898712C080E791E09C878B8783
:102180008B859C858C01C8010197F1F78C011C8718
:102190000B8789859A8501979A87898789859A858A
:1021A000009751F717C06D817E818F8198850E94BD
:1021B0009149DC01CB019A87898789859A859E8719
:1021C0008D878D859E858C01F8013197F1F78F0100
:1021D0001E870D8788E290E028E230E0F901208137
:1021E000277FFC0120832E960FB6F894DEBF0FBE2A
:1021F000CDBFDF91CF911F910F9108950F931F9342
:10220000CF93DF930F920F92CDB7DEB788E290E0C5
:1022100028E230E0F90120812860FC0120838AE077
:1022200090E09A83898389819A818C01C801019702
:10223000F1F78C011A8309830F900F90DF91CF91F2
:102240001F910F9108950F931F93CF93DF9300D0A9
:102250000F920F92CDB7DEB78D8380E090E0DC0166
:1022600089839A83AB83BC838D81882F90E0A0E023
:10227000B0E0BC01CD010E94BD49DC01CB01BC0135
:10228000CD012BE734E14EEE5FE30E942949DC01EA
:10229000CB01BC01CD0120E030E04CE052E40E94D3
:1022A000C148DC01CB0189839A83AB83BC8389E875
:1022B00090E0FC01108208E810E069817A818B814E
:1022C0009C810E949149DC01CB01F80180830F9031
:1022D0000F900F900F900F90DF91CF911F910F9162
:1022E0000895CF93DF93CDB7DEB789E890E023E080
:1022F000FC01208388E890E02FEFFC012083DF9130
:10230000CF910895CF93DF930F920F92CDB7DEB7A1
:102310008A838A81883028F08BE790E028E0FC01EE
:1023200020838A8187708A838CE790E02A812062EB
:10233000FC0120838AE790E02AE730E0F901208160
:102340002064FC01208300008AE790E0FC0180818A
:10235000882F90E0807190700097B1F389E790E04A
:10236000FC01808189838AE790E02AE730E0F90167
:1023700020812061FC0120838BE790E0FC0110822A
:1023800089810F900F90DF91CF910895CF93DF93C4
:102390000F920F92CDB7DEB789836A8388E291E00E
:1023A0002981FC0120838AE291E02A81FC012083BB
:1023B0000F900F90DF91CF910895CF93DF930F92FD
:1023C0000F92CDB7DEB78A8319828A818F708A8394
:1023D00082E290E0FC01808189838981807F89830A
:1023E00099818A81892B898382E290E02981FC018D
:1023F00020830F900F90DF91CF910895CF93DF93BB
:10240000CDB7DEB786E00E94DD11DF91CF91089550
:10241000CF93DF93CDB7DEB785E00E94DD11DF916A
:10242000CF910895CF93DF93CDB7DEB78AE00E94B6
:10243000DD11DF91CF910895CF93DF93CDB7DEB754
:1024400089E00E94DD11DF91CF910895CF93DF9352
:10245000CDB7DEB780E00E94DD11DF91CF91089506
:10246000CF93DF93CDB7DEB72A970FB6F894DEBFD0
:102470000FBECDBF9A87898780E090E0DC01898319
:102480009A83AB83BC831D821E821F821886898536
:102490009A85CC01A0E0B0E0BC01CD010E94BD490D
:1024A000DC01CB01BC01CD0128E431EE42E850E46F
:1024B0000E942949DC01CB0189839A83AB83BC83C9
:1024C00069817A818B819C810E949149DC01CB01D9
:1024D000CC01A0E0B0E08D839E83AF83B8871092DB
:1024E0004502109246021092470210924802109242
:1024F000410210924202109243021092440201C023
:1025000000002091450230914602409147025091CF
:1025100048028D819E81AF81B885281739074A0707
:102520005B0788F4209141023091420240914302BE
:10253000509144028D819E81AF81B885281739075B
:102540004A075B07E8F20E9426122A960FB6F89413
:10255000DEBF0FBECDBFDF91CF910895CF93DF9344
:102560000F920F92CDB7DEB79A8389830E9408122B
:1025700089819A810E9430120F900F90DF91CF9144
:102580000895CF93DF930F920F92CDB7DEB79A8362
:1025900089830E94121289819A810E9430120F90C1
:1025A0000F90DF91CF910895CF93DF93CDB7DEB732
:1025B0002A970FB6F894DEBF0FBECDBF9A878987E2
:1025C00080E090E0DC0189839A83AB83BC831D8229
:1025D0001E821F82188689859A85CC01A0E0B0E012
:1025E000BC01CD010E94BD49DC01CB01BC01CD0184
:1025F00025EE30ED4AEA50E40E942949DC01CB0186
:1026000089839A83AB83BC8369817A818B819C8126
:102610000E949149DC01CB018D839E83AF83B887F3
:102620001092450210924602109247021092480200
:102630001092410210924202109243021092440200
:1026400001C00000209145023091460240914702AE
:10265000509148028D819E81AF81B8858217930782
:10266000A407B50788F020914102309142024091C1
:102670004302509144028D819E81AF81B8858217BB
:102680009307A407B507E8F62A960FB6F894DEBFBD
:102690000FBECDBFDF91CF910895CF93DF930F92FF
:1026A0000F92CDB7DEB79A8389830E94FE1189818C
:1026B0009A810E94D4120F900F90DF91CF910895CC
:1026C000CF93DF930F920F92CDB7DEB79A838983B2
:1026D0000E941C1289819A810E94D4120F900F903F
:1026E000DF91CF910895CF93DF93CDB7DEB78BE223
:1026F00090E02BE230E0F90120812F7BFC01208368
:102700008BE290E02BE230E0F90120812F77FC0191
:102710002083DF91CF910895CF93DF93CDB7DEB7BC
:102720008BE290E02BE230E0F90120812064FC0193
:1027300020838BE290E02BE230E0F90120812068D9
:10274000FC012083DF91CF910895CF93DF93CDB724
:10275000DEB78BE290E02BE230E0F90120812F7BA5
:10276000FC0120838BE290E02BE230E0F901208134
:102770002068FC012083DF91CF910895CF93DF93F0
:10278000CDB7DEB78BE290E02BE230E0F90120819B
:102790002064FC0120838BE290E02BE230E0F90121
:1027A00020812F77FC012083DF91CF910895CF9373
:1027B000DF93CDB7DEB78BE290E02BE230E0F9019A
:1027C00020812061FC0120838BE290E02BE230E04D
:1027D000F90120812062FC012083DF91CF910895CF
:1027E0000F931F93CF93DF93CDB7DEB72E970FB61E
:1027F000F894DEBF0FBECDBF0E94731310924B0240
:1028000010924C0210924D0210924E0280E090E025
:10281000A8ECB2E489839A83AB83BC8369817A8113
:102820008B819C8126E636E646E655E40E94734A93
:10283000DC01CB018D839E83AF83B88711E06D816E
:102840007E818F81988520E030E040E85FE30E9440
:10285000254988230CF010E0112329F081E090E055
:102860009A87898746C011E06D817E818F81988526
:1028700020E03FEF4FE757E40E946F4A18160CF034
:1028800010E0112361F169817A818B819C8120E0C4
:1028900030E040E251E40E94734ADC01CB01BC010C
:1028A000CD010E949149DC01CB019A87898712C032
:1028B00080E791E09C878B878B859C858C01C80184
:1028C0000197F1F78C011C870B8789859A85019701
:1028D0009A87898789859A85009751F717C06D81F6
:1028E0007E818F8198850E949149DC01CB019A8776
:1028F000898789859A859E878D878D859E858C01A0
:10290000C8010197F1F78C011E870D8780914B025A
:1029100090914C02A0914D02B0914E02809388029A
:1029200090938902A0938A02B0938B022E960FB6E1
:10293000F894DEBF0FBECDBFDF91CF911F910F91F5
:1029400008950F931F93CF93DF93CDB7DEB72E97E4
:102950000FB6F894DEBF0FBECDBF0E948C1310924D
:102960004B0210924C0210924D0210924E0280E0E7
:1029700090E0A8ECB2E489839A83AB83BC8369813D
:102980007A818B819C8126E636E646E655E40E94F4
:10299000734ADC01CB018D839E83AF83B88711E03E
:1029A0006D817E818F81988520E030E040E85FE393
:1029B0000E94254988230CF010E0112329F081E0C2
:1029C00090E09A87898746C011E06D817E818F8172
:1029D000988520E03FEF4FE757E40E946F4A1816B2
:1029E0000CF010E0112361F169817A818B819C8167
:1029F00020E030E040E251E40E94734ADC01CB0168
:102A0000BC01CD010E949149DC01CB019A878987E5
:102A100012C080E791E09C878B878B859C858C0119
:102A2000C8010197F1F78C011C870B8789859A856E
:102A300001979A87898789859A85009751F717C0EA
:102A40006D817E818F8198850E949149DC01CB0147
:102A50009A87898789859A859E878D878D859E85AA
:102A60008C01C8010197F1F78C011E870D878091B9
:102A70004B0290914C02A0914D02B0914E02809376
:102A8000840290938502A0938602B09387022E96CB
:102A90000FB6F894DEBF0FBECDBFDF91CF911F916F
:102AA0000F9108950F931F93CF93DF93CDB7DEB7A8
:102AB0002E970FB6F894DEBF0FBECDBF0E94A513B0
:102AC00010924B0210924C0210924D0210924E0244
:102AD00080E090E0A8ECB2E489839A83AB83BC8366
:102AE00069817A818B819C8126E636E646E655E44B
:102AF0000E94734ADC01CB018D839E83AF83B8872C
:102B000011E06D817E818F81988520E030E040E882
:102B10005FE30E94254988230CF010E0112329F07F
:102B200081E090E09A87898746C011E06D817E81BF
:102B30008F81988520E03FEF4FE757E40E946F4A6E
:102B400018160CF010E0112361F169817A818B81F4
:102B50009C8120E030E040E251E40E94734ADC01B5
:102B6000CB01BC01CD010E949149DC01CB019A87C8
:102B7000898712C080E791E09C878B878B859C8535
:102B80008C01C8010197F1F78C011C870B8789859F
:102B90009A8501979A87898789859A85009751F741
:102BA00017C06D817E818F8198850E949149DC01DB
:102BB000CB019A87898789859A859E878D878D85A0
:102BC0009E858C01C8010197F1F78C011E870D8746
:102BD00080914B0290914C02A0914D02B0914E0217
:102BE0008093610290936202A0936302B0936402A7
:102BF0002E960FB6F894DEBF0FBECDBFDF91CF91FA
:102C00001F910F910895CF93DF93CDB7DEB783E087
:102C10000E9482118093370282E00E948211809389
:102C2000380281E00E9482118093390284E00E9480
:102C3000821180933A0286E00E94821180933C02C6
:102C400088E00E94821180933E0289E00E948211F6
:102C500080933F028DE00E94821180934002DF91B9
:102C6000CF910895CF93DF93CDB7DEB72DE832E053
:102C700080ED6BE342E050E00E94E50126E932E09E
:102C800080ED65E442E050E00E94E50121E932E098
:102C900080ED67E442E050E00E94E50180918D0202
:102CA000992787FD90959093500280934F028091D1
:102CB0004F0290915002982F882790935002809352
:102CC0004F0280918E02282F332727FD3095809167
:102CD0004F0290915002820F931F90935002809365
:102CE0004F0280914F0290915002AA2797FDA09524
:102CF000BA2FBC01CD010E94BF49DC01CB018093FA
:102D0000550290935602A0935702B09358028091B7
:102D10009602992787FD90959093520280935102D5
:102D20008091510290915202982F882790935202DD
:102D30008093510280919702282F332727FD3095E9
:102D40008091510290915202820F931F90935202F0
:102D5000809351028091510290915202AA2797FDCF
:102D6000A095BA2FBC01CD010E94BF49DC01CB0167
:102D70008093590290935A02A0935B02B0935C0235
:102D800080919102992787FD9095909354028093AA
:102D900053028091530290915402982F8827909368
:102DA00054028093530280919202282F332727FDEB
:102DB00030958091530290915402820F931F90930B
:102DC0005402809353028091530290915402AA2797
:102DD00097FDA095BA2FBC01CD010E94BF49DC012F
:102DE000CB0180935D0290935E02A0935F02B0934B
:102DF0006002DF91CF910895CF93DF93CDB7DEB717
:102E00000E94F0130E94A1140E9452158091880222
:102E100090918902A0918A02B0918B02833C21E0BB
:102E2000920720E0A20720E0B20708F4A6C0809134
:102E3000840290918502A0918602B0918702833C22
:102E400021E0920720E0A20720E0B20708F495C035
:102E50008091610290916202A0916302B09164023C
:102E6000833C21E0920720E0A20720E0B20708F4AB
:102E700084C0209188023091890240918A02509149
:102E80008B028091840290918502A0918602B0917C
:102E9000870282179307A407B507B8F42091880228
:102EA0003091890240918A0250918B028091610297
:102EB00090916202A0916302B0916402821793071D
:102EC000A407B50710F482E55CC02091840230911C
:102ED00085024091860250918702809188029091EC
:102EE0008902A0918A02B0918B0282179307A407EE
:102EF000B507B8F420918402309185024091860292
:102F0000509187028091610290916202A0916302C8
:102F1000B091640282179307A407B50710F487E401
:102F200030C0209161023091620240916302509161
:102F300064028091840290918502A0918602B091F2
:102F4000870282179307A407B507C8F4209161028E
:102F50003091620240916302509164028091880234
:102F600090918902A0918A02B0918B0282179307F7
:102F7000A407B50720F482E404C080E302C0000087
:102F800000C0DF91CF9108950F931F93CF93DF93EC
:102F9000CDB7DEB7E8970FB6F894DEBF0FBECDBF52
:102FA00080913302813009F011C18FE00E9423111A
:102FB00080E090E0AAE7B4E489839A83AB83BC8382
:102FC00069817A818B819C8126E636E646E655E466
:102FD0000E94734ADC01CB018D839E83AF83B88747
:102FE00011E06D817E818F81988520E030E040E89E
:102FF0005FE30E94254988230CF010E0112329F09B
:1030000081E090E09A87898746C011E06D817E81DA
:103010008F81988520E03FEF4FE757E40E946F4A89
:1030200018160CF010E0112361F169817A818B810F
:103030009C8120E030E040E251E40E94734ADC01D0
:10304000CB01BC01CD010E949149DC01CB019A87E3
:10305000898712C080E791E09C878B878B859C8550
:103060008C01C8010197F1F78C011C870B878985BA
:103070009A8501979A87898789859A85009751F75C
:1030800017C06D817E818F8198850E949149DC01F6
:10309000CB019A87898789859A859E878D878D85BB
:1030A0009E858C01C8010197F1F78C011E870D8761
:1030B0000E94FC16882F90E09093070280930602EE
:1030C00086E40E94231180E090E0AAEFB3E48F87AA
:1030D000988BA98BBA8B6F85788989899A8926E61E
:1030E00036E646E655E40E94734ADC01CB018B8B41
:1030F0009C8BAD8BBE8B11E06B897C898D899E8901
:1031000020E030E040E85FE30E94254988230CF08E
:1031100010E0112329F081E090E0988F8F8B46C05A
:1031200011E06B897C898D899E8920E03FEF4FE714
:1031300057E40E946F4A18160CF010E0112361F159
:103140006F85788989899A8920E030E040E251E4EE
:103150000E94734ADC01CB01BC01CD010E94914960
:10316000DC01CB01988F8F8B12C080E791E09A8FA2
:10317000898F898D9A8D8C01C8010197F1F78C0197
:103180001A8F098F8F89988D0197988F8F8B8F89D0
:10319000988D009751F717C06B897C898D899E891E
:1031A0000E949149DC01CB01988F8F8B8F89988D7C
:1031B0009C8F8B8F8B8D9C8D8C01C8010197F1F7B3
:1031C0008C011C8F0B8F0E94711115C180913402EC
:1031D000813009F010C181EC0E94231180E090E061
:1031E000A6E9B4E48D8F9E8FAF8FB8A36D8D7E8DD1
:1031F0008F8D98A126E636E646E655E40E94734A8E
:10320000DC01CB0189A39AA3ABA3BCA311E069A104
:103210007AA18BA19CA120E030E040E85FE30E940E
:10322000254988230CF010E0112329F081E090E07B
:103230009EA38DA346C011E069A17AA18BA19CA198
:1032400020E03FEF4FE757E40E946F4A18160CF05A
:1032500010E0112361F16D8D7E8D8F8D98A120E09E
:1032600030E040E251E40E94734ADC01CB01BC0132
:10327000CD010E949149DC01CB019EA38DA312C018
:1032800080E791E098A78FA38FA198A58C01C80132
:103290000197F1F78C0118A70FA38DA19EA10197AB
:1032A0009EA38DA38DA19EA1009751F717C069A180
:1032B0007AA18BA19CA10E949149DC01CB019EA324
:1032C0008DA38DA19EA19AA789A789A59AA58C01F6
:1032D000C8010197F1F78C011AA709A70E94FC16F3
:1032E000882F90E0909309028093080286E40E9460
:1032F000231180E090E0A8E4B4E48BA79CA7ADA7DD
:10330000BEA76BA57CA58DA59EA526E636E646E65E
:1033100055E40E94734ADC01CB018FA798ABA9AB9F
:10332000BAAB11E06FA578A989A99AA920E030E08D
:1033300040E85FE30E94254988230CF010E0112348
:1033400029F081E090E09CAB8BAB46C011E06FA50B
:1033500078A989A99AA920E03FEF4FE757E40E9496
:103360006F4A18160CF010E0112361F16BA57CA5D3
:103370008DA59EA520E030E040E251E40E94734A12
:10338000DC01CB01BC01CD010E949149DC01CB01E4
:103390009CAB8BAB12C080E791E09EAB8DAB8DA94F
:1033A0009EA98C01C8010197F1F78C011EAB0DABF2
:1033B0008BA99CA901979CAB8BAB8BA99CA900976F
:1033C00051F717C06FA578A989A99AA90E949149B8
:1033D000DC01CB019CAB8BAB8BA99CA998AF8FABCD
:1033E0008FA998AD8C01C8010197F1F78C0118AF36
:1033F0000FAB0E947111E8960FB6F894DEBF0FBEB6
:10340000CDBFDF91CF911F910F9108950F931F931F
:10341000CF93DF93CDB7DEB72E970FB6F894DEBF0C
:103420000FBECDBF0E94031632C080913A028F3189
:1034300060F080913E028F3140F08CE86CE80E9491
:10344000C61186E090E00E944D1380913A028E31C1
:1034500060F486E090E00E94C1128CE86CE80E9463
:10346000C61186E090E00E944D1380913E028E319D
:1034700060F486E090E00E94AE128CE86CE80E9456
:10348000C61186E090E00E944D130E9403168091C1
:103490003702873140F480913802873120F48091DF
:1034A0003902873110F286E40E94231180E090E017
:1034B000A8ECB2E489839A83AB83BC8369817A8167
:1034C0008B819C8126E636E646E655E40E94734AE7
:1034D000DC01CB018D839E83AF83B88711E06D81C2
:1034E0007E818F81988520E030E040E85FE30E9494
:1034F000254988230CF010E0112329F081E090E0A9
:103500009A87898746C011E06D817E818F81988579
:1035100020E03FEF4FE757E40E946F4A18160CF087
:1035200010E0112361F169817A818B819C8120E017
:1035300030E040E251E40E94734ADC01CB01BC015F
:10354000CD010E949149DC01CB019A87898712C085
:1035500080E791E09C878B878B859C858C01C801D7
:103560000197F1F78C011C870B8789859A85019754
:103570009A87898789859A85009751F717C06D8149
:103580007E818F8198850E949149DC01CB019A87C9
:10359000898789859A859E878D878D859E858C01F3
:1035A000C8010197F1F78C011E870D870E947111E8
:1035B0000E948C3781E0809326022E960FB6F894F5
:1035C000DEBF0FBECDBFDF91CF911F910F91089548
:1035D0000F931F93CF93DF93CDB7DEB76D970FB6E1
:1035E000F894DEBF0FBECDBF8D8F8D8D882309F47B
:1035F00009C181E062E00E948C0C80E090E0A8E4C8
:10360000B2E489839A83AB83BC8369817A818B819D
:103610009C8126E636E646E655E40E94734ADC01C4
:10362000CB018D839E83AF83B88711E06D817E814E
:103630008F81988520E030E040E85FE30E942549D3
:1036400088230CF010E0112329F081E090E09A87A4
:10365000898746C011E06D817E818F81988520E049
:103660003FEF4FE757E40E946F4A18160CF010E046
:10367000112361F169817A818B819C8120E030E0A6
:1036800040E251E40E94734ADC01CB01BC01CD0150
:103690000E949149DC01CB019A87898712C080E79B
:1036A00091E09C878B878B859C858C01C801019755
:1036B000F1F78C011C870B8789859A8501979A877A
:1036C000898789859A85009751F717C06D817E811A
:1036D0008F8198850E949149DC01CB019A87898767
:1036E00089859A859E878D878D859E858C01C801E9
:1036F0000197F1F78C011E870D878CE092E00E9404
:103700006D0C80E090E0A8E4B2E48F87988BA98BE1
:10371000BA8B6F85788989899A8926E636E646E6E6
:1037200055E40E94734ADC01CB018B8B9C8BAD8BE3
:10373000BE8B11E06B897C898D899E8920E030E009
:1037400040E85FE30E94254988230CF010E0112334
:1037500029F081E090E0988F8F8B46C011E06B8953
:103760007C898D899E8920E03FEF4FE757E40E94D6
:103770006F4A18160CF010E0112361F16F857889FB
:1037800089899A8920E030E040E251E40E94734A3E
:10379000DC01CB01BC01CD010E949149DC01CB01D0
:1037A000988F8F8B12C080E791E09A8F898F898DD7
:1037B0009A8D8C01C8010197F1F78C011A8F098F3E
:1037C0008F89988D0197988F8F8B8F89988D00970F
:1037D00051F717C06B897C898D899E890E94914918
:1037E000DC01CB01988F8F8B8F89988D9C8F8B8F6D
:1037F0008B8D9C8D8C01C8010197F1F78C011C8F7A
:103800000B8FFFCF6D960FB6F894DEBF0FBECDBF06
:10381000DF91CF911F910F9108950F931F93CF9335
:10382000DF93CDB7DEB72E970FB6F894DEBF0FBE8D
:10383000CDBF84EB64EB0E94C61185E590E00E9449
:10384000C1120E94261280E090E0AAEFB3E48983BF
:103850009A83AB83BC8369817A818B819C8126E6C4
:1038600036E646E655E40E94734ADC01CB018D83BF
:103870009E83AF83B88711E06D817E818F819885AB
:1038800020E030E040E85FE30E94254988230CF007
:1038900010E0112329F081E090E09A87898746C0E3
:1038A00011E06D817E818F81988520E03FEF4FE7A9
:1038B00057E40E946F4A18160CF010E0112361F1D2
:1038C00069817A818B819C8120E030E040E251E483
:1038D0000E94734ADC01CB01BC01CD010E949149D9
:1038E000DC01CB019A87898712C080E791E09C8731
:1038F0008B878B859C858C01C8010197F1F78C0122
:103900001C870B8789859A8501979A87898789857E
:103910009A85009751F717C06D817E818F819885B8
:103920000E949149DC01CB019A87898789859A8514
:103930009E878D878D859E858C01C8010197F1F743
:103940008C011E870D878AEA6AEA0E94C61184E00C
:103950008093350284E0809336022E960FB6F89459
:10396000DEBF0FBECDBFDF91CF911F910F910895A4
:103970000F931F93CF93DF93CDB7DEB72E970FB67C
:10398000F894DEBF0FBECDBF84EB64EB0E94C6117E
:1039900085E590E00E94AE120E94261280E090E041
:1039A000AAEFB3E489839A83AB83BC8369817A816C
:1039B0008B819C8126E636E646E655E40E94734AF2
:1039C000DC01CB018D839E83AF83B88711E06D81CD
:1039D0007E818F81988520E030E040E85FE30E949F
:1039E000254988230CF010E0112329F081E090E0B4
:1039F0009A87898746C011E06D817E818F81988585
:103A000020E03FEF4FE757E40E946F4A18160CF092
:103A100010E0112361F169817A818B819C8120E022
:103A200030E040E251E40E94734ADC01CB01BC016A
:103A3000CD010E949149DC01CB019A87898712C090
:103A400080E791E09C878B878B859C858C01C801E2
:103A50000197F1F78C011C870B8789859A8501975F
:103A60009A87898789859A85009751F717C06D8154
:103A70007E818F8198850E949149DC01CB019A87D4
:103A8000898789859A859E878D878D859E858C01FE
:103A9000C8010197F1F78C011E870D878AEA6AEA4F
:103AA0000E94C61184E08093350284E08093360240
:103AB0002E960FB6F894DEBF0FBECDBFDF91CF912B
:103AC0001F910F9108950F931F93CF93DF93CDB75D
:103AD000DEB72E970FB6F894DEBF0FBECDBF0E94A3
:103AE000031649C080913702873188F480913802EB
:103AF000883168F080913902873148F485E090E0A0
:103B00000E944D138AEA6AEA0E94C61132C080916F
:103B10003702873188F480913802873168F48091C8
:103B20003902883148F086E090E00E94C11286E9AF
:103B300066E90E94C6111DC080913702883188F065
:103B400080913802873168F480913902873148F4D6
:103B500086E090E00E94AE1286E966E90E94C611F6
:103B600008C08AE090E00E944D138AEA6AEA0E9447
:103B7000C6110E94031680913702883140F080916F
:103B80003802883120F0809139028831E8F4809140
:103B90003702873140F480913802883120F08091DB
:103BA0003902883188F480913702883140F0809161
:103BB0003802883120F080913902873128F08091D5
:103BC0003C02803708F08ECF80913C02803708F0AD
:103BD00088C00E94261280E090E0A6E9B3E48983C1
:103BE0009A83AB83BC8369817A818B819C8126E631
:103BF00036E646E655E40E94734ADC01CB018D832C
:103C00009E83AF83B88711E06D817E818F81988517
:103C100020E030E040E85FE30E94254988230CF073
:103C200010E0112329F081E090E09A87898746C04F
:103C300011E06D817E818F81988520E03FEF4FE715
:103C400057E40E946F4A18160CF010E0112361F13E
:103C500069817A818B819C8120E030E040E251E4EF
:103C60000E94734ADC01CB01BC01CD010E94914945
:103C7000DC01CB019A87898712C080E791E09C879D
:103C80008B878B859C858C01C8010197F1F78C018E
:103C90001C870B8789859A8501979A8789878985EB
:103CA0009A85009751F717C06D817E818F81988525
:103CB0000E949149DC01CB019A87898789859A8581
:103CC0009E878D878D859E858C01C8010197F1F7B0
:103CD0008C011E870D8781E390E090930B02809307
:103CE0000A020E9455102E960FB6F894DEBF0FBE42
:103CF000CDBFDF91CF911F910F910895CF93DF93A7
:103D0000CDB7DEB7809100029091010226E030E04D
:103D1000B9010E94D64A909331028093300280917B
:103D20002702813009F03FC080910002909101028A
:103D3000009711F48EE47BC08091300290913102A3
:103D4000009711F485E473C0809102029091030200
:103D50008130910571F080910202909103028330CD
:103D6000910539F08091020290910302853091050E
:103D700011F48EE45CC080910202909103028230C3
:103D8000910579F0809102029091030284309105AF
:103D900041F080910202909103028630910509F072
:103DA00045C083E544C080912702823009F03EC0BF
:103DB0008091000290910102009711F487E537C0CD
:103DC0008091300290913102009711F48EE42FC05F
:103DD00080910202909103028130910571F08091EF
:103DE0000202909103028330910539F08091020222
:103DF000909103028530910511F487E518C08091F8
:103E00000202909103028230910571F080910202CA
:103E1000909103028430910539F0809102029091D3
:103E200003028630910511F485E401C000C0DF91E2
:103E3000CF910895CF93DF93CDB7DEB78091000285
:103E40009091010226E030E0B9010E94D64A909399
:103E500031028093300280910202909103028330FC
:103E6000910539F08091020290910302853091050D
:103E7000B1F580910202909103029C0121503040E3
:103E80008091300290913102AC0141505040C90103
:103E9000880F991F880F991F820F931F840F951FFA
:103EA00089599D4F21E0FC0120838091020290916D
:103EB00003029C0121503040409130025091310268
:103EC000C901880F991F880F991F820F931F840FB4
:103ED000951F89599D4F21E0FC01208348C08091A6
:103EE0000202909103028230910539F08091020222
:103EF0009091030284309105D1F580910202909156
:103F000003029C0121503040809130029091310297
:103F100045E050E0481B590BC901880F991F880FD5
:103F2000991F820F931F840F951F89599D4F21E080
:103F3000FC01208380910202909103029C01215098
:103F40003040809130029091310244E050E0481BB3
:103F5000590BC901880F991F880F991F820F931F52
:103F6000840F951F89599D4F21E0FC012083DF912B
:103F7000CF910895CF93DF93CDB7DEB78091000244
:103F80009091010226E030E0B9010E94D64A909358
:103F900031028093300280910202909103028330BB
:103FA000910539F0809102029091030285309105CC
:103FB00009F580910202909103029C012250304049
:103FC0008091300290913102AC0141505040C901C2
:103FD000880F991F880F991F820F931F840F951FB9
:103FE00089599D4FFC018081813011F481E03AC0F4
:103FF00080E038C0809102029091030282309105E6
:1040000071F080910202909103028430910539F0A1
:1040100080910202909103028630910511F5809102
:104020000202909103029C012250304080913002A4
:104030009091310245E050E0481B590BC901880FAF
:10404000991F880F991F820F931F840F951F8959FD
:104050009D4FFC018081813011F481E003C080E03C
:1040600001C000C0DF91CF9108950F931F93CF93AC
:10407000DF93CDB7DEB7CC5FD0400FB6F894DEBF8C
:104080000FBECDBF88EC68EC0E94C6118091300253
:10409000909131028130910509F090C188E290E061
:1040A0000E9460130E94261280E090E0A6E9B3E42B
:1040B00089839A83AB83BC8369817A818B819C815C
:1040C00026E636E646E655E40E94734ADC01CB015B
:1040D0008D839E83AF83B88711E06D817E818F8150
:1040E000988520E030E040E85FE30E94254988237E
:1040F0000CF010E0112329F081E090E09A87898785
:1041000046C011E06D817E818F81988520E03FEF70
:104110004FE757E40E946F4A18160CF010E0112385
:1041200061F169817A818B819C8120E030E040E2FD
:1041300051E40E94734ADC01CB01BC01CD010E9415
:104140009149DC01CB019A87898712C080E791E011
:104150009C878B878B859C858C01C8010197F1F723
:104160008C011C870B8789859A8501979A87898797
:1041700089859A85009751F717C06D817E818F815F
:1041800098850E949149DC01CB019A8789878985AE
:104190009A859E878D878D859E858C01F801319744
:1041A000F1F78F011E870D8782E80E94231180E0BE
:1041B00090E0A6E9B3E48F87988BA98BBA8B6F85C3
:1041C000788989899A8926E636E646E655E40E948A
:1041D000734ADC01CB018B8B9C8BAD8BBE8B11E0CA
:1041E0006B897C898D899E8920E030E040E85FE31F
:1041F0000E94254988230CF010E0112329F081E06A
:1042000090E0988F8F8B46C011E06B897C898D89F7
:104210009E8920E03FEF4FE757E40E946F4A18164F
:104220000CF010E0112361F16F85788989899A89F2
:1042300020E030E040E251E40E94734ADC01CB010F
:10424000BC01CD010E949149DC01CB01988F8F8B7D
:1042500012C080E791E09A8F898F898D9A8D8C01A9
:10426000C8010197F1F78C011A8F098F8F89988DFA
:104270000197988F8F8B8F89988D009751F717C072
:104280006B897C898D899E890E949149DC01CB01D3
:10429000988F8F8B8F89988D9C8F8B8F8B8D9C8D1A
:1042A0008C01F8013197F1F78F011C8F0B8F88E299
:1042B00090E00E944D130E94261280E090E0A6E953
:1042C000B3E48D8F9E8FAF8FB8A36D8D7E8D8F8D54
:1042D00098A126E636E646E655E40E94734ADC01DC
:1042E000CB0189A39AA3ABA3BCA311E069A17AA1D6
:1042F0008BA19CA120E030E040E85FE30E942549CB
:1043000088230CF010E0112329F081E090E09EA3B7
:104310008DA346C011E069A17AA18BA19CA120E0E8
:104320003FEF4FE757E40E946F4A18160CF010E079
:10433000112361F16D8D7E8D8F8D98A120E030E08D
:1043400040E251E40E94734ADC01CB01BC01CD0183
:104350000E949149DC01CB019EA38DA312C080E78E
:1043600091E098A78FA38FA198A58C01C801019710
:10437000F1F78C0118A70FA38DA19EA101979EA311
:104380008DA38DA19EA1009751F764C169A17AA167
:104390008BA19CA10E949149DC01CB019EA38DA31E
:1043A0008DA19EA19AA789A789A59AA58C01F8013C
:1043B0003197F1F78F011AA709A74CC182E80E9433
:1043C000231180E090E0A6E9B3E48BA79CA7ADA7FA
:1043D000BEA76BA57CA58DA59EA526E636E646E67E
:1043E00055E40E94734ADC01CB018FA798ABA9ABBF
:1043F000BAAB11E06FA578A989A99AA920E030E0AD
:1044000040E85FE30E94254988230CF010E0112367
:1044100029F081E090E09CAB8BAB46C011E06FA52A
:1044200078A989A99AA920E03FEF4FE757E40E94B5
:104430006F4A18160CF010E0112361F16BA57CA5F2
:104440008DA59EA520E030E040E251E40E94734A31
:10445000DC01CB01BC01CD010E949149DC01CB0103
:104460009CAB8BAB12C080E791E09EAB8DAB8DA96E
:104470009EA98C01C8010197F1F78C011EAB0DAB11
:104480008BA99CA901979CAB8BAB8BA99CA900978E
:1044900051F717C06FA578A989A99AA90E949149D7
:1044A000DC01CB019CAB8BAB8BA99CA998AF8FABEC
:1044B0008FA998AD8C01F8013197F1F78F0118AFF2
:1044C0000FAB88E290E00E944D130E94261280E01C
:1044D00090E0A6E9B3E489AF9AAFABAFBCAF69ADEA
:1044E0007AAD8BAD9CAD26E636E646E655E40E94F5
:1044F000734ADC01CB019E01235C3F4FF9018083AD
:104500009183A283B38311E0CE01CD96FC0160813B
:1045100071818281938120E030E040E85FE30E9476
:10452000254988230CF010E0112349F0CE018F5B60
:104530009F4F21E030E0FC01318320836EC011E009
:10454000CE01CD96FC01608171818281938120E052
:104550003FEF4FE757E40E946F4A18160CF010E047
:10456000112309F449C069AD7AAD8BAD9CAD20E053
:1045700030E040E251E40E94734ADC01CB018E013D
:104580000F5B1F4FBC01CD010E949149DC01CB01A3
:10459000F8019183808327C0CE018D5B9F4F20E778
:1045A00031E0FC0131832083CE018D5B9F4FFC0104
:1045B000808191818C01C8010197F1F78C01CE01B6
:1045C0008D5B9F4FFC0111830083CE018F5B9F4F5A
:1045D0009E012F5B3F4FF9012081318121503040F6
:1045E000FC0131832083CE018F5B9F4FFC018081D2
:1045F0009181009789F62EC08E010F5B1F4FCE016F
:10460000CD96FC0160817181828193810E949149E4
:10461000DC01CB01F80191838083CE018B5B9F4F3E
:104620009E012F5B3F4FF90120813181FC013183D5
:104630002083CE018B5B9F4FFC01808191818C0197
:10464000C8010197F1F78C01CE018B5B9F4FFC01F4
:10465000118300830E940D1C0E9426129E01295B7B
:104660003F4F80E090E0A8ECB2E4F90180839183B1
:10467000A283B3838E01055B1F4FCE01895B9F4FE1
:10468000FC01608171818281938126E636E646E6EF
:1046900055E40E94734ADC01CB01F80180839183C9
:1046A000A283B383CE01855B9F4F11E0FC01608143
:1046B00071818281938120E030E040E85FE30E94D5
:1046C000254988230CF010E0112349F0CE01815BCD
:1046D0009F4F21E030E0FC013183208374C0CE0184
:1046E000855B9F4F11E0FC01608171818281938124
:1046F00020E03FEF4FE757E40E946F4A18160CF096
:1047000010E0112309F44DC0CE01895B9F4FFC01DD
:10471000608171818281938120E030E040E251E448
:104720000E94734ADC01CB018E01015B1F4FBC016B
:10473000CD010E949149DC01CB01F8019183808376
:1047400027C0CE018F5A9F4F20E731E0FC01318313
:104750002083CE018F5A9F4FFC01808191818C0173
:10476000C8010197F1F78C01CE018F5A9F4FFC01D0
:1047700011830083CE01815B9F4F9E01215B3F4FE0
:10478000F9012081318121503040FC0131832083A7
:10479000CE01815B9F4FFC0180819181009789F65A
:1047A0002FC08E01015B1F4FCE01855B9F4FFC0127
:1047B00060817181828193810E949149DC01CB01EA
:1047C000F80191838083CE018D5A9F4F9E01215B1A
:1047D0003F4FF90120813181FC0131832083CE01DB
:1047E0008D5A9F4FFC01808191818C01C8010197F6
:1047F000F1F78C01CE018D5A9F4FFC01118300838C
:1048000086E40E9423119E012B5A3F4F80E090E0E6
:10481000A6E9B3E4F90180839183A283B3838E0177
:10482000075A1F4FCE018B5A9F4FFC016081718147
:104830008281938126E636E646E655E40E94734A75
:10484000DC01CB01F80180839183A283B383CE0185
:10485000875A9F4F11E0FC016081718182819381B1
:1048600020E030E040E85FE30E94254988230CF017
:1048700010E0112349F0CE01835A9F4F21E030E030
:10488000FC013183208374C0CE01875A9F4F11E011
:10489000FC01608171818281938120E03FEF4FE7CD
:1048A00057E40E946F4A18160CF010E0112309F427
:1048B0004DC0CE018B5A9F4FFC0160817181828176
:1048C000938120E030E040E251E40E94734ADC0131
:1048D000CB018E01035A1F4FBC01CD010E949149AB
:1048E000DC01CB01F8019183808327C0CE01815A7E
:1048F0009F4F20E731E0FC0131832083CE01815AB4
:104900009F4FFC01808191818C01C8010197F1F7D3
:104910008C01CE01815A9F4FFC0111830083CE018F
:10492000835A9F4F9E01235A3F4FF90120813181C5
:1049300021503040FC0131832083CE01835A9F4FA8
:10494000FC0180819181009789F62FC08E01035A66
:104950001F4FCE01875A9F4FFC0160817181828178
:1049600093810E949149DC01CB01F80191838083FE
:10497000CE018F599F4F9E01235A3F4FF90120814D
:104980003181FC0131832083CE018F599F4FFC017F
:10499000808191818C01C8010197F1F78C01CE01D2
:1049A0008F599F4FFC01118300830E9471110E9457
:1049B000631D0E9426129E012D593F4F80E090E01A
:1049C000A6E9B3E4F90180839183A283B3838E01C6
:1049D00009591F4FCE018D599F4FFC016081718194
:1049E0008281938126E636E646E655E40E94734AC4
:1049F000DC01CB01F80180839183A283B383CE01D4
:104A000089599F4F11E0FC016081718182819381FE
:104A100020E030E040E85FE30E94254988230CF065
:104A200010E0112349F0CE0185599F4F21E030E07D
:104A3000FC013183208374C0CE0189599F4F11E05E
:104A4000FC01608171818281938120E03FEF4FE71B
:104A500057E40E946F4A18160CF010E0112309F475
:104A60004DC0CE018D599F4FFC01608171818281C3
:104A7000938120E030E040E251E40E94734ADC017F
:104A8000CB018E0105591F4FBC01CD010E949149F8
:104A9000DC01CB01F8019183808327C0CE018359CB
:104AA0009F4F20E731E0FC0131832083CE01835901
:104AB0009F4FFC01808191818C01C8010197F1F722
:104AC0008C01CE0183599F4FFC0111830083CE01DD
:104AD00085599F4F9E0125593F4FF9012081318112
:104AE00021503040FC0131832083CE0185599F4FF6
:104AF000FC0180819181009789F62FC08E010559B4
:104B00001F4FCE0189599F4FFC01608171818281C5
:104B100093810E949149DC01CB01F801918380834C
:104B2000CE0181599F4F9E0125593F4FF9012081A8
:104B30003181FC0131832083CE0181599F4FFC01DB
:104B4000808191818C01C8010197F1F78C01CE0120
:104B500081599F4FFC011183008387E390E00E94FD
:104B60004D130E9426129E012F583F4F80E090E087
:104B7000A6E9B3E4F90180839183A283B3838E0114
:104B80000B581F4FCE018F589F4FFC0160817181E0
:104B90008281938126E636E646E655E40E94734A12
:104BA000DC01CB01F80180839183A283B383CE0122
:104BB0008B589F4F11E0FC0160817181828193814C
:104BC00020E030E040E85FE30E94254988230CF0B4
:104BD00010E0112349F0CE0187589F4F21E030E0CB
:104BE000FC013183208374C0CE018B589F4F11E0AC
:104BF000FC01608171818281938120E03FEF4FE76A
:104C000057E40E946F4A18160CF010E0112309F4C3
:104C10004DC0CE018F589F4FFC0160817181828110
:104C2000938120E030E040E251E40E94734ADC01CD
:104C3000CB018E0107581F4FBC01CD010E94914945
:104C4000DC01CB01F8019183808327C0CE01855818
:104C50009F4F20E731E0FC0131832083CE0185584E
:104C60009F4FFC01808191818C01C8010197F1F770
:104C70008C01CE0185589F4FFC0111830083CE012A
:104C800087589F4F9E0127583F4FF901208131815E
:104C900021503040FC0131832083CE0187589F4F43
:104CA000FC0180819181009789F62FC08E01075801
:104CB0001F4FCE018B589F4FFC0160817181828113
:104CC00093810E949149DC01CB01F801918380839B
:104CD000CE0183589F4F9E0127583F4FF9012081F5
:104CE0003181FC0131832083CE0183589F4FFC0129
:104CF000808191818C01C8010197F1F78C01CE016F
:104D000083589F4FFC01118300830E94B81C0E94AE
:104D100026129E0121583F4F80E090E0A6E9B3E4BF
:104D2000F90180839183A283B3838E010D571F4FB6
:104D3000CE0181589F4FFC016081718182819381F6
:104D400026E636E646E655E40E94734ADC01CB01CE
:104D5000F80180839183A283B383CE018D579F4F47
:104D600011E0FC01608171818281938120E030E05B
:104D700040E85FE30E94254988230CF010E01123EE
:104D800049F0CE0189579F4F21E030E0FC0131838B
:104D9000208374C0CE018D579F4F11E0FC016081CC
:104DA00071818281938120E03FEF4FE757E40E94B9
:104DB0006F4A18160CF010E0112309F44DC0CE0113
:104DC00081589F4FFC01608171818281938120E035
:104DD00030E040E251E40E94734ADC01CB018E01D5
:104DE00009571F4FBC01CD010E949149DC01CB0145
:104DF000F8019183808327C0CE0187579F4F20E71A
:104E000031E0FC0131832083CE0187579F4FFC01A5
:104E1000808191818C01C8010197F1F78C01CE014D
:104E200087579F4FFC0111830083CE0189579F4F05
:104E30009E0129573F4FF901208131812150304097
:104E4000FC0131832083CE0189579F4FFC01808173
:104E50009181009789F62FC08E0109571F4FCE010F
:104E60008D579F4FFC0160817181828193810E94E7
:104E70009149DC01CB01F80191838083CE018557F4
:104E80009F4F9E0129573F4FF90120813181FC013D
:104E900031832083CE0185579F4FFC018081918112
:104EA0008C01C8010197F1F78C01CE0185579F4F06
:104EB000FC01118300830E94631D0E9426129E0143
:104EC00023573F4F80E090E0A6E9B3E4F9018083E7
:104ED0009183A283B3838E010F561F4FCE01835758
:104EE0009F4FFC01608171818281938126E636E6C5
:104EF00046E655E40E94734ADC01CB01F801808349
:104F00009183A283B383CE018F569F4F11E0FC01A2
:104F1000608171818281938120E030E040E85FE32D
:104F20000E94254988230CF010E0112349F0CE019E
:104F30008B569F4F21E030E0FC013183208374C009
:104F4000CE018F569F4F11E0FC01608171818281FB
:104F5000938120E03FEF4FE757E40E946F4A181615
:104F60000CF010E0112309F44DC0CE0183579F4F80
:104F7000FC01608171818281938120E030E040E218
:104F800051E40E94734ADC01CB018E010B561F4F86
:104F9000BC01CD010E949149DC01CB01F801918354
:104FA000808327C0CE0189569F4F20E731E0FC0166
:104FB00031832083CE0189569F4FFC0180819181EE
:104FC0008C01C8010197F1F78C01CE0189569F4FE2
:104FD000FC0111830083CE018B569F4F9E012B56FF
:104FE0003F4FF9012081318121503040FC01318354
:104FF0002083CE018B569F4FFC01808191810097C9
:1050000089F62FC08E010B561F4FCE018F569F4F32
:10501000FC0160817181828193810E949149DC0150
:10502000CB01F80191838083CE0187569F4F9E016B
:105030002B563F4FF90120813181FC0131832083C0
:10504000CE0187569F4FFC01808191818C01C80160
:105050000197F1F78C01CE0187569F4FFC01118318
:10506000008384E190E00E944D130E947F3A0E94E9
:10507000631D0E9426129E0125563F4F80E090E05E
:10508000A6E9B3E4F90180839183A283B3838E01FF
:1050900001561F4FCE0185569F4FFC0160817181E3
:1050A0008281938126E636E646E655E40E94734AFD
:1050B000DC01CB01F80180839183A283B383CE010D
:1050C00081569F4F11E0FC01608171818281938143
:1050D00020E030E040E85FE30E94254988230CF09F
:1050E00010E0112349F0CE018D559F4F21E030E0B3
:1050F000FC013183208374C0CE0181569F4F11E0A3
:10510000FC01608171818281938120E03FEF4FE754
:1051100057E40E946F4A18160CF010E0112309F4AE
:105120004DC0CE0185569F4FFC0160817181828107
:10513000938120E030E040E251E40E94734ADC01B8
:10514000CB018E010D551F4FBC01CD010E9491492D
:10515000DC01CB01F8019183808327C0CE018B5500
:105160009F4F20E731E0FC0131832083CE018B5536
:105170009F4FFC01808191818C01C8010197F1F75B
:105180008C01CE018B559F4FFC0111830083CE0112
:105190008D559F4F9E012D553F4FF9012081318143
:1051A00021503040FC0131832083CE018D559F4F2B
:1051B000FC0180819181009789F62FC08E010D55E9
:1051C0001F4FCE0181569F4FFC016081718182810A
:1051D00093810E949149DC01CB01F8019183808386
:1051E000CE0189559F4F9E012D553F4FF9012081DA
:1051F0003181FC0131832083CE0189559F4FFC0111
:10520000808191818C01C8010197F1F78C01CE0159
:1052100089559F4FFC011183008387E390E00E9432
:105220004D130E9426129E0127553F4F80E090E0CB
:10523000A6E9B3E4F90180839183A283B3838E014D
:1052400003551F4FCE0187559F4FFC01608171812F
:105250008281938126E636E646E655E40E94734A4B
:10526000DC01CB01F80180839183A283B383CE015B
:1052700083559F4F11E0FC01608171818281938190
:1052800020E030E040E85FE30E94254988230CF0ED
:1052900010E0112349F0CE018F549F4F21E030E000
:1052A000FC013183208374C0CE0183559F4F11E0F0
:1052B000FC01608171818281938120E03FEF4FE7A3
:1052C00057E40E946F4A18160CF010E0112309F4FD
:1052D0004DC0CE0187559F4FFC0160817181828155
:1052E000938120E030E040E251E40E94734ADC0107
:1052F000CB018E010F541F4FBC01CD010E9491497B
:10530000DC01CB01F8019183808327C0CE018D544D
:105310009F4F20E731E0FC0131832083CE018D5483
:105320009F4FFC01808191818C01C8010197F1F7A9
:105330008C01CE018D549F4FFC0111830083CE015F
:105340008F549F4F9E012F543F4FF901208131818F
:1053500021503040FC0131832083CE018F549F4F78
:10536000FC0180819181009789F62FC08E010F5436
:105370001F4FCE0183559F4FFC0160817181828157
:1053800093810E949149DC01CB01F80191838083D4
:10539000CE018B549F4F9E012F543F4FF901208126
:1053A0003181FC0131832083CE018B549F4FFC015E
:1053B000808191818C01C8010197F1F78C01CE01A8
:1053C0008B549F4FFC01118300830E94B81C0E94E4
:1053D00026129E0129543F4F80E090E0A6E9B3E4F5
:1053E000F90180839183A283B3838E0105541F4FFB
:1053F000CE0189549F4FFC0160817181828193812C
:1054000026E636E646E655E40E94734ADC01CB0107
:10541000F80180839183A283B383CE0185549F4F8B
:1054200011E0FC01608171818281938120E030E094
:1054300040E85FE30E94254988230CF010E0112327
:1054400049F0CE0181549F4F21E030E0FC013183CF
:10545000208374C0CE0185549F4F11E0FC01608110
:1054600071818281938120E03FEF4FE757E40E94F2
:105470006F4A18160CF010E0112309F44DC0CE014C
:1054800089549F4FFC01608171818281938120E06A
:1054900030E040E251E40E94734ADC01CB018E010E
:1054A00001541F4FBC01CD010E949149DC01CB0189
:1054B000F8019183808327C0CE018F539F4F20E74F
:1054C00031E0FC0131832083CE018F539F4FFC01DB
:1054D000808191818C01C8010197F1F78C01CE0187
:1054E0008F539F4FFC0111830083CE0181549F4F46
:1054F0009E0121543F4FF9012081318121503040DC
:10550000FC0131832083CE0181549F4FFC018081B7
:105510009181009789F62FC08E0101541F4FCE0153
:1055200085549F4FFC0160817181828193810E942B
:105530009149DC01CB01F80191838083CE018D5329
:105540009F4F9E0121543F4FF90120813181FC0181
:1055500031832083CE018D539F4FFC018081918147
:105560008C01C8010197F1F78C01CE018D539F4F3B
:10557000FC01118300830E94631D0E9426129E017C
:105580002B533F4F80E090E0A6E9B3E4F90180831C
:105590009183A283B3838E0107531F4FCE018B5398
:1055A0009F4FFC01608171818281938126E636E6FE
:1055B00046E655E40E94734ADC01CB01F801808382
:1055C0009183A283B383CE0187539F4F11E0FC01E7
:1055D000608171818281938120E030E040E85FE367
:1055E0000E94254988230CF010E0112349F0CE01D8
:1055F00083539F4F21E030E0FC013183208374C04E
:10560000CE0187539F4F11E0FC016081718182813F
:10561000938120E03FEF4FE757E40E946F4A18164E
:105620000CF010E0112309F44DC0CE018B539F4FB5
:10563000FC01608171818281938120E030E040E251
:1056400051E40E94734ADC01CB018E0103531F4FCA
:10565000BC01CD010E949149DC01CB01F80191838D
:10566000808327C0CE0181539F4F20E731E0FC01AA
:1056700031832083CE0181539F4FFC018081918132
:105680008C01C8010197F1F78C01CE0181539F4F26
:10569000FC0111830083CE0183539F4F9E0123534E
:1056A0003F4FF9012081318121503040FC0131838D
:1056B0002083CE0183539F4FFC018081918100970D
:1056C00089F62FC08E0103531F4FCE0187539F4F82
:1056D000FC0160817181828193810E949149DC018A
:1056E000CB01F80191838083CE018F529F4F9E01A1
:1056F00023533F4FF90120813181FC013183208305
:10570000CE018F529F4FFC01808191818C01C80195
:105710000197F1F78C01CE018F529F4FFC0111834D
:1057200000830E94031680913A02803730F481E3AF
:1057300090E090930B0280930A0287E390E00E942E
:105740004D130E9426129E012D523F4F80E090E0A3
:10575000A6E9B3E4F90180839183A283B3838E0128
:1057600009521F4FCE018D529F4FFC016081718104
:105770008281938126E636E646E655E40E94734A26
:10578000DC01CB01F80180839183A283B383CE0136
:1057900089529F4F11E0FC01608171818281938168
:1057A00020E030E040E85FE30E94254988230CF0C8
:1057B00010E0112349F0CE0185529F4F21E030E0E7
:1057C000FC013183208374C0CE0189529F4F11E0C8
:1057D000FC01608171818281938120E03FEF4FE77E
:1057E00057E40E946F4A18160CF010E0112309F4D8
:1057F0004DC0CE018D529F4FFC016081718182812D
:10580000938120E030E040E251E40E94734ADC01E1
:10581000CB018E0105521F4FBC01CD010E94914961
:10582000DC01CB01F8019183808327C0CE01835234
:105830009F4F20E731E0FC0131832083CE0183526A
:105840009F4FFC01808191818C01C8010197F1F784
:105850008C01CE0183529F4FFC0111830083CE0146
:1058600085529F4F9E0125523F4FF9012081318182
:1058700021503040FC0131832083CE0185529F4F5F
:10588000FC0180819181009789F62FC08E0105521D
:105890001F4FCE0189529F4FFC016081718182812F
:1058A00093810E949149DC01CB01F80191838083AF
:1058B000CE0181529F4F9E0125523F4FF901208119
:1058C0003181FC0131832083CE0181529F4FFC0145
:1058D000808191818C01C8010197F1F78C01CE0183
:1058E00081529F4FFC011183008385E590E00E9467
:1058F000C1120E9426129E012F513F4F80E090E07E
:10590000A6E9B3E4F90180839183A283B3838E0176
:105910000B511F4FCE018F519F4FFC016081718150
:105920008281938126E636E646E655E40E94734A74
:10593000DC01CB01F80180839183A283B383CE0184
:105940008B519F4F11E0FC016081718182819381B5
:1059500020E030E040E85FE30E94254988230CF016
:1059600010E0112349F0CE0187519F4F21E030E034
:10597000FC013183208374C0CE018B519F4F11E015
:10598000FC01608171818281938120E03FEF4FE7CC
:1059900057E40E946F4A18160CF010E0112309F426
:1059A0004DC0CE018F519F4FFC016081718182817A
:1059B000938120E030E040E251E40E94734ADC0130
:1059C000CB018E0107511F4FBC01CD010E949149AF
:1059D000DC01CB01F8019183808327C0CE01855182
:1059E0009F4F20E731E0FC0131832083CE018551B8
:1059F0009F4FFC01808191818C01C8010197F1F7D3
:105A00008C01CE0185519F4FFC0111830083CE0193
:105A100087519F4F9E0127513F4FF90120813181CE
:105A200021503040FC0131832083CE0187519F4FAC
:105A3000FC0180819181009789F62FC08E0107516A
:105A40001F4FCE018B519F4FFC016081718182817C
:105A500093810E949149DC01CB01F80191838083FD
:105A6000CE0183519F4F9E0127513F4FF901208165
:105A70003181FC0131832083CE0183519F4FFC0192
:105A8000808191818C01C8010197F1F78C01CE01D1
:105A900083519F4FFC01118300838AE590E00E94AF
:105AA00060130E9426129E0121513F4F80E090E03A
:105AB000A6E9B3E4F90180839183A283B3838E01C5
:105AC0000D501F4FCE0181519F4FFC0160817181AC
:105AD0008281938126E636E646E655E40E94734AC3
